{
  "contracts/CoreValidator.sol": {
    "CoreValidator": {
      "abi": [
        {
          "inputs": [],
          "stateMutability": "nonpayable",
          "type": "constructor"
        },
        {
          "anonymous": false,
          "inputs": [
            {
              "indexed": false,
              "internalType": "uint256",
              "name": "pfsAccepted",
              "type": "uint256"
            }
          ],
          "name": "ProofVerified",
          "type": "event"
        },
        {
          "inputs": [],
          "name": "MAX_GROUPS",
          "outputs": [
            {
              "internalType": "uint256",
              "name": "",
              "type": "uint256"
            }
          ],
          "stateMutability": "view",
          "type": "function"
        },
        {
          "inputs": [],
          "name": "MAX_USERS",
          "outputs": [
            {
              "internalType": "uint256",
              "name": "",
              "type": "uint256"
            }
          ],
          "stateMutability": "view",
          "type": "function"
        },
        {
          "inputs": [
            {
              "internalType": "string",
              "name": "groupName",
              "type": "string"
            },
            {
              "internalType": "uint256",
              "name": "userHash",
              "type": "uint256"
            }
          ],
          "name": "addUserToGroup",
          "outputs": [],
          "stateMutability": "nonpayable",
          "type": "function"
        },
        {
          "inputs": [
            {
              "internalType": "uint256",
              "name": "",
              "type": "uint256"
            }
          ],
          "name": "confessions",
          "outputs": [
            {
              "internalType": "uint256",
              "name": "id",
              "type": "uint256"
            },
            {
              "internalType": "string",
              "name": "text",
              "type": "string"
            },
            {
              "internalType": "string",
              "name": "group",
              "type": "string"
            },
            {
              "internalType": "bool",
              "name": "verified",
              "type": "bool"
            }
          ],
          "stateMutability": "view",
          "type": "function"
        },
        {
          "inputs": [
            {
              "internalType": "string",
              "name": "groupName",
              "type": "string"
            },
            {
              "internalType": "uint256",
              "name": "passwordHash",
              "type": "uint256"
            }
          ],
          "name": "createGroup",
          "outputs": [],
          "stateMutability": "nonpayable",
          "type": "function"
        },
        {
          "inputs": [
            {
              "internalType": "string",
              "name": "message",
              "type": "string"
            },
            {
              "internalType": "string",
              "name": "groupName",
              "type": "string"
            }
          ],
          "name": "createMessage",
          "outputs": [],
          "stateMutability": "nonpayable",
          "type": "function"
        },
        {
          "inputs": [
            {
              "internalType": "uint256",
              "name": "groupID",
              "type": "uint256"
            }
          ],
          "name": "getAllHashedUsersByGroupID",
          "outputs": [
            {
              "internalType": "uint256[10]",
              "name": "",
              "type": "uint256[10]"
            }
          ],
          "stateMutability": "view",
          "type": "function"
        },
        {
          "inputs": [
            {
              "internalType": "string",
              "name": "groupName",
              "type": "string"
            }
          ],
          "name": "getAllHashedUsersByGroupName",
          "outputs": [
            {
              "internalType": "uint256[10]",
              "name": "",
              "type": "uint256[10]"
            }
          ],
          "stateMutability": "view",
          "type": "function"
        },
        {
          "inputs": [
            {
              "internalType": "uint256",
              "name": "confessionID",
              "type": "uint256"
            }
          ],
          "name": "getConfessionByID",
          "outputs": [
            {
              "components": [
                {
                  "internalType": "uint256",
                  "name": "id",
                  "type": "uint256"
                },
                {
                  "internalType": "string",
                  "name": "text",
                  "type": "string"
                },
                {
                  "internalType": "string",
                  "name": "group",
                  "type": "string"
                },
                {
                  "internalType": "bool",
                  "name": "verified",
                  "type": "bool"
                }
              ],
              "internalType": "struct ContractStorage.Message",
              "name": "",
              "type": "tuple"
            }
          ],
          "stateMutability": "view",
          "type": "function"
        },
        {
          "inputs": [],
          "name": "getConfessions",
          "outputs": [
            {
              "components": [
                {
                  "internalType": "uint256",
                  "name": "id",
                  "type": "uint256"
                },
                {
                  "internalType": "string",
                  "name": "text",
                  "type": "string"
                },
                {
                  "internalType": "string",
                  "name": "group",
                  "type": "string"
                },
                {
                  "internalType": "bool",
                  "name": "verified",
                  "type": "bool"
                }
              ],
              "internalType": "struct ContractStorage.Message[]",
              "name": "",
              "type": "tuple[]"
            }
          ],
          "stateMutability": "view",
          "type": "function"
        },
        {
          "inputs": [
            {
              "internalType": "uint256",
              "name": "groupID",
              "type": "uint256"
            }
          ],
          "name": "getGroupByID",
          "outputs": [
            {
              "components": [
                {
                  "internalType": "string",
                  "name": "name",
                  "type": "string"
                },
                {
                  "internalType": "uint256",
                  "name": "passwordHash",
                  "type": "uint256"
                },
                {
                  "internalType": "uint256[10]",
                  "name": "users",
                  "type": "uint256[10]"
                },
                {
                  "internalType": "uint256",
                  "name": "userCount",
                  "type": "uint256"
                }
              ],
              "internalType": "struct ContractStorage.Group",
              "name": "",
              "type": "tuple"
            }
          ],
          "stateMutability": "view",
          "type": "function"
        },
        {
          "inputs": [],
          "name": "getGroups",
          "outputs": [
            {
              "components": [
                {
                  "internalType": "string",
                  "name": "name",
                  "type": "string"
                },
                {
                  "internalType": "uint256",
                  "name": "passwordHash",
                  "type": "uint256"
                },
                {
                  "internalType": "uint256[10]",
                  "name": "users",
                  "type": "uint256[10]"
                },
                {
                  "internalType": "uint256",
                  "name": "userCount",
                  "type": "uint256"
                }
              ],
              "internalType": "struct ContractStorage.Group[10]",
              "name": "",
              "type": "tuple[10]"
            }
          ],
          "stateMutability": "view",
          "type": "function"
        },
        {
          "inputs": [],
          "name": "groupCount",
          "outputs": [
            {
              "internalType": "uint256",
              "name": "",
              "type": "uint256"
            }
          ],
          "stateMutability": "view",
          "type": "function"
        },
        {
          "inputs": [
            {
              "internalType": "string",
              "name": "",
              "type": "string"
            }
          ],
          "name": "groupExists",
          "outputs": [
            {
              "internalType": "bool",
              "name": "",
              "type": "bool"
            }
          ],
          "stateMutability": "view",
          "type": "function"
        },
        {
          "inputs": [
            {
              "internalType": "string",
              "name": "",
              "type": "string"
            }
          ],
          "name": "groupIDs",
          "outputs": [
            {
              "internalType": "uint256",
              "name": "",
              "type": "uint256"
            }
          ],
          "stateMutability": "view",
          "type": "function"
        },
        {
          "inputs": [
            {
              "internalType": "uint256",
              "name": "",
              "type": "uint256"
            }
          ],
          "name": "groups",
          "outputs": [
            {
              "internalType": "string",
              "name": "name",
              "type": "string"
            },
            {
              "internalType": "uint256",
              "name": "passwordHash",
              "type": "uint256"
            },
            {
              "internalType": "uint256",
              "name": "userCount",
              "type": "uint256"
            }
          ],
          "stateMutability": "view",
          "type": "function"
        },
        {
          "inputs": [],
          "name": "pfsVerified",
          "outputs": [
            {
              "internalType": "uint256",
              "name": "",
              "type": "uint256"
            }
          ],
          "stateMutability": "view",
          "type": "function"
        },
        {
          "inputs": [
            {
              "internalType": "uint256[2]",
              "name": "a",
              "type": "uint256[2]"
            },
            {
              "internalType": "uint256[2][2]",
              "name": "b",
              "type": "uint256[2][2]"
            },
            {
              "internalType": "uint256[2]",
              "name": "c",
              "type": "uint256[2]"
            },
            {
              "internalType": "uint256[14]",
              "name": "input",
              "type": "uint256[14]"
            },
            {
              "internalType": "string",
              "name": "message",
              "type": "string"
            },
            {
              "internalType": "string",
              "name": "groupName",
              "type": "string"
            }
          ],
          "name": "verifyAndAddMessage",
          "outputs": [
            {
              "internalType": "bool",
              "name": "",
              "type": "bool"
            }
          ],
          "stateMutability": "nonpayable",
          "type": "function"
        },
        {
          "inputs": [
            {
              "internalType": "uint256[2]",
              "name": "keyA",
              "type": "uint256[2]"
            },
            {
              "internalType": "uint256[2][2]",
              "name": "keyB",
              "type": "uint256[2][2]"
            },
            {
              "internalType": "uint256[2]",
              "name": "keyC",
              "type": "uint256[2]"
            },
            {
              "internalType": "uint256[1]",
              "name": "keyInput",
              "type": "uint256[1]"
            },
            {
              "internalType": "uint256[2]",
              "name": "passwordA",
              "type": "uint256[2]"
            },
            {
              "internalType": "uint256[2][2]",
              "name": "passwordB",
              "type": "uint256[2][2]"
            },
            {
              "internalType": "uint256[2]",
              "name": "passwordC",
              "type": "uint256[2]"
            },
            {
              "internalType": "uint256[2]",
              "name": "passwordInput",
              "type": "uint256[2]"
            },
            {
              "internalType": "string",
              "name": "groupName",
              "type": "string"
            }
          ],
          "name": "verifyAndStoreRegistration",
          "outputs": [
            {
              "internalType": "bool",
              "name": "",
              "type": "bool"
            }
          ],
          "stateMutability": "nonpayable",
          "type": "function"
        }
      ],
      "evm": {
        "bytecode": {
          "linkReferences": {
            "contracts/Verifier.sol": {
              "Verifier": [
                {
                  "length": 20,
                  "start": 2943
                },
                {
                  "length": 20,
                  "start": 3160
                },
                {
                  "length": 20,
                  "start": 5160
                }
              ]
            }
          },
          "object": "6080604052600160855534801561001557600080fd5b506000608755611f528061002a6000396000f3fe608060405234801561001057600080fd5b50600436106101515760003560e01c80639b9ee534116100cd578063e1b4fedd11610081578063f3451b2f11610066578063f3451b2f14610314578063fa6ac13114610314578063fc9a47ed1461031c57610151565b8063e1b4fedd146102ec578063e367fc6a1461030157610151565b8063cdd781e2116100b2578063cdd781e214610298578063ceb9c570146102c6578063dc6af89f146102d957610151565b80639b9ee53414610260578063c72b51761461028357610151565b80635aab6635116101245780637cf7b946116101095780637cf7b946146102125780638f23b3261461023557806396324bd41461023e57610151565b80635aab6635146101dd57806365700b70146101f257610151565b806315796fb2146101565780632c166ab2146101725780633af1159f146101925780634b48f2e9146101b2575b600080fd5b61015f60865481565b6040519081526020015b60405180910390f35b610185610180366004611a81565b61032f565b6040516101699190611ca6565b6101a56101a0366004611a81565b6103ee565b6040516101699190611ddb565b61015f6101c03660046119a2565b805160208183018101805160018252928201919093012091525481565b6101f06101eb366004611a3e565b6105eb565b005b610205610200366004611a81565b610719565b6040516101699190611dc8565b610225610220366004611a81565b610888565b6040516101699493929190611dee565b61015f60855481565b61025161024c366004611a81565b6109d7565b60405161016993929190611da3565b61027361026e3660046118a3565b610a8a565b6040519015158152602001610169565b61028b610d63565b6040516101699190611bf7565b6102736102a63660046119a2565b805160208183018101805160848252928201919093012091525460ff1681565b6101856102d43660046119a2565b610e8f565b6101f06102e73660046119dd565b610ec4565b6102f4610fd7565b6040516101699190611c45565b6101f061030f366004611a3e565b611232565b61015f600a81565b61027361032a3660046117b1565b6113ec565b61033761152d565b816085541161038d5760405162461bcd60e51b815260206004820152601260248201527f4e6f7420656e6f7567682067726f75707321000000000000000000000000000060448201526064015b60405180910390fd5b600282600a81106103ae57634e487b7160e01b600052603260045260246000fd5b6040805161014081019182905292600d9290920290910160020190600a9082845b8154815260200190600101908083116103cf5750505050509050919050565b61041b60405180608001604052806000815260200160608152602001606081526020016000151581525090565b816087541161046c5760405162461bcd60e51b815260206004820152601760248201527f4e6f7420656e6f75676820636f6e66657373696f6e73210000000000000000006044820152606401610384565b6000828154811061048d57634e487b7160e01b600052603260045260246000fd5b9060005260206000209060040201604051806080016040529081600082015481526020016001820180546104c090611ec3565b80601f01602080910402602001604051908101604052809291908181526020018280546104ec90611ec3565b80156105395780601f1061050e57610100808354040283529160200191610539565b820191906000526020600020905b81548152906001019060200180831161051c57829003601f168201915b5050505050815260200160028201805461055290611ec3565b80601f016020809104026020016040519081016040528092919081815260200182805461057e90611ec3565b80156105cb5780601f106105a0576101008083540402835291602001916105cb565b820191906000526020600020905b8154815290600101906020018083116105ae57829003601f168201915b50505091835250506003919091015460ff16151560209091015292915050565b60006001836040516105fd9190611bdb565b90815260200160405180910390205490506000600282600a811061063157634e487b7160e01b600052603260045260246000fd5b600d0201600c01549050600a811061068b5760405162461bcd60e51b815260206004820152600f60248201527f546f6f206d616e792075736572732100000000000000000000000000000000006044820152606401610384565b82600283600a81106106ad57634e487b7160e01b600052603260045260246000fd5b600d020160020182600a81106106d357634e487b7160e01b600052603260045260246000fd5b0155600282600a81106106f657634e487b7160e01b600052603260045260246000fd5b600d0201600c01600081548092919061070e90611efe565b919050555050505050565b61072161154c565b81608554116107725760405162461bcd60e51b815260206004820152601260248201527f4e6f7420656e6f7567682067726f7570732100000000000000000000000000006044820152606401610384565b600282600a811061079357634e487b7160e01b600052603260045260246000fd5b600d02016040518060800160405290816000820180546107b290611ec3565b80601f01602080910402602001604051908101604052809291908181526020018280546107de90611ec3565b801561082b5780601f106108005761010080835404028352916020019161082b565b820191906000526020600020905b81548152906001019060200180831161080e57829003601f168201915b505050918352505060018201546020820152604080516101408101825291019060028301600a8282826020028201915b81548152602001906001019080831161085b5750505050508152602001600c820154815250509050919050565b6000818154811061089857600080fd5b600091825260209091206004909102018054600182018054919350906108bd90611ec3565b80601f01602080910402602001604051908101604052809291908181526020018280546108e990611ec3565b80156109365780601f1061090b57610100808354040283529160200191610936565b820191906000526020600020905b81548152906001019060200180831161091957829003601f168201915b50505050509080600201805461094b90611ec3565b80601f016020809104026020016040519081016040528092919081815260200182805461097790611ec3565b80156109c45780601f10610999576101008083540402835291602001916109c4565b820191906000526020600020905b8154815290600101906020018083116109a757829003601f168201915b5050506003909301549192505060ff1684565b600281600a81106109e757600080fd5b600d0201805490915081906109fb90611ec3565b80601f0160208091040260200160405190810160405280929190818152602001828054610a2790611ec3565b8015610a745780601f10610a4957610100808354040283529160200191610a74565b820191906000526020600020905b815481529060010190602001808311610a5757829003601f168201915b50505050509080600101549080600c0154905083565b60006002600183604051610a9e9190611bdb565b908152602001604051809103902054600a8110610acb57634e487b7160e01b600052603260045260246000fd5b600d02016001015483600060028110610af457634e487b7160e01b600052603260045260246000fd5b602002015114610b465760405162461bcd60e51b815260206004820152601060248201527f57726f6e672070617373206861736821000000000000000000000000000000006044820152606401610384565b6040516306baed4d60e41b815273__$6b78ae7bf09e0e72535be6401663f3a543$__90636baed4d090610b83908d908d908d908d90600401611d12565b60206040518083038186803b158015610b9b57600080fd5b505af4158015610baf573d6000803e3d6000fd5b505050506040513d601f19601f82011682018060405250810190610bd39190611982565b610c1f5760405162461bcd60e51b815260206004820152601260248201527f4b65792070726f6f6620696e76616c69642100000000000000000000000000006044820152606401610384565b604051632159cf0160e01b815273__$6b78ae7bf09e0e72535be6401663f3a543$__90632159cf0190610c5c908990899089908990600401611d63565b60206040518083038186803b158015610c7457600080fd5b505af4158015610c88573d6000803e3d6000fd5b505050506040513d601f19601f82011682018060405250810190610cac9190611982565b610cf85760405162461bcd60e51b815260206004820152601760248201527f50617373776f72642070726f6f6620696e76616c6964210000000000000000006044820152606401610384565b8651610d059083906105eb565b600160866000828254610d189190611e7f565b90915550506086546040519081527f4eb5ee08f6bd1352ed7b0dac0ee5e5b7cb984b0477d694d9db613b705f47f2ab9060200160405180910390a15060019998505050505050505050565b610d6b61157a565b6040805161014081019091526002600a6000835b82821015610e86578382600d0201604051806080016040529081600082018054610da890611ec3565b80601f0160208091040260200160405190810160405280929190818152602001828054610dd490611ec3565b8015610e215780601f10610df657610100808354040283529160200191610e21565b820191906000526020600020905b815481529060010190602001808311610e0457829003601f168201915b505050918352505060018201546020820152604080516101408101825291019060028301600a8282826020028201915b815481526020019060010190808311610e515750505050508152602001600c8201548152505081526020019060010190610d7f565b50505050905090565b610e9761152d565b610ebe600183604051610eaa9190611bdb565b90815260200160405180910390205461032f565b92915050565b610ef160405180608001604052806000815260200160608152602001606081526020016000151581525090565b6087548152602080820184815260408301849052600060608401819052805460018101825590805283517f290decd9548b62a8d60345a988386fc84ba6bc95484008f6362f93160ef3e5636004909202918201908155915180518594610f7b937f290decd9548b62a8d60345a988386fc84ba6bc95484008f6362f93160ef3e564019201906115a8565b5060408201518051610f979160028401916020909101906115a8565b5060608201518160030160006101000a81548160ff0219169083151502179055505050600160876000828254610fcd9190611e7f565b9091555050505050565b60875460609060008167ffffffffffffffff81111561100657634e487b7160e01b600052604160045260246000fd5b60405190808252806020026020018201604052801561106457816020015b61105160405180608001604052806000815260200160608152602001606081526020016000151581525090565b8152602001906001900390816110245790505b50905060005b8281101561122b576000818154811061109357634e487b7160e01b600052603260045260246000fd5b9060005260206000209060040201604051806080016040529081600082015481526020016001820180546110c690611ec3565b80601f01602080910402602001604051908101604052809291908181526020018280546110f290611ec3565b801561113f5780601f106111145761010080835404028352916020019161113f565b820191906000526020600020905b81548152906001019060200180831161112257829003601f168201915b5050505050815260200160028201805461115890611ec3565b80601f016020809104026020016040519081016040528092919081815260200182805461118490611ec3565b80156111d15780601f106111a6576101008083540402835291602001916111d1565b820191906000526020600020905b8154815290600101906020018083116111b457829003601f168201915b50505091835250506003919091015460ff161515602090910152825183908390811061120d57634e487b7160e01b600052603260045260246000fd5b6020026020010181905250808061122390611efe565b91505061106a565b5091505090565b6084826040516112429190611bdb565b9081526040519081900360200190205460ff16156112a25760405162461bcd60e51b815260206004820152601560248201527f47726f757020616c7265616479206578697374732100000000000000000000006044820152606401610384565b600a608554106112f45760405162461bcd60e51b815260206004820152601060248201527f546f6f206d616e792067726f75707321000000000000000000000000000000006044820152606401610384565b6112fc61154c565b6020810182905282815260006060820152608554604051600190611321908690611bdb565b90815260200160405180910390208190555060016084846040516113459190611bdb565b908152604051908190036020019020805491151560ff199092169190911790556085548190600290600a811061138b57634e487b7160e01b600052603260045260246000fd5b600d020160008201518160000190805190602001906113ab9291906115a8565b506020820151600182015560408201516113cb906002830190600a61162c565b50606082015181600c0155905050600160856000828254610fcd9190611e7f565b604051631714411560e21b815260009073__$6b78ae7bf09e0e72535be6401663f3a543$__90635c5104549061142c908a908a908a908a90600401611cb5565b60206040518083038186803b15801561144457600080fd5b505af4158015611458573d6000803e3d6000fd5b505050506040513d601f19601f8201168201806040525081019061147c9190611982565b6114c85760405162461bcd60e51b815260206004820152600e60248201527f50726f6f6620696e76616c6964210000000000000000000000000000000000006044820152606401610384565b6001608660008282546114db9190611e7f565b90915550506086546040519081527f4eb5ee08f6bd1352ed7b0dac0ee5e5b7cb984b0477d694d9db613b705f47f2ab9060200160405180910390a16115208383610ec4565b5060019695505050505050565b604051806101400160405280600a906020820280368337509192915050565b6040518060800160405280606081526020016000815260200161156d61152d565b8152602001600081525090565b604051806101400160405280600a905b61159261154c565b81526020019060019003908161158a5790505090565b8280546115b490611ec3565b90600052602060002090601f0160209004810192826115d6576000855561161c565b82601f106115ef57805160ff191683800117855561161c565b8280016001018555821561161c579182015b8281111561161c578251825591602001919060010190611601565b50611628929150611659565b5090565b82600a810192821561161c579160200282018281111561161c578251825591602001919060010190611601565b5b80821115611628576000815560010161165a565b600061168161167c84611e5e565b611e2d565b90508082858560051b8501111561169757600080fd5b60005b858110156116b857813583526020928301929091019060010161169a565b5050509392505050565b600082601f8301126116d2578081fd5b60406116dd81611e2d565b8084866080870111156116ee578485fd5b845b6002811015611717576117038883611723565b8452602090930192908401906001016116f0565b50909695505050505050565b600082601f830112611733578081fd5b61173f8360028461166e565b9392505050565b600082601f830112611756578081fd5b813567ffffffffffffffff81111561177057611770611f2f565b611783601f8201601f1916602001611e2d565b818152846020838601011115611797578283fd5b816020850160208301379081016020019190915292915050565b60008060008060008061030087890312156117ca578182fd5b6117d48888611723565b95506117e388604089016116c2565b94506117f28860c08901611723565b93508761011f880112611803578182fd5b600e61181161167c82611e5e565b806101008a016102c08b018c811115611828578687fd5b865b8581101561184857823585526020948501949092019160010161182a565b509196505035915067ffffffffffffffff905080821115611867578384fd5b6118738a838b01611746565b93506102e0890135915080821115611889578283fd5b5061189689828a01611746565b9150509295509295509295565b60008060008060008060008060006102808a8c0312156118c1578283fd5b6118cb8b8b611723565b98506118da8b60408c016116c2565b97506118e98b60c08c01611723565b96508a61011f8b01126118fa578283fd5b61190a8b60016101008d0161166e565b955061191a8b6101208c01611723565b945061192a8b6101608c016116c2565b935061193a8b6101e08c01611723565b925061194a8b6102208c01611723565b91506102608a013567ffffffffffffffff811115611966578182fd5b6119728c828d01611746565b9150509295985092959850929598565b600060208284031215611993578081fd5b8151801515811461173f578182fd5b6000602082840312156119b3578081fd5b813567ffffffffffffffff8111156119c9578182fd5b6119d584828501611746565b949350505050565b600080604083850312156119ef578182fd5b823567ffffffffffffffff80821115611a06578384fd5b611a1286838701611746565b93506020850135915080821115611a27578283fd5b50611a3485828601611746565b9150509250929050565b60008060408385031215611a50578182fd5b823567ffffffffffffffff811115611a66578283fd5b611a7285828601611746565b95602094909401359450505050565b600060208284031215611a92578081fd5b5035919050565b8060005b6002811015611ac757611ab1848351611af0565b6040939093019260209190910190600101611a9d565b50505050565b8060005b600a811015611ac7578151845260209384019390910190600101611ad1565b8060005b6002811015611ac7578151845260209384019390910190600101611af4565b60008151808452611b2b816020860160208601611e97565b601f01601f19169290920160200192915050565b60006101a08251818552611b5582860182611b13565b915050602083015160208501526040830151611b746040860182611acd565b5060608301516101808501528091505092915050565b600081518352602082015160806020850152611ba96080850182611b13565b905060408301518482036040860152611bc28282611b13565b9150506060830151151560608501528091505092915050565b60008251611bed818460208701611e97565b9190910192915050565b6020808252600090610160830183820185845b600a811015611c3957601f19878503018352611c27848351611b3f565b93509184019190840190600101611c0a565b50919695505050505050565b6000602080830181845280855180835260408601915060408160051b8701019250838701855b82811015611c9957603f19888603018452611c87858351611b8a565b94509285019290850190600101611c6b565b5092979650505050505050565b6101408101610ebe8284611acd565b6102c08101611cc48287611af0565b611cd16040830186611a99565b611cde60c0830185611af0565b61010082018360005b600e811015611d06578151835260209283019290910190600101611ce7565b50505095945050505050565b6101208101611d218287611af0565b611d2e6040830186611a99565b611d3b60c0830185611af0565b61010082018360005b6001811015611d06578151835260209283019290910190600101611d44565b6101408101611d728287611af0565b611d7f6040830186611a99565b611d8c60c0830185611af0565b611d9a610100830184611af0565b95945050505050565b600060608252611db66060830186611b13565b60208301949094525060400152919050565b60006020825261173f6020830184611b3f565b60006020825261173f6020830184611b8a565b600085825260806020830152611e076080830186611b13565b8281036040840152611e198186611b13565b915050821515606083015295945050505050565b604051601f8201601f1916810167ffffffffffffffff81118282101715611e5657611e56611f2f565b604052919050565b600067ffffffffffffffff821115611e7857611e78611f2f565b5060051b90565b60008219821115611e9257611e92611f19565b500190565b60005b83811015611eb2578181015183820152602001611e9a565b83811115611ac75750506000910152565b600181811c90821680611ed757607f821691505b60208210811415611ef857634e487b7160e01b600052602260045260246000fd5b50919050565b6000600019821415611f1257611f12611f19565b5060010190565b634e487b7160e01b600052601160045260246000fd5b634e487b7160e01b600052604160045260246000fdfea164736f6c6343000803000a",
          "opcodes": "PUSH1 0x80 PUSH1 0x40 MSTORE PUSH1 0x1 PUSH1 0x85 SSTORE CALLVALUE DUP1 ISZERO PUSH2 0x15 JUMPI PUSH1 0x0 DUP1 REVERT JUMPDEST POP PUSH1 0x0 PUSH1 0x87 SSTORE PUSH2 0x1F52 DUP1 PUSH2 0x2A PUSH1 0x0 CODECOPY PUSH1 0x0 RETURN INVALID PUSH1 0x80 PUSH1 0x40 MSTORE CALLVALUE DUP1 ISZERO PUSH2 0x10 JUMPI PUSH1 0x0 DUP1 REVERT JUMPDEST POP PUSH1 0x4 CALLDATASIZE LT PUSH2 0x151 JUMPI PUSH1 0x0 CALLDATALOAD PUSH1 0xE0 SHR DUP1 PUSH4 0x9B9EE534 GT PUSH2 0xCD JUMPI DUP1 PUSH4 0xE1B4FEDD GT PUSH2 0x81 JUMPI DUP1 PUSH4 0xF3451B2F GT PUSH2 0x66 JUMPI DUP1 PUSH4 0xF3451B2F EQ PUSH2 0x314 JUMPI DUP1 PUSH4 0xFA6AC131 EQ PUSH2 0x314 JUMPI DUP1 PUSH4 0xFC9A47ED EQ PUSH2 0x31C JUMPI PUSH2 0x151 JUMP JUMPDEST DUP1 PUSH4 0xE1B4FEDD EQ PUSH2 0x2EC JUMPI DUP1 PUSH4 0xE367FC6A EQ PUSH2 0x301 JUMPI PUSH2 0x151 JUMP JUMPDEST DUP1 PUSH4 0xCDD781E2 GT PUSH2 0xB2 JUMPI DUP1 PUSH4 0xCDD781E2 EQ PUSH2 0x298 JUMPI DUP1 PUSH4 0xCEB9C570 EQ PUSH2 0x2C6 JUMPI DUP1 PUSH4 0xDC6AF89F EQ PUSH2 0x2D9 JUMPI PUSH2 0x151 JUMP JUMPDEST DUP1 PUSH4 0x9B9EE534 EQ PUSH2 0x260 JUMPI DUP1 PUSH4 0xC72B5176 EQ PUSH2 0x283 JUMPI PUSH2 0x151 JUMP JUMPDEST DUP1 PUSH4 0x5AAB6635 GT PUSH2 0x124 JUMPI DUP1 PUSH4 0x7CF7B946 GT PUSH2 0x109 JUMPI DUP1 PUSH4 0x7CF7B946 EQ PUSH2 0x212 JUMPI DUP1 PUSH4 0x8F23B326 EQ PUSH2 0x235 JUMPI DUP1 PUSH4 0x96324BD4 EQ PUSH2 0x23E JUMPI PUSH2 0x151 JUMP JUMPDEST DUP1 PUSH4 0x5AAB6635 EQ PUSH2 0x1DD JUMPI DUP1 PUSH4 0x65700B70 EQ PUSH2 0x1F2 JUMPI PUSH2 0x151 JUMP JUMPDEST DUP1 PUSH4 0x15796FB2 EQ PUSH2 0x156 JUMPI DUP1 PUSH4 0x2C166AB2 EQ PUSH2 0x172 JUMPI DUP1 PUSH4 0x3AF1159F EQ PUSH2 0x192 JUMPI DUP1 PUSH4 0x4B48F2E9 EQ PUSH2 0x1B2 JUMPI JUMPDEST PUSH1 0x0 DUP1 REVERT JUMPDEST PUSH2 0x15F PUSH1 0x86 SLOAD DUP2 JUMP JUMPDEST PUSH1 0x40 MLOAD SWAP1 DUP2 MSTORE PUSH1 0x20 ADD JUMPDEST PUSH1 0x40 MLOAD DUP1 SWAP2 SUB SWAP1 RETURN JUMPDEST PUSH2 0x185 PUSH2 0x180 CALLDATASIZE PUSH1 0x4 PUSH2 0x1A81 JUMP JUMPDEST PUSH2 0x32F JUMP JUMPDEST PUSH1 0x40 MLOAD PUSH2 0x169 SWAP2 SWAP1 PUSH2 0x1CA6 JUMP JUMPDEST PUSH2 0x1A5 PUSH2 0x1A0 CALLDATASIZE PUSH1 0x4 PUSH2 0x1A81 JUMP JUMPDEST PUSH2 0x3EE JUMP JUMPDEST PUSH1 0x40 MLOAD PUSH2 0x169 SWAP2 SWAP1 PUSH2 0x1DDB JUMP JUMPDEST PUSH2 0x15F PUSH2 0x1C0 CALLDATASIZE PUSH1 0x4 PUSH2 0x19A2 JUMP JUMPDEST DUP1 MLOAD PUSH1 0x20 DUP2 DUP4 ADD DUP2 ADD DUP1 MLOAD PUSH1 0x1 DUP3 MSTORE SWAP3 DUP3 ADD SWAP2 SWAP1 SWAP4 ADD KECCAK256 SWAP2 MSTORE SLOAD DUP2 JUMP JUMPDEST PUSH2 0x1F0 PUSH2 0x1EB CALLDATASIZE PUSH1 0x4 PUSH2 0x1A3E JUMP JUMPDEST PUSH2 0x5EB JUMP JUMPDEST STOP JUMPDEST PUSH2 0x205 PUSH2 0x200 CALLDATASIZE PUSH1 0x4 PUSH2 0x1A81 JUMP JUMPDEST PUSH2 0x719 JUMP JUMPDEST PUSH1 0x40 MLOAD PUSH2 0x169 SWAP2 SWAP1 PUSH2 0x1DC8 JUMP JUMPDEST PUSH2 0x225 PUSH2 0x220 CALLDATASIZE PUSH1 0x4 PUSH2 0x1A81 JUMP JUMPDEST PUSH2 0x888 JUMP JUMPDEST PUSH1 0x40 MLOAD PUSH2 0x169 SWAP5 SWAP4 SWAP3 SWAP2 SWAP1 PUSH2 0x1DEE JUMP JUMPDEST PUSH2 0x15F PUSH1 0x85 SLOAD DUP2 JUMP JUMPDEST PUSH2 0x251 PUSH2 0x24C CALLDATASIZE PUSH1 0x4 PUSH2 0x1A81 JUMP JUMPDEST PUSH2 0x9D7 JUMP JUMPDEST PUSH1 0x40 MLOAD PUSH2 0x169 SWAP4 SWAP3 SWAP2 SWAP1 PUSH2 0x1DA3 JUMP JUMPDEST PUSH2 0x273 PUSH2 0x26E CALLDATASIZE PUSH1 0x4 PUSH2 0x18A3 JUMP JUMPDEST PUSH2 0xA8A JUMP JUMPDEST PUSH1 0x40 MLOAD SWAP1 ISZERO ISZERO DUP2 MSTORE PUSH1 0x20 ADD PUSH2 0x169 JUMP JUMPDEST PUSH2 0x28B PUSH2 0xD63 JUMP JUMPDEST PUSH1 0x40 MLOAD PUSH2 0x169 SWAP2 SWAP1 PUSH2 0x1BF7 JUMP JUMPDEST PUSH2 0x273 PUSH2 0x2A6 CALLDATASIZE PUSH1 0x4 PUSH2 0x19A2 JUMP JUMPDEST DUP1 MLOAD PUSH1 0x20 DUP2 DUP4 ADD DUP2 ADD DUP1 MLOAD PUSH1 0x84 DUP3 MSTORE SWAP3 DUP3 ADD SWAP2 SWAP1 SWAP4 ADD KECCAK256 SWAP2 MSTORE SLOAD PUSH1 0xFF AND DUP2 JUMP JUMPDEST PUSH2 0x185 PUSH2 0x2D4 CALLDATASIZE PUSH1 0x4 PUSH2 0x19A2 JUMP JUMPDEST PUSH2 0xE8F JUMP JUMPDEST PUSH2 0x1F0 PUSH2 0x2E7 CALLDATASIZE PUSH1 0x4 PUSH2 0x19DD JUMP JUMPDEST PUSH2 0xEC4 JUMP JUMPDEST PUSH2 0x2F4 PUSH2 0xFD7 JUMP JUMPDEST PUSH1 0x40 MLOAD PUSH2 0x169 SWAP2 SWAP1 PUSH2 0x1C45 JUMP JUMPDEST PUSH2 0x1F0 PUSH2 0x30F CALLDATASIZE PUSH1 0x4 PUSH2 0x1A3E JUMP JUMPDEST PUSH2 0x1232 JUMP JUMPDEST PUSH2 0x15F PUSH1 0xA DUP2 JUMP JUMPDEST PUSH2 0x273 PUSH2 0x32A CALLDATASIZE PUSH1 0x4 PUSH2 0x17B1 JUMP JUMPDEST PUSH2 0x13EC JUMP JUMPDEST PUSH2 0x337 PUSH2 0x152D JUMP JUMPDEST DUP2 PUSH1 0x85 SLOAD GT PUSH2 0x38D JUMPI PUSH1 0x40 MLOAD PUSH3 0x461BCD PUSH1 0xE5 SHL DUP2 MSTORE PUSH1 0x20 PUSH1 0x4 DUP3 ADD MSTORE PUSH1 0x12 PUSH1 0x24 DUP3 ADD MSTORE PUSH32 0x4E6F7420656E6F7567682067726F757073210000000000000000000000000000 PUSH1 0x44 DUP3 ADD MSTORE PUSH1 0x64 ADD JUMPDEST PUSH1 0x40 MLOAD DUP1 SWAP2 SUB SWAP1 REVERT JUMPDEST PUSH1 0x2 DUP3 PUSH1 0xA DUP2 LT PUSH2 0x3AE JUMPI PUSH4 0x4E487B71 PUSH1 0xE0 SHL PUSH1 0x0 MSTORE PUSH1 0x32 PUSH1 0x4 MSTORE PUSH1 0x24 PUSH1 0x0 REVERT JUMPDEST PUSH1 0x40 DUP1 MLOAD PUSH2 0x140 DUP2 ADD SWAP2 DUP3 SWAP1 MSTORE SWAP3 PUSH1 0xD SWAP3 SWAP1 SWAP3 MUL SWAP1 SWAP2 ADD PUSH1 0x2 ADD SWAP1 PUSH1 0xA SWAP1 DUP3 DUP5 JUMPDEST DUP2 SLOAD DUP2 MSTORE PUSH1 0x20 ADD SWAP1 PUSH1 0x1 ADD SWAP1 DUP1 DUP4 GT PUSH2 0x3CF JUMPI POP POP POP POP POP SWAP1 POP SWAP2 SWAP1 POP JUMP JUMPDEST PUSH2 0x41B PUSH1 0x40 MLOAD DUP1 PUSH1 0x80 ADD PUSH1 0x40 MSTORE DUP1 PUSH1 0x0 DUP2 MSTORE PUSH1 0x20 ADD PUSH1 0x60 DUP2 MSTORE PUSH1 0x20 ADD PUSH1 0x60 DUP2 MSTORE PUSH1 0x20 ADD PUSH1 0x0 ISZERO ISZERO DUP2 MSTORE POP SWAP1 JUMP JUMPDEST DUP2 PUSH1 0x87 SLOAD GT PUSH2 0x46C JUMPI PUSH1 0x40 MLOAD PUSH3 0x461BCD PUSH1 0xE5 SHL DUP2 MSTORE PUSH1 0x20 PUSH1 0x4 DUP3 ADD MSTORE PUSH1 0x17 PUSH1 0x24 DUP3 ADD MSTORE PUSH32 0x4E6F7420656E6F75676820636F6E66657373696F6E7321000000000000000000 PUSH1 0x44 DUP3 ADD MSTORE PUSH1 0x64 ADD PUSH2 0x384 JUMP JUMPDEST PUSH1 0x0 DUP3 DUP2 SLOAD DUP2 LT PUSH2 0x48D JUMPI PUSH4 0x4E487B71 PUSH1 0xE0 SHL PUSH1 0x0 MSTORE PUSH1 0x32 PUSH1 0x4 MSTORE PUSH1 0x24 PUSH1 0x0 REVERT JUMPDEST SWAP1 PUSH1 0x0 MSTORE PUSH1 0x20 PUSH1 0x0 KECCAK256 SWAP1 PUSH1 0x4 MUL ADD PUSH1 0x40 MLOAD DUP1 PUSH1 0x80 ADD PUSH1 0x40 MSTORE SWAP1 DUP2 PUSH1 0x0 DUP3 ADD SLOAD DUP2 MSTORE PUSH1 0x20 ADD PUSH1 0x1 DUP3 ADD DUP1 SLOAD PUSH2 0x4C0 SWAP1 PUSH2 0x1EC3 JUMP JUMPDEST DUP1 PUSH1 0x1F ADD PUSH1 0x20 DUP1 SWAP2 DIV MUL PUSH1 0x20 ADD PUSH1 0x40 MLOAD SWAP1 DUP2 ADD PUSH1 0x40 MSTORE DUP1 SWAP3 SWAP2 SWAP1 DUP2 DUP2 MSTORE PUSH1 0x20 ADD DUP3 DUP1 SLOAD PUSH2 0x4EC SWAP1 PUSH2 0x1EC3 JUMP JUMPDEST DUP1 ISZERO PUSH2 0x539 JUMPI DUP1 PUSH1 0x1F LT PUSH2 0x50E JUMPI PUSH2 0x100 DUP1 DUP4 SLOAD DIV MUL DUP4 MSTORE SWAP2 PUSH1 0x20 ADD SWAP2 PUSH2 0x539 JUMP JUMPDEST DUP3 ADD SWAP2 SWAP1 PUSH1 0x0 MSTORE PUSH1 0x20 PUSH1 0x0 KECCAK256 SWAP1 JUMPDEST DUP2 SLOAD DUP2 MSTORE SWAP1 PUSH1 0x1 ADD SWAP1 PUSH1 0x20 ADD DUP1 DUP4 GT PUSH2 0x51C JUMPI DUP3 SWAP1 SUB PUSH1 0x1F AND DUP3 ADD SWAP2 JUMPDEST POP POP POP POP POP DUP2 MSTORE PUSH1 0x20 ADD PUSH1 0x2 DUP3 ADD DUP1 SLOAD PUSH2 0x552 SWAP1 PUSH2 0x1EC3 JUMP JUMPDEST DUP1 PUSH1 0x1F ADD PUSH1 0x20 DUP1 SWAP2 DIV MUL PUSH1 0x20 ADD PUSH1 0x40 MLOAD SWAP1 DUP2 ADD PUSH1 0x40 MSTORE DUP1 SWAP3 SWAP2 SWAP1 DUP2 DUP2 MSTORE PUSH1 0x20 ADD DUP3 DUP1 SLOAD PUSH2 0x57E SWAP1 PUSH2 0x1EC3 JUMP JUMPDEST DUP1 ISZERO PUSH2 0x5CB JUMPI DUP1 PUSH1 0x1F LT PUSH2 0x5A0 JUMPI PUSH2 0x100 DUP1 DUP4 SLOAD DIV MUL DUP4 MSTORE SWAP2 PUSH1 0x20 ADD SWAP2 PUSH2 0x5CB JUMP JUMPDEST DUP3 ADD SWAP2 SWAP1 PUSH1 0x0 MSTORE PUSH1 0x20 PUSH1 0x0 KECCAK256 SWAP1 JUMPDEST DUP2 SLOAD DUP2 MSTORE SWAP1 PUSH1 0x1 ADD SWAP1 PUSH1 0x20 ADD DUP1 DUP4 GT PUSH2 0x5AE JUMPI DUP3 SWAP1 SUB PUSH1 0x1F AND DUP3 ADD SWAP2 JUMPDEST POP POP POP SWAP2 DUP4 MSTORE POP POP PUSH1 0x3 SWAP2 SWAP1 SWAP2 ADD SLOAD PUSH1 0xFF AND ISZERO ISZERO PUSH1 0x20 SWAP1 SWAP2 ADD MSTORE SWAP3 SWAP2 POP POP JUMP JUMPDEST PUSH1 0x0 PUSH1 0x1 DUP4 PUSH1 0x40 MLOAD PUSH2 0x5FD SWAP2 SWAP1 PUSH2 0x1BDB JUMP JUMPDEST SWAP1 DUP2 MSTORE PUSH1 0x20 ADD PUSH1 0x40 MLOAD DUP1 SWAP2 SUB SWAP1 KECCAK256 SLOAD SWAP1 POP PUSH1 0x0 PUSH1 0x2 DUP3 PUSH1 0xA DUP2 LT PUSH2 0x631 JUMPI PUSH4 0x4E487B71 PUSH1 0xE0 SHL PUSH1 0x0 MSTORE PUSH1 0x32 PUSH1 0x4 MSTORE PUSH1 0x24 PUSH1 0x0 REVERT JUMPDEST PUSH1 0xD MUL ADD PUSH1 0xC ADD SLOAD SWAP1 POP PUSH1 0xA DUP2 LT PUSH2 0x68B JUMPI PUSH1 0x40 MLOAD PUSH3 0x461BCD PUSH1 0xE5 SHL DUP2 MSTORE PUSH1 0x20 PUSH1 0x4 DUP3 ADD MSTORE PUSH1 0xF PUSH1 0x24 DUP3 ADD MSTORE PUSH32 0x546F6F206D616E79207573657273210000000000000000000000000000000000 PUSH1 0x44 DUP3 ADD MSTORE PUSH1 0x64 ADD PUSH2 0x384 JUMP JUMPDEST DUP3 PUSH1 0x2 DUP4 PUSH1 0xA DUP2 LT PUSH2 0x6AD JUMPI PUSH4 0x4E487B71 PUSH1 0xE0 SHL PUSH1 0x0 MSTORE PUSH1 0x32 PUSH1 0x4 MSTORE PUSH1 0x24 PUSH1 0x0 REVERT JUMPDEST PUSH1 0xD MUL ADD PUSH1 0x2 ADD DUP3 PUSH1 0xA DUP2 LT PUSH2 0x6D3 JUMPI PUSH4 0x4E487B71 PUSH1 0xE0 SHL PUSH1 0x0 MSTORE PUSH1 0x32 PUSH1 0x4 MSTORE PUSH1 0x24 PUSH1 0x0 REVERT JUMPDEST ADD SSTORE PUSH1 0x2 DUP3 PUSH1 0xA DUP2 LT PUSH2 0x6F6 JUMPI PUSH4 0x4E487B71 PUSH1 0xE0 SHL PUSH1 0x0 MSTORE PUSH1 0x32 PUSH1 0x4 MSTORE PUSH1 0x24 PUSH1 0x0 REVERT JUMPDEST PUSH1 0xD MUL ADD PUSH1 0xC ADD PUSH1 0x0 DUP2 SLOAD DUP1 SWAP3 SWAP2 SWAP1 PUSH2 0x70E SWAP1 PUSH2 0x1EFE JUMP JUMPDEST SWAP2 SWAP1 POP SSTORE POP POP POP POP POP JUMP JUMPDEST PUSH2 0x721 PUSH2 0x154C JUMP JUMPDEST DUP2 PUSH1 0x85 SLOAD GT PUSH2 0x772 JUMPI PUSH1 0x40 MLOAD PUSH3 0x461BCD PUSH1 0xE5 SHL DUP2 MSTORE PUSH1 0x20 PUSH1 0x4 DUP3 ADD MSTORE PUSH1 0x12 PUSH1 0x24 DUP3 ADD MSTORE PUSH32 0x4E6F7420656E6F7567682067726F757073210000000000000000000000000000 PUSH1 0x44 DUP3 ADD MSTORE PUSH1 0x64 ADD PUSH2 0x384 JUMP JUMPDEST PUSH1 0x2 DUP3 PUSH1 0xA DUP2 LT PUSH2 0x793 JUMPI PUSH4 0x4E487B71 PUSH1 0xE0 SHL PUSH1 0x0 MSTORE PUSH1 0x32 PUSH1 0x4 MSTORE PUSH1 0x24 PUSH1 0x0 REVERT JUMPDEST PUSH1 0xD MUL ADD PUSH1 0x40 MLOAD DUP1 PUSH1 0x80 ADD PUSH1 0x40 MSTORE SWAP1 DUP2 PUSH1 0x0 DUP3 ADD DUP1 SLOAD PUSH2 0x7B2 SWAP1 PUSH2 0x1EC3 JUMP JUMPDEST DUP1 PUSH1 0x1F ADD PUSH1 0x20 DUP1 SWAP2 DIV MUL PUSH1 0x20 ADD PUSH1 0x40 MLOAD SWAP1 DUP2 ADD PUSH1 0x40 MSTORE DUP1 SWAP3 SWAP2 SWAP1 DUP2 DUP2 MSTORE PUSH1 0x20 ADD DUP3 DUP1 SLOAD PUSH2 0x7DE SWAP1 PUSH2 0x1EC3 JUMP JUMPDEST DUP1 ISZERO PUSH2 0x82B JUMPI DUP1 PUSH1 0x1F LT PUSH2 0x800 JUMPI PUSH2 0x100 DUP1 DUP4 SLOAD DIV MUL DUP4 MSTORE SWAP2 PUSH1 0x20 ADD SWAP2 PUSH2 0x82B JUMP JUMPDEST DUP3 ADD SWAP2 SWAP1 PUSH1 0x0 MSTORE PUSH1 0x20 PUSH1 0x0 KECCAK256 SWAP1 JUMPDEST DUP2 SLOAD DUP2 MSTORE SWAP1 PUSH1 0x1 ADD SWAP1 PUSH1 0x20 ADD DUP1 DUP4 GT PUSH2 0x80E JUMPI DUP3 SWAP1 SUB PUSH1 0x1F AND DUP3 ADD SWAP2 JUMPDEST POP POP POP SWAP2 DUP4 MSTORE POP POP PUSH1 0x1 DUP3 ADD SLOAD PUSH1 0x20 DUP3 ADD MSTORE PUSH1 0x40 DUP1 MLOAD PUSH2 0x140 DUP2 ADD DUP3 MSTORE SWAP2 ADD SWAP1 PUSH1 0x2 DUP4 ADD PUSH1 0xA DUP3 DUP3 DUP3 PUSH1 0x20 MUL DUP3 ADD SWAP2 JUMPDEST DUP2 SLOAD DUP2 MSTORE PUSH1 0x20 ADD SWAP1 PUSH1 0x1 ADD SWAP1 DUP1 DUP4 GT PUSH2 0x85B JUMPI POP POP POP POP POP DUP2 MSTORE PUSH1 0x20 ADD PUSH1 0xC DUP3 ADD SLOAD DUP2 MSTORE POP POP SWAP1 POP SWAP2 SWAP1 POP JUMP JUMPDEST PUSH1 0x0 DUP2 DUP2 SLOAD DUP2 LT PUSH2 0x898 JUMPI PUSH1 0x0 DUP1 REVERT JUMPDEST PUSH1 0x0 SWAP2 DUP3 MSTORE PUSH1 0x20 SWAP1 SWAP2 KECCAK256 PUSH1 0x4 SWAP1 SWAP2 MUL ADD DUP1 SLOAD PUSH1 0x1 DUP3 ADD DUP1 SLOAD SWAP2 SWAP4 POP SWAP1 PUSH2 0x8BD SWAP1 PUSH2 0x1EC3 JUMP JUMPDEST DUP1 PUSH1 0x1F ADD PUSH1 0x20 DUP1 SWAP2 DIV MUL PUSH1 0x20 ADD PUSH1 0x40 MLOAD SWAP1 DUP2 ADD PUSH1 0x40 MSTORE DUP1 SWAP3 SWAP2 SWAP1 DUP2 DUP2 MSTORE PUSH1 0x20 ADD DUP3 DUP1 SLOAD PUSH2 0x8E9 SWAP1 PUSH2 0x1EC3 JUMP JUMPDEST DUP1 ISZERO PUSH2 0x936 JUMPI DUP1 PUSH1 0x1F LT PUSH2 0x90B JUMPI PUSH2 0x100 DUP1 DUP4 SLOAD DIV MUL DUP4 MSTORE SWAP2 PUSH1 0x20 ADD SWAP2 PUSH2 0x936 JUMP JUMPDEST DUP3 ADD SWAP2 SWAP1 PUSH1 0x0 MSTORE PUSH1 0x20 PUSH1 0x0 KECCAK256 SWAP1 JUMPDEST DUP2 SLOAD DUP2 MSTORE SWAP1 PUSH1 0x1 ADD SWAP1 PUSH1 0x20 ADD DUP1 DUP4 GT PUSH2 0x919 JUMPI DUP3 SWAP1 SUB PUSH1 0x1F AND DUP3 ADD SWAP2 JUMPDEST POP POP POP POP POP SWAP1 DUP1 PUSH1 0x2 ADD DUP1 SLOAD PUSH2 0x94B SWAP1 PUSH2 0x1EC3 JUMP JUMPDEST DUP1 PUSH1 0x1F ADD PUSH1 0x20 DUP1 SWAP2 DIV MUL PUSH1 0x20 ADD PUSH1 0x40 MLOAD SWAP1 DUP2 ADD PUSH1 0x40 MSTORE DUP1 SWAP3 SWAP2 SWAP1 DUP2 DUP2 MSTORE PUSH1 0x20 ADD DUP3 DUP1 SLOAD PUSH2 0x977 SWAP1 PUSH2 0x1EC3 JUMP JUMPDEST DUP1 ISZERO PUSH2 0x9C4 JUMPI DUP1 PUSH1 0x1F LT PUSH2 0x999 JUMPI PUSH2 0x100 DUP1 DUP4 SLOAD DIV MUL DUP4 MSTORE SWAP2 PUSH1 0x20 ADD SWAP2 PUSH2 0x9C4 JUMP JUMPDEST DUP3 ADD SWAP2 SWAP1 PUSH1 0x0 MSTORE PUSH1 0x20 PUSH1 0x0 KECCAK256 SWAP1 JUMPDEST DUP2 SLOAD DUP2 MSTORE SWAP1 PUSH1 0x1 ADD SWAP1 PUSH1 0x20 ADD DUP1 DUP4 GT PUSH2 0x9A7 JUMPI DUP3 SWAP1 SUB PUSH1 0x1F AND DUP3 ADD SWAP2 JUMPDEST POP POP POP PUSH1 0x3 SWAP1 SWAP4 ADD SLOAD SWAP2 SWAP3 POP POP PUSH1 0xFF AND DUP5 JUMP JUMPDEST PUSH1 0x2 DUP2 PUSH1 0xA DUP2 LT PUSH2 0x9E7 JUMPI PUSH1 0x0 DUP1 REVERT JUMPDEST PUSH1 0xD MUL ADD DUP1 SLOAD SWAP1 SWAP2 POP DUP2 SWAP1 PUSH2 0x9FB SWAP1 PUSH2 0x1EC3 JUMP JUMPDEST DUP1 PUSH1 0x1F ADD PUSH1 0x20 DUP1 SWAP2 DIV MUL PUSH1 0x20 ADD PUSH1 0x40 MLOAD SWAP1 DUP2 ADD PUSH1 0x40 MSTORE DUP1 SWAP3 SWAP2 SWAP1 DUP2 DUP2 MSTORE PUSH1 0x20 ADD DUP3 DUP1 SLOAD PUSH2 0xA27 SWAP1 PUSH2 0x1EC3 JUMP JUMPDEST DUP1 ISZERO PUSH2 0xA74 JUMPI DUP1 PUSH1 0x1F LT PUSH2 0xA49 JUMPI PUSH2 0x100 DUP1 DUP4 SLOAD DIV MUL DUP4 MSTORE SWAP2 PUSH1 0x20 ADD SWAP2 PUSH2 0xA74 JUMP JUMPDEST DUP3 ADD SWAP2 SWAP1 PUSH1 0x0 MSTORE PUSH1 0x20 PUSH1 0x0 KECCAK256 SWAP1 JUMPDEST DUP2 SLOAD DUP2 MSTORE SWAP1 PUSH1 0x1 ADD SWAP1 PUSH1 0x20 ADD DUP1 DUP4 GT PUSH2 0xA57 JUMPI DUP3 SWAP1 SUB PUSH1 0x1F AND DUP3 ADD SWAP2 JUMPDEST POP POP POP POP POP SWAP1 DUP1 PUSH1 0x1 ADD SLOAD SWAP1 DUP1 PUSH1 0xC ADD SLOAD SWAP1 POP DUP4 JUMP JUMPDEST PUSH1 0x0 PUSH1 0x2 PUSH1 0x1 DUP4 PUSH1 0x40 MLOAD PUSH2 0xA9E SWAP2 SWAP1 PUSH2 0x1BDB JUMP JUMPDEST SWAP1 DUP2 MSTORE PUSH1 0x20 ADD PUSH1 0x40 MLOAD DUP1 SWAP2 SUB SWAP1 KECCAK256 SLOAD PUSH1 0xA DUP2 LT PUSH2 0xACB JUMPI PUSH4 0x4E487B71 PUSH1 0xE0 SHL PUSH1 0x0 MSTORE PUSH1 0x32 PUSH1 0x4 MSTORE PUSH1 0x24 PUSH1 0x0 REVERT JUMPDEST PUSH1 0xD MUL ADD PUSH1 0x1 ADD SLOAD DUP4 PUSH1 0x0 PUSH1 0x2 DUP2 LT PUSH2 0xAF4 JUMPI PUSH4 0x4E487B71 PUSH1 0xE0 SHL PUSH1 0x0 MSTORE PUSH1 0x32 PUSH1 0x4 MSTORE PUSH1 0x24 PUSH1 0x0 REVERT JUMPDEST PUSH1 0x20 MUL ADD MLOAD EQ PUSH2 0xB46 JUMPI PUSH1 0x40 MLOAD PUSH3 0x461BCD PUSH1 0xE5 SHL DUP2 MSTORE PUSH1 0x20 PUSH1 0x4 DUP3 ADD MSTORE PUSH1 0x10 PUSH1 0x24 DUP3 ADD MSTORE PUSH32 0x57726F6E67207061737320686173682100000000000000000000000000000000 PUSH1 0x44 DUP3 ADD MSTORE PUSH1 0x64 ADD PUSH2 0x384 JUMP JUMPDEST PUSH1 0x40 MLOAD PUSH4 0x6BAED4D PUSH1 0xE4 SHL DUP2 MSTORE PUSH20 0x0 SWAP1 PUSH4 0x6BAED4D0 SWAP1 PUSH2 0xB83 SWAP1 DUP14 SWAP1 DUP14 SWAP1 DUP14 SWAP1 DUP14 SWAP1 PUSH1 0x4 ADD PUSH2 0x1D12 JUMP JUMPDEST PUSH1 0x20 PUSH1 0x40 MLOAD DUP1 DUP4 SUB DUP2 DUP7 DUP1 EXTCODESIZE ISZERO DUP1 ISZERO PUSH2 0xB9B JUMPI PUSH1 0x0 DUP1 REVERT JUMPDEST POP GAS DELEGATECALL ISZERO DUP1 ISZERO PUSH2 0xBAF JUMPI RETURNDATASIZE PUSH1 0x0 DUP1 RETURNDATACOPY RETURNDATASIZE PUSH1 0x0 REVERT JUMPDEST POP POP POP POP PUSH1 0x40 MLOAD RETURNDATASIZE PUSH1 0x1F NOT PUSH1 0x1F DUP3 ADD AND DUP3 ADD DUP1 PUSH1 0x40 MSTORE POP DUP2 ADD SWAP1 PUSH2 0xBD3 SWAP2 SWAP1 PUSH2 0x1982 JUMP JUMPDEST PUSH2 0xC1F JUMPI PUSH1 0x40 MLOAD PUSH3 0x461BCD PUSH1 0xE5 SHL DUP2 MSTORE PUSH1 0x20 PUSH1 0x4 DUP3 ADD MSTORE PUSH1 0x12 PUSH1 0x24 DUP3 ADD MSTORE PUSH32 0x4B65792070726F6F6620696E76616C6964210000000000000000000000000000 PUSH1 0x44 DUP3 ADD MSTORE PUSH1 0x64 ADD PUSH2 0x384 JUMP JUMPDEST PUSH1 0x40 MLOAD PUSH4 0x2159CF01 PUSH1 0xE0 SHL DUP2 MSTORE PUSH20 0x0 SWAP1 PUSH4 0x2159CF01 SWAP1 PUSH2 0xC5C SWAP1 DUP10 SWAP1 DUP10 SWAP1 DUP10 SWAP1 DUP10 SWAP1 PUSH1 0x4 ADD PUSH2 0x1D63 JUMP JUMPDEST PUSH1 0x20 PUSH1 0x40 MLOAD DUP1 DUP4 SUB DUP2 DUP7 DUP1 EXTCODESIZE ISZERO DUP1 ISZERO PUSH2 0xC74 JUMPI PUSH1 0x0 DUP1 REVERT JUMPDEST POP GAS DELEGATECALL ISZERO DUP1 ISZERO PUSH2 0xC88 JUMPI RETURNDATASIZE PUSH1 0x0 DUP1 RETURNDATACOPY RETURNDATASIZE PUSH1 0x0 REVERT JUMPDEST POP POP POP POP PUSH1 0x40 MLOAD RETURNDATASIZE PUSH1 0x1F NOT PUSH1 0x1F DUP3 ADD AND DUP3 ADD DUP1 PUSH1 0x40 MSTORE POP DUP2 ADD SWAP1 PUSH2 0xCAC SWAP2 SWAP1 PUSH2 0x1982 JUMP JUMPDEST PUSH2 0xCF8 JUMPI PUSH1 0x40 MLOAD PUSH3 0x461BCD PUSH1 0xE5 SHL DUP2 MSTORE PUSH1 0x20 PUSH1 0x4 DUP3 ADD MSTORE PUSH1 0x17 PUSH1 0x24 DUP3 ADD MSTORE PUSH32 0x50617373776F72642070726F6F6620696E76616C696421000000000000000000 PUSH1 0x44 DUP3 ADD MSTORE PUSH1 0x64 ADD PUSH2 0x384 JUMP JUMPDEST DUP7 MLOAD PUSH2 0xD05 SWAP1 DUP4 SWAP1 PUSH2 0x5EB JUMP JUMPDEST PUSH1 0x1 PUSH1 0x86 PUSH1 0x0 DUP3 DUP3 SLOAD PUSH2 0xD18 SWAP2 SWAP1 PUSH2 0x1E7F JUMP JUMPDEST SWAP1 SWAP2 SSTORE POP POP PUSH1 0x86 SLOAD PUSH1 0x40 MLOAD SWAP1 DUP2 MSTORE PUSH32 0x4EB5EE08F6BD1352ED7B0DAC0EE5E5B7CB984B0477D694D9DB613B705F47F2AB SWAP1 PUSH1 0x20 ADD PUSH1 0x40 MLOAD DUP1 SWAP2 SUB SWAP1 LOG1 POP PUSH1 0x1 SWAP10 SWAP9 POP POP POP POP POP POP POP POP POP JUMP JUMPDEST PUSH2 0xD6B PUSH2 0x157A JUMP JUMPDEST PUSH1 0x40 DUP1 MLOAD PUSH2 0x140 DUP2 ADD SWAP1 SWAP2 MSTORE PUSH1 0x2 PUSH1 0xA PUSH1 0x0 DUP4 JUMPDEST DUP3 DUP3 LT ISZERO PUSH2 0xE86 JUMPI DUP4 DUP3 PUSH1 0xD MUL ADD PUSH1 0x40 MLOAD DUP1 PUSH1 0x80 ADD PUSH1 0x40 MSTORE SWAP1 DUP2 PUSH1 0x0 DUP3 ADD DUP1 SLOAD PUSH2 0xDA8 SWAP1 PUSH2 0x1EC3 JUMP JUMPDEST DUP1 PUSH1 0x1F ADD PUSH1 0x20 DUP1 SWAP2 DIV MUL PUSH1 0x20 ADD PUSH1 0x40 MLOAD SWAP1 DUP2 ADD PUSH1 0x40 MSTORE DUP1 SWAP3 SWAP2 SWAP1 DUP2 DUP2 MSTORE PUSH1 0x20 ADD DUP3 DUP1 SLOAD PUSH2 0xDD4 SWAP1 PUSH2 0x1EC3 JUMP JUMPDEST DUP1 ISZERO PUSH2 0xE21 JUMPI DUP1 PUSH1 0x1F LT PUSH2 0xDF6 JUMPI PUSH2 0x100 DUP1 DUP4 SLOAD DIV MUL DUP4 MSTORE SWAP2 PUSH1 0x20 ADD SWAP2 PUSH2 0xE21 JUMP JUMPDEST DUP3 ADD SWAP2 SWAP1 PUSH1 0x0 MSTORE PUSH1 0x20 PUSH1 0x0 KECCAK256 SWAP1 JUMPDEST DUP2 SLOAD DUP2 MSTORE SWAP1 PUSH1 0x1 ADD SWAP1 PUSH1 0x20 ADD DUP1 DUP4 GT PUSH2 0xE04 JUMPI DUP3 SWAP1 SUB PUSH1 0x1F AND DUP3 ADD SWAP2 JUMPDEST POP POP POP SWAP2 DUP4 MSTORE POP POP PUSH1 0x1 DUP3 ADD SLOAD PUSH1 0x20 DUP3 ADD MSTORE PUSH1 0x40 DUP1 MLOAD PUSH2 0x140 DUP2 ADD DUP3 MSTORE SWAP2 ADD SWAP1 PUSH1 0x2 DUP4 ADD PUSH1 0xA DUP3 DUP3 DUP3 PUSH1 0x20 MUL DUP3 ADD SWAP2 JUMPDEST DUP2 SLOAD DUP2 MSTORE PUSH1 0x20 ADD SWAP1 PUSH1 0x1 ADD SWAP1 DUP1 DUP4 GT PUSH2 0xE51 JUMPI POP POP POP POP POP DUP2 MSTORE PUSH1 0x20 ADD PUSH1 0xC DUP3 ADD SLOAD DUP2 MSTORE POP POP DUP2 MSTORE PUSH1 0x20 ADD SWAP1 PUSH1 0x1 ADD SWAP1 PUSH2 0xD7F JUMP JUMPDEST POP POP POP POP SWAP1 POP SWAP1 JUMP JUMPDEST PUSH2 0xE97 PUSH2 0x152D JUMP JUMPDEST PUSH2 0xEBE PUSH1 0x1 DUP4 PUSH1 0x40 MLOAD PUSH2 0xEAA SWAP2 SWAP1 PUSH2 0x1BDB JUMP JUMPDEST SWAP1 DUP2 MSTORE PUSH1 0x20 ADD PUSH1 0x40 MLOAD DUP1 SWAP2 SUB SWAP1 KECCAK256 SLOAD PUSH2 0x32F JUMP JUMPDEST SWAP3 SWAP2 POP POP JUMP JUMPDEST PUSH2 0xEF1 PUSH1 0x40 MLOAD DUP1 PUSH1 0x80 ADD PUSH1 0x40 MSTORE DUP1 PUSH1 0x0 DUP2 MSTORE PUSH1 0x20 ADD PUSH1 0x60 DUP2 MSTORE PUSH1 0x20 ADD PUSH1 0x60 DUP2 MSTORE PUSH1 0x20 ADD PUSH1 0x0 ISZERO ISZERO DUP2 MSTORE POP SWAP1 JUMP JUMPDEST PUSH1 0x87 SLOAD DUP2 MSTORE PUSH1 0x20 DUP1 DUP3 ADD DUP5 DUP2 MSTORE PUSH1 0x40 DUP4 ADD DUP5 SWAP1 MSTORE PUSH1 0x0 PUSH1 0x60 DUP5 ADD DUP2 SWAP1 MSTORE DUP1 SLOAD PUSH1 0x1 DUP2 ADD DUP3 SSTORE SWAP1 DUP1 MSTORE DUP4 MLOAD PUSH32 0x290DECD9548B62A8D60345A988386FC84BA6BC95484008F6362F93160EF3E563 PUSH1 0x4 SWAP1 SWAP3 MUL SWAP2 DUP3 ADD SWAP1 DUP2 SSTORE SWAP2 MLOAD DUP1 MLOAD DUP6 SWAP5 PUSH2 0xF7B SWAP4 PUSH32 0x290DECD9548B62A8D60345A988386FC84BA6BC95484008F6362F93160EF3E564 ADD SWAP3 ADD SWAP1 PUSH2 0x15A8 JUMP JUMPDEST POP PUSH1 0x40 DUP3 ADD MLOAD DUP1 MLOAD PUSH2 0xF97 SWAP2 PUSH1 0x2 DUP5 ADD SWAP2 PUSH1 0x20 SWAP1 SWAP2 ADD SWAP1 PUSH2 0x15A8 JUMP JUMPDEST POP PUSH1 0x60 DUP3 ADD MLOAD DUP2 PUSH1 0x3 ADD PUSH1 0x0 PUSH2 0x100 EXP DUP2 SLOAD DUP2 PUSH1 0xFF MUL NOT AND SWAP1 DUP4 ISZERO ISZERO MUL OR SWAP1 SSTORE POP POP POP PUSH1 0x1 PUSH1 0x87 PUSH1 0x0 DUP3 DUP3 SLOAD PUSH2 0xFCD SWAP2 SWAP1 PUSH2 0x1E7F JUMP JUMPDEST SWAP1 SWAP2 SSTORE POP POP POP POP POP JUMP JUMPDEST PUSH1 0x87 SLOAD PUSH1 0x60 SWAP1 PUSH1 0x0 DUP2 PUSH8 0xFFFFFFFFFFFFFFFF DUP2 GT ISZERO PUSH2 0x1006 JUMPI PUSH4 0x4E487B71 PUSH1 0xE0 SHL PUSH1 0x0 MSTORE PUSH1 0x41 PUSH1 0x4 MSTORE PUSH1 0x24 PUSH1 0x0 REVERT JUMPDEST PUSH1 0x40 MLOAD SWAP1 DUP1 DUP3 MSTORE DUP1 PUSH1 0x20 MUL PUSH1 0x20 ADD DUP3 ADD PUSH1 0x40 MSTORE DUP1 ISZERO PUSH2 0x1064 JUMPI DUP2 PUSH1 0x20 ADD JUMPDEST PUSH2 0x1051 PUSH1 0x40 MLOAD DUP1 PUSH1 0x80 ADD PUSH1 0x40 MSTORE DUP1 PUSH1 0x0 DUP2 MSTORE PUSH1 0x20 ADD PUSH1 0x60 DUP2 MSTORE PUSH1 0x20 ADD PUSH1 0x60 DUP2 MSTORE PUSH1 0x20 ADD PUSH1 0x0 ISZERO ISZERO DUP2 MSTORE POP SWAP1 JUMP JUMPDEST DUP2 MSTORE PUSH1 0x20 ADD SWAP1 PUSH1 0x1 SWAP1 SUB SWAP1 DUP2 PUSH2 0x1024 JUMPI SWAP1 POP JUMPDEST POP SWAP1 POP PUSH1 0x0 JUMPDEST DUP3 DUP2 LT ISZERO PUSH2 0x122B JUMPI PUSH1 0x0 DUP2 DUP2 SLOAD DUP2 LT PUSH2 0x1093 JUMPI PUSH4 0x4E487B71 PUSH1 0xE0 SHL PUSH1 0x0 MSTORE PUSH1 0x32 PUSH1 0x4 MSTORE PUSH1 0x24 PUSH1 0x0 REVERT JUMPDEST SWAP1 PUSH1 0x0 MSTORE PUSH1 0x20 PUSH1 0x0 KECCAK256 SWAP1 PUSH1 0x4 MUL ADD PUSH1 0x40 MLOAD DUP1 PUSH1 0x80 ADD PUSH1 0x40 MSTORE SWAP1 DUP2 PUSH1 0x0 DUP3 ADD SLOAD DUP2 MSTORE PUSH1 0x20 ADD PUSH1 0x1 DUP3 ADD DUP1 SLOAD PUSH2 0x10C6 SWAP1 PUSH2 0x1EC3 JUMP JUMPDEST DUP1 PUSH1 0x1F ADD PUSH1 0x20 DUP1 SWAP2 DIV MUL PUSH1 0x20 ADD PUSH1 0x40 MLOAD SWAP1 DUP2 ADD PUSH1 0x40 MSTORE DUP1 SWAP3 SWAP2 SWAP1 DUP2 DUP2 MSTORE PUSH1 0x20 ADD DUP3 DUP1 SLOAD PUSH2 0x10F2 SWAP1 PUSH2 0x1EC3 JUMP JUMPDEST DUP1 ISZERO PUSH2 0x113F JUMPI DUP1 PUSH1 0x1F LT PUSH2 0x1114 JUMPI PUSH2 0x100 DUP1 DUP4 SLOAD DIV MUL DUP4 MSTORE SWAP2 PUSH1 0x20 ADD SWAP2 PUSH2 0x113F JUMP JUMPDEST DUP3 ADD SWAP2 SWAP1 PUSH1 0x0 MSTORE PUSH1 0x20 PUSH1 0x0 KECCAK256 SWAP1 JUMPDEST DUP2 SLOAD DUP2 MSTORE SWAP1 PUSH1 0x1 ADD SWAP1 PUSH1 0x20 ADD DUP1 DUP4 GT PUSH2 0x1122 JUMPI DUP3 SWAP1 SUB PUSH1 0x1F AND DUP3 ADD SWAP2 JUMPDEST POP POP POP POP POP DUP2 MSTORE PUSH1 0x20 ADD PUSH1 0x2 DUP3 ADD DUP1 SLOAD PUSH2 0x1158 SWAP1 PUSH2 0x1EC3 JUMP JUMPDEST DUP1 PUSH1 0x1F ADD PUSH1 0x20 DUP1 SWAP2 DIV MUL PUSH1 0x20 ADD PUSH1 0x40 MLOAD SWAP1 DUP2 ADD PUSH1 0x40 MSTORE DUP1 SWAP3 SWAP2 SWAP1 DUP2 DUP2 MSTORE PUSH1 0x20 ADD DUP3 DUP1 SLOAD PUSH2 0x1184 SWAP1 PUSH2 0x1EC3 JUMP JUMPDEST DUP1 ISZERO PUSH2 0x11D1 JUMPI DUP1 PUSH1 0x1F LT PUSH2 0x11A6 JUMPI PUSH2 0x100 DUP1 DUP4 SLOAD DIV MUL DUP4 MSTORE SWAP2 PUSH1 0x20 ADD SWAP2 PUSH2 0x11D1 JUMP JUMPDEST DUP3 ADD SWAP2 SWAP1 PUSH1 0x0 MSTORE PUSH1 0x20 PUSH1 0x0 KECCAK256 SWAP1 JUMPDEST DUP2 SLOAD DUP2 MSTORE SWAP1 PUSH1 0x1 ADD SWAP1 PUSH1 0x20 ADD DUP1 DUP4 GT PUSH2 0x11B4 JUMPI DUP3 SWAP1 SUB PUSH1 0x1F AND DUP3 ADD SWAP2 JUMPDEST POP POP POP SWAP2 DUP4 MSTORE POP POP PUSH1 0x3 SWAP2 SWAP1 SWAP2 ADD SLOAD PUSH1 0xFF AND ISZERO ISZERO PUSH1 0x20 SWAP1 SWAP2 ADD MSTORE DUP3 MLOAD DUP4 SWAP1 DUP4 SWAP1 DUP2 LT PUSH2 0x120D JUMPI PUSH4 0x4E487B71 PUSH1 0xE0 SHL PUSH1 0x0 MSTORE PUSH1 0x32 PUSH1 0x4 MSTORE PUSH1 0x24 PUSH1 0x0 REVERT JUMPDEST PUSH1 0x20 MUL PUSH1 0x20 ADD ADD DUP2 SWAP1 MSTORE POP DUP1 DUP1 PUSH2 0x1223 SWAP1 PUSH2 0x1EFE JUMP JUMPDEST SWAP2 POP POP PUSH2 0x106A JUMP JUMPDEST POP SWAP2 POP POP SWAP1 JUMP JUMPDEST PUSH1 0x84 DUP3 PUSH1 0x40 MLOAD PUSH2 0x1242 SWAP2 SWAP1 PUSH2 0x1BDB JUMP JUMPDEST SWAP1 DUP2 MSTORE PUSH1 0x40 MLOAD SWAP1 DUP2 SWAP1 SUB PUSH1 0x20 ADD SWAP1 KECCAK256 SLOAD PUSH1 0xFF AND ISZERO PUSH2 0x12A2 JUMPI PUSH1 0x40 MLOAD PUSH3 0x461BCD PUSH1 0xE5 SHL DUP2 MSTORE PUSH1 0x20 PUSH1 0x4 DUP3 ADD MSTORE PUSH1 0x15 PUSH1 0x24 DUP3 ADD MSTORE PUSH32 0x47726F757020616C726561647920657869737473210000000000000000000000 PUSH1 0x44 DUP3 ADD MSTORE PUSH1 0x64 ADD PUSH2 0x384 JUMP JUMPDEST PUSH1 0xA PUSH1 0x85 SLOAD LT PUSH2 0x12F4 JUMPI PUSH1 0x40 MLOAD PUSH3 0x461BCD PUSH1 0xE5 SHL DUP2 MSTORE PUSH1 0x20 PUSH1 0x4 DUP3 ADD MSTORE PUSH1 0x10 PUSH1 0x24 DUP3 ADD MSTORE PUSH32 0x546F6F206D616E792067726F7570732100000000000000000000000000000000 PUSH1 0x44 DUP3 ADD MSTORE PUSH1 0x64 ADD PUSH2 0x384 JUMP JUMPDEST PUSH2 0x12FC PUSH2 0x154C JUMP JUMPDEST PUSH1 0x20 DUP2 ADD DUP3 SWAP1 MSTORE DUP3 DUP2 MSTORE PUSH1 0x0 PUSH1 0x60 DUP3 ADD MSTORE PUSH1 0x85 SLOAD PUSH1 0x40 MLOAD PUSH1 0x1 SWAP1 PUSH2 0x1321 SWAP1 DUP7 SWAP1 PUSH2 0x1BDB JUMP JUMPDEST SWAP1 DUP2 MSTORE PUSH1 0x20 ADD PUSH1 0x40 MLOAD DUP1 SWAP2 SUB SWAP1 KECCAK256 DUP2 SWAP1 SSTORE POP PUSH1 0x1 PUSH1 0x84 DUP5 PUSH1 0x40 MLOAD PUSH2 0x1345 SWAP2 SWAP1 PUSH2 0x1BDB JUMP JUMPDEST SWAP1 DUP2 MSTORE PUSH1 0x40 MLOAD SWAP1 DUP2 SWAP1 SUB PUSH1 0x20 ADD SWAP1 KECCAK256 DUP1 SLOAD SWAP2 ISZERO ISZERO PUSH1 0xFF NOT SWAP1 SWAP3 AND SWAP2 SWAP1 SWAP2 OR SWAP1 SSTORE PUSH1 0x85 SLOAD DUP2 SWAP1 PUSH1 0x2 SWAP1 PUSH1 0xA DUP2 LT PUSH2 0x138B JUMPI PUSH4 0x4E487B71 PUSH1 0xE0 SHL PUSH1 0x0 MSTORE PUSH1 0x32 PUSH1 0x4 MSTORE PUSH1 0x24 PUSH1 0x0 REVERT JUMPDEST PUSH1 0xD MUL ADD PUSH1 0x0 DUP3 ADD MLOAD DUP2 PUSH1 0x0 ADD SWAP1 DUP1 MLOAD SWAP1 PUSH1 0x20 ADD SWAP1 PUSH2 0x13AB SWAP3 SWAP2 SWAP1 PUSH2 0x15A8 JUMP JUMPDEST POP PUSH1 0x20 DUP3 ADD MLOAD PUSH1 0x1 DUP3 ADD SSTORE PUSH1 0x40 DUP3 ADD MLOAD PUSH2 0x13CB SWAP1 PUSH1 0x2 DUP4 ADD SWAP1 PUSH1 0xA PUSH2 0x162C JUMP JUMPDEST POP PUSH1 0x60 DUP3 ADD MLOAD DUP2 PUSH1 0xC ADD SSTORE SWAP1 POP POP PUSH1 0x1 PUSH1 0x85 PUSH1 0x0 DUP3 DUP3 SLOAD PUSH2 0xFCD SWAP2 SWAP1 PUSH2 0x1E7F JUMP JUMPDEST PUSH1 0x40 MLOAD PUSH4 0x17144115 PUSH1 0xE2 SHL DUP2 MSTORE PUSH1 0x0 SWAP1 PUSH20 0x0 SWAP1 PUSH4 0x5C510454 SWAP1 PUSH2 0x142C SWAP1 DUP11 SWAP1 DUP11 SWAP1 DUP11 SWAP1 DUP11 SWAP1 PUSH1 0x4 ADD PUSH2 0x1CB5 JUMP JUMPDEST PUSH1 0x20 PUSH1 0x40 MLOAD DUP1 DUP4 SUB DUP2 DUP7 DUP1 EXTCODESIZE ISZERO DUP1 ISZERO PUSH2 0x1444 JUMPI PUSH1 0x0 DUP1 REVERT JUMPDEST POP GAS DELEGATECALL ISZERO DUP1 ISZERO PUSH2 0x1458 JUMPI RETURNDATASIZE PUSH1 0x0 DUP1 RETURNDATACOPY RETURNDATASIZE PUSH1 0x0 REVERT JUMPDEST POP POP POP POP PUSH1 0x40 MLOAD RETURNDATASIZE PUSH1 0x1F NOT PUSH1 0x1F DUP3 ADD AND DUP3 ADD DUP1 PUSH1 0x40 MSTORE POP DUP2 ADD SWAP1 PUSH2 0x147C SWAP2 SWAP1 PUSH2 0x1982 JUMP JUMPDEST PUSH2 0x14C8 JUMPI PUSH1 0x40 MLOAD PUSH3 0x461BCD PUSH1 0xE5 SHL DUP2 MSTORE PUSH1 0x20 PUSH1 0x4 DUP3 ADD MSTORE PUSH1 0xE PUSH1 0x24 DUP3 ADD MSTORE PUSH32 0x50726F6F6620696E76616C696421000000000000000000000000000000000000 PUSH1 0x44 DUP3 ADD MSTORE PUSH1 0x64 ADD PUSH2 0x384 JUMP JUMPDEST PUSH1 0x1 PUSH1 0x86 PUSH1 0x0 DUP3 DUP3 SLOAD PUSH2 0x14DB SWAP2 SWAP1 PUSH2 0x1E7F JUMP JUMPDEST SWAP1 SWAP2 SSTORE POP POP PUSH1 0x86 SLOAD PUSH1 0x40 MLOAD SWAP1 DUP2 MSTORE PUSH32 0x4EB5EE08F6BD1352ED7B0DAC0EE5E5B7CB984B0477D694D9DB613B705F47F2AB SWAP1 PUSH1 0x20 ADD PUSH1 0x40 MLOAD DUP1 SWAP2 SUB SWAP1 LOG1 PUSH2 0x1520 DUP4 DUP4 PUSH2 0xEC4 JUMP JUMPDEST POP PUSH1 0x1 SWAP7 SWAP6 POP POP POP POP POP POP JUMP JUMPDEST PUSH1 0x40 MLOAD DUP1 PUSH2 0x140 ADD PUSH1 0x40 MSTORE DUP1 PUSH1 0xA SWAP1 PUSH1 0x20 DUP3 MUL DUP1 CALLDATASIZE DUP4 CALLDATACOPY POP SWAP2 SWAP3 SWAP2 POP POP JUMP JUMPDEST PUSH1 0x40 MLOAD DUP1 PUSH1 0x80 ADD PUSH1 0x40 MSTORE DUP1 PUSH1 0x60 DUP2 MSTORE PUSH1 0x20 ADD PUSH1 0x0 DUP2 MSTORE PUSH1 0x20 ADD PUSH2 0x156D PUSH2 0x152D JUMP JUMPDEST DUP2 MSTORE PUSH1 0x20 ADD PUSH1 0x0 DUP2 MSTORE POP SWAP1 JUMP JUMPDEST PUSH1 0x40 MLOAD DUP1 PUSH2 0x140 ADD PUSH1 0x40 MSTORE DUP1 PUSH1 0xA SWAP1 JUMPDEST PUSH2 0x1592 PUSH2 0x154C JUMP JUMPDEST DUP2 MSTORE PUSH1 0x20 ADD SWAP1 PUSH1 0x1 SWAP1 SUB SWAP1 DUP2 PUSH2 0x158A JUMPI SWAP1 POP POP SWAP1 JUMP JUMPDEST DUP3 DUP1 SLOAD PUSH2 0x15B4 SWAP1 PUSH2 0x1EC3 JUMP JUMPDEST SWAP1 PUSH1 0x0 MSTORE PUSH1 0x20 PUSH1 0x0 KECCAK256 SWAP1 PUSH1 0x1F ADD PUSH1 0x20 SWAP1 DIV DUP2 ADD SWAP3 DUP3 PUSH2 0x15D6 JUMPI PUSH1 0x0 DUP6 SSTORE PUSH2 0x161C JUMP JUMPDEST DUP3 PUSH1 0x1F LT PUSH2 0x15EF JUMPI DUP1 MLOAD PUSH1 0xFF NOT AND DUP4 DUP1 ADD OR DUP6 SSTORE PUSH2 0x161C JUMP JUMPDEST DUP3 DUP1 ADD PUSH1 0x1 ADD DUP6 SSTORE DUP3 ISZERO PUSH2 0x161C JUMPI SWAP2 DUP3 ADD JUMPDEST DUP3 DUP2 GT ISZERO PUSH2 0x161C JUMPI DUP3 MLOAD DUP3 SSTORE SWAP2 PUSH1 0x20 ADD SWAP2 SWAP1 PUSH1 0x1 ADD SWAP1 PUSH2 0x1601 JUMP JUMPDEST POP PUSH2 0x1628 SWAP3 SWAP2 POP PUSH2 0x1659 JUMP JUMPDEST POP SWAP1 JUMP JUMPDEST DUP3 PUSH1 0xA DUP2 ADD SWAP3 DUP3 ISZERO PUSH2 0x161C JUMPI SWAP2 PUSH1 0x20 MUL DUP3 ADD DUP3 DUP2 GT ISZERO PUSH2 0x161C JUMPI DUP3 MLOAD DUP3 SSTORE SWAP2 PUSH1 0x20 ADD SWAP2 SWAP1 PUSH1 0x1 ADD SWAP1 PUSH2 0x1601 JUMP JUMPDEST JUMPDEST DUP1 DUP3 GT ISZERO PUSH2 0x1628 JUMPI PUSH1 0x0 DUP2 SSTORE PUSH1 0x1 ADD PUSH2 0x165A JUMP JUMPDEST PUSH1 0x0 PUSH2 0x1681 PUSH2 0x167C DUP5 PUSH2 0x1E5E JUMP JUMPDEST PUSH2 0x1E2D JUMP JUMPDEST SWAP1 POP DUP1 DUP3 DUP6 DUP6 PUSH1 0x5 SHL DUP6 ADD GT ISZERO PUSH2 0x1697 JUMPI PUSH1 0x0 DUP1 REVERT JUMPDEST PUSH1 0x0 JUMPDEST DUP6 DUP2 LT ISZERO PUSH2 0x16B8 JUMPI DUP2 CALLDATALOAD DUP4 MSTORE PUSH1 0x20 SWAP3 DUP4 ADD SWAP3 SWAP1 SWAP2 ADD SWAP1 PUSH1 0x1 ADD PUSH2 0x169A JUMP JUMPDEST POP POP POP SWAP4 SWAP3 POP POP POP JUMP JUMPDEST PUSH1 0x0 DUP3 PUSH1 0x1F DUP4 ADD SLT PUSH2 0x16D2 JUMPI DUP1 DUP2 REVERT JUMPDEST PUSH1 0x40 PUSH2 0x16DD DUP2 PUSH2 0x1E2D JUMP JUMPDEST DUP1 DUP5 DUP7 PUSH1 0x80 DUP8 ADD GT ISZERO PUSH2 0x16EE JUMPI DUP5 DUP6 REVERT JUMPDEST DUP5 JUMPDEST PUSH1 0x2 DUP2 LT ISZERO PUSH2 0x1717 JUMPI PUSH2 0x1703 DUP9 DUP4 PUSH2 0x1723 JUMP JUMPDEST DUP5 MSTORE PUSH1 0x20 SWAP1 SWAP4 ADD SWAP3 SWAP1 DUP5 ADD SWAP1 PUSH1 0x1 ADD PUSH2 0x16F0 JUMP JUMPDEST POP SWAP1 SWAP7 SWAP6 POP POP POP POP POP POP JUMP JUMPDEST PUSH1 0x0 DUP3 PUSH1 0x1F DUP4 ADD SLT PUSH2 0x1733 JUMPI DUP1 DUP2 REVERT JUMPDEST PUSH2 0x173F DUP4 PUSH1 0x2 DUP5 PUSH2 0x166E JUMP JUMPDEST SWAP4 SWAP3 POP POP POP JUMP JUMPDEST PUSH1 0x0 DUP3 PUSH1 0x1F DUP4 ADD SLT PUSH2 0x1756 JUMPI DUP1 DUP2 REVERT JUMPDEST DUP2 CALLDATALOAD PUSH8 0xFFFFFFFFFFFFFFFF DUP2 GT ISZERO PUSH2 0x1770 JUMPI PUSH2 0x1770 PUSH2 0x1F2F JUMP JUMPDEST PUSH2 0x1783 PUSH1 0x1F DUP3 ADD PUSH1 0x1F NOT AND PUSH1 0x20 ADD PUSH2 0x1E2D JUMP JUMPDEST DUP2 DUP2 MSTORE DUP5 PUSH1 0x20 DUP4 DUP7 ADD ADD GT ISZERO PUSH2 0x1797 JUMPI DUP3 DUP4 REVERT JUMPDEST DUP2 PUSH1 0x20 DUP6 ADD PUSH1 0x20 DUP4 ADD CALLDATACOPY SWAP1 DUP2 ADD PUSH1 0x20 ADD SWAP2 SWAP1 SWAP2 MSTORE SWAP3 SWAP2 POP POP JUMP JUMPDEST PUSH1 0x0 DUP1 PUSH1 0x0 DUP1 PUSH1 0x0 DUP1 PUSH2 0x300 DUP8 DUP10 SUB SLT ISZERO PUSH2 0x17CA JUMPI DUP2 DUP3 REVERT JUMPDEST PUSH2 0x17D4 DUP9 DUP9 PUSH2 0x1723 JUMP JUMPDEST SWAP6 POP PUSH2 0x17E3 DUP9 PUSH1 0x40 DUP10 ADD PUSH2 0x16C2 JUMP JUMPDEST SWAP5 POP PUSH2 0x17F2 DUP9 PUSH1 0xC0 DUP10 ADD PUSH2 0x1723 JUMP JUMPDEST SWAP4 POP DUP8 PUSH2 0x11F DUP9 ADD SLT PUSH2 0x1803 JUMPI DUP2 DUP3 REVERT JUMPDEST PUSH1 0xE PUSH2 0x1811 PUSH2 0x167C DUP3 PUSH2 0x1E5E JUMP JUMPDEST DUP1 PUSH2 0x100 DUP11 ADD PUSH2 0x2C0 DUP12 ADD DUP13 DUP2 GT ISZERO PUSH2 0x1828 JUMPI DUP7 DUP8 REVERT JUMPDEST DUP7 JUMPDEST DUP6 DUP2 LT ISZERO PUSH2 0x1848 JUMPI DUP3 CALLDATALOAD DUP6 MSTORE PUSH1 0x20 SWAP5 DUP6 ADD SWAP5 SWAP1 SWAP3 ADD SWAP2 PUSH1 0x1 ADD PUSH2 0x182A JUMP JUMPDEST POP SWAP2 SWAP7 POP POP CALLDATALOAD SWAP2 POP PUSH8 0xFFFFFFFFFFFFFFFF SWAP1 POP DUP1 DUP3 GT ISZERO PUSH2 0x1867 JUMPI DUP4 DUP5 REVERT JUMPDEST PUSH2 0x1873 DUP11 DUP4 DUP12 ADD PUSH2 0x1746 JUMP JUMPDEST SWAP4 POP PUSH2 0x2E0 DUP10 ADD CALLDATALOAD SWAP2 POP DUP1 DUP3 GT ISZERO PUSH2 0x1889 JUMPI DUP3 DUP4 REVERT JUMPDEST POP PUSH2 0x1896 DUP10 DUP3 DUP11 ADD PUSH2 0x1746 JUMP JUMPDEST SWAP2 POP POP SWAP3 SWAP6 POP SWAP3 SWAP6 POP SWAP3 SWAP6 JUMP JUMPDEST PUSH1 0x0 DUP1 PUSH1 0x0 DUP1 PUSH1 0x0 DUP1 PUSH1 0x0 DUP1 PUSH1 0x0 PUSH2 0x280 DUP11 DUP13 SUB SLT ISZERO PUSH2 0x18C1 JUMPI DUP3 DUP4 REVERT JUMPDEST PUSH2 0x18CB DUP12 DUP12 PUSH2 0x1723 JUMP JUMPDEST SWAP9 POP PUSH2 0x18DA DUP12 PUSH1 0x40 DUP13 ADD PUSH2 0x16C2 JUMP JUMPDEST SWAP8 POP PUSH2 0x18E9 DUP12 PUSH1 0xC0 DUP13 ADD PUSH2 0x1723 JUMP JUMPDEST SWAP7 POP DUP11 PUSH2 0x11F DUP12 ADD SLT PUSH2 0x18FA JUMPI DUP3 DUP4 REVERT JUMPDEST PUSH2 0x190A DUP12 PUSH1 0x1 PUSH2 0x100 DUP14 ADD PUSH2 0x166E JUMP JUMPDEST SWAP6 POP PUSH2 0x191A DUP12 PUSH2 0x120 DUP13 ADD PUSH2 0x1723 JUMP JUMPDEST SWAP5 POP PUSH2 0x192A DUP12 PUSH2 0x160 DUP13 ADD PUSH2 0x16C2 JUMP JUMPDEST SWAP4 POP PUSH2 0x193A DUP12 PUSH2 0x1E0 DUP13 ADD PUSH2 0x1723 JUMP JUMPDEST SWAP3 POP PUSH2 0x194A DUP12 PUSH2 0x220 DUP13 ADD PUSH2 0x1723 JUMP JUMPDEST SWAP2 POP PUSH2 0x260 DUP11 ADD CALLDATALOAD PUSH8 0xFFFFFFFFFFFFFFFF DUP2 GT ISZERO PUSH2 0x1966 JUMPI DUP2 DUP3 REVERT JUMPDEST PUSH2 0x1972 DUP13 DUP3 DUP14 ADD PUSH2 0x1746 JUMP JUMPDEST SWAP2 POP POP SWAP3 SWAP6 SWAP9 POP SWAP3 SWAP6 SWAP9 POP SWAP3 SWAP6 SWAP9 JUMP JUMPDEST PUSH1 0x0 PUSH1 0x20 DUP3 DUP5 SUB SLT ISZERO PUSH2 0x1993 JUMPI DUP1 DUP2 REVERT JUMPDEST DUP2 MLOAD DUP1 ISZERO ISZERO DUP2 EQ PUSH2 0x173F JUMPI DUP2 DUP3 REVERT JUMPDEST PUSH1 0x0 PUSH1 0x20 DUP3 DUP5 SUB SLT ISZERO PUSH2 0x19B3 JUMPI DUP1 DUP2 REVERT JUMPDEST DUP2 CALLDATALOAD PUSH8 0xFFFFFFFFFFFFFFFF DUP2 GT ISZERO PUSH2 0x19C9 JUMPI DUP2 DUP3 REVERT JUMPDEST PUSH2 0x19D5 DUP5 DUP3 DUP6 ADD PUSH2 0x1746 JUMP JUMPDEST SWAP5 SWAP4 POP POP POP POP JUMP JUMPDEST PUSH1 0x0 DUP1 PUSH1 0x40 DUP4 DUP6 SUB SLT ISZERO PUSH2 0x19EF JUMPI DUP2 DUP3 REVERT JUMPDEST DUP3 CALLDATALOAD PUSH8 0xFFFFFFFFFFFFFFFF DUP1 DUP3 GT ISZERO PUSH2 0x1A06 JUMPI DUP4 DUP5 REVERT JUMPDEST PUSH2 0x1A12 DUP7 DUP4 DUP8 ADD PUSH2 0x1746 JUMP JUMPDEST SWAP4 POP PUSH1 0x20 DUP6 ADD CALLDATALOAD SWAP2 POP DUP1 DUP3 GT ISZERO PUSH2 0x1A27 JUMPI DUP3 DUP4 REVERT JUMPDEST POP PUSH2 0x1A34 DUP6 DUP3 DUP7 ADD PUSH2 0x1746 JUMP JUMPDEST SWAP2 POP POP SWAP3 POP SWAP3 SWAP1 POP JUMP JUMPDEST PUSH1 0x0 DUP1 PUSH1 0x40 DUP4 DUP6 SUB SLT ISZERO PUSH2 0x1A50 JUMPI DUP2 DUP3 REVERT JUMPDEST DUP3 CALLDATALOAD PUSH8 0xFFFFFFFFFFFFFFFF DUP2 GT ISZERO PUSH2 0x1A66 JUMPI DUP3 DUP4 REVERT JUMPDEST PUSH2 0x1A72 DUP6 DUP3 DUP7 ADD PUSH2 0x1746 JUMP JUMPDEST SWAP6 PUSH1 0x20 SWAP5 SWAP1 SWAP5 ADD CALLDATALOAD SWAP5 POP POP POP POP JUMP JUMPDEST PUSH1 0x0 PUSH1 0x20 DUP3 DUP5 SUB SLT ISZERO PUSH2 0x1A92 JUMPI DUP1 DUP2 REVERT JUMPDEST POP CALLDATALOAD SWAP2 SWAP1 POP JUMP JUMPDEST DUP1 PUSH1 0x0 JUMPDEST PUSH1 0x2 DUP2 LT ISZERO PUSH2 0x1AC7 JUMPI PUSH2 0x1AB1 DUP5 DUP4 MLOAD PUSH2 0x1AF0 JUMP JUMPDEST PUSH1 0x40 SWAP4 SWAP1 SWAP4 ADD SWAP3 PUSH1 0x20 SWAP2 SWAP1 SWAP2 ADD SWAP1 PUSH1 0x1 ADD PUSH2 0x1A9D JUMP JUMPDEST POP POP POP POP JUMP JUMPDEST DUP1 PUSH1 0x0 JUMPDEST PUSH1 0xA DUP2 LT ISZERO PUSH2 0x1AC7 JUMPI DUP2 MLOAD DUP5 MSTORE PUSH1 0x20 SWAP4 DUP5 ADD SWAP4 SWAP1 SWAP2 ADD SWAP1 PUSH1 0x1 ADD PUSH2 0x1AD1 JUMP JUMPDEST DUP1 PUSH1 0x0 JUMPDEST PUSH1 0x2 DUP2 LT ISZERO PUSH2 0x1AC7 JUMPI DUP2 MLOAD DUP5 MSTORE PUSH1 0x20 SWAP4 DUP5 ADD SWAP4 SWAP1 SWAP2 ADD SWAP1 PUSH1 0x1 ADD PUSH2 0x1AF4 JUMP JUMPDEST PUSH1 0x0 DUP2 MLOAD DUP1 DUP5 MSTORE PUSH2 0x1B2B DUP2 PUSH1 0x20 DUP7 ADD PUSH1 0x20 DUP7 ADD PUSH2 0x1E97 JUMP JUMPDEST PUSH1 0x1F ADD PUSH1 0x1F NOT AND SWAP3 SWAP1 SWAP3 ADD PUSH1 0x20 ADD SWAP3 SWAP2 POP POP JUMP JUMPDEST PUSH1 0x0 PUSH2 0x1A0 DUP3 MLOAD DUP2 DUP6 MSTORE PUSH2 0x1B55 DUP3 DUP7 ADD DUP3 PUSH2 0x1B13 JUMP JUMPDEST SWAP2 POP POP PUSH1 0x20 DUP4 ADD MLOAD PUSH1 0x20 DUP6 ADD MSTORE PUSH1 0x40 DUP4 ADD MLOAD PUSH2 0x1B74 PUSH1 0x40 DUP7 ADD DUP3 PUSH2 0x1ACD JUMP JUMPDEST POP PUSH1 0x60 DUP4 ADD MLOAD PUSH2 0x180 DUP6 ADD MSTORE DUP1 SWAP2 POP POP SWAP3 SWAP2 POP POP JUMP JUMPDEST PUSH1 0x0 DUP2 MLOAD DUP4 MSTORE PUSH1 0x20 DUP3 ADD MLOAD PUSH1 0x80 PUSH1 0x20 DUP6 ADD MSTORE PUSH2 0x1BA9 PUSH1 0x80 DUP6 ADD DUP3 PUSH2 0x1B13 JUMP JUMPDEST SWAP1 POP PUSH1 0x40 DUP4 ADD MLOAD DUP5 DUP3 SUB PUSH1 0x40 DUP7 ADD MSTORE PUSH2 0x1BC2 DUP3 DUP3 PUSH2 0x1B13 JUMP JUMPDEST SWAP2 POP POP PUSH1 0x60 DUP4 ADD MLOAD ISZERO ISZERO PUSH1 0x60 DUP6 ADD MSTORE DUP1 SWAP2 POP POP SWAP3 SWAP2 POP POP JUMP JUMPDEST PUSH1 0x0 DUP3 MLOAD PUSH2 0x1BED DUP2 DUP5 PUSH1 0x20 DUP8 ADD PUSH2 0x1E97 JUMP JUMPDEST SWAP2 SWAP1 SWAP2 ADD SWAP3 SWAP2 POP POP JUMP JUMPDEST PUSH1 0x20 DUP1 DUP3 MSTORE PUSH1 0x0 SWAP1 PUSH2 0x160 DUP4 ADD DUP4 DUP3 ADD DUP6 DUP5 JUMPDEST PUSH1 0xA DUP2 LT ISZERO PUSH2 0x1C39 JUMPI PUSH1 0x1F NOT DUP8 DUP6 SUB ADD DUP4 MSTORE PUSH2 0x1C27 DUP5 DUP4 MLOAD PUSH2 0x1B3F JUMP JUMPDEST SWAP4 POP SWAP2 DUP5 ADD SWAP2 SWAP1 DUP5 ADD SWAP1 PUSH1 0x1 ADD PUSH2 0x1C0A JUMP JUMPDEST POP SWAP2 SWAP7 SWAP6 POP POP POP POP POP POP JUMP JUMPDEST PUSH1 0x0 PUSH1 0x20 DUP1 DUP4 ADD DUP2 DUP5 MSTORE DUP1 DUP6 MLOAD DUP1 DUP4 MSTORE PUSH1 0x40 DUP7 ADD SWAP2 POP PUSH1 0x40 DUP2 PUSH1 0x5 SHL DUP8 ADD ADD SWAP3 POP DUP4 DUP8 ADD DUP6 JUMPDEST DUP3 DUP2 LT ISZERO PUSH2 0x1C99 JUMPI PUSH1 0x3F NOT DUP9 DUP7 SUB ADD DUP5 MSTORE PUSH2 0x1C87 DUP6 DUP4 MLOAD PUSH2 0x1B8A JUMP JUMPDEST SWAP5 POP SWAP3 DUP6 ADD SWAP3 SWAP1 DUP6 ADD SWAP1 PUSH1 0x1 ADD PUSH2 0x1C6B JUMP JUMPDEST POP SWAP3 SWAP8 SWAP7 POP POP POP POP POP POP POP JUMP JUMPDEST PUSH2 0x140 DUP2 ADD PUSH2 0xEBE DUP3 DUP5 PUSH2 0x1ACD JUMP JUMPDEST PUSH2 0x2C0 DUP2 ADD PUSH2 0x1CC4 DUP3 DUP8 PUSH2 0x1AF0 JUMP JUMPDEST PUSH2 0x1CD1 PUSH1 0x40 DUP4 ADD DUP7 PUSH2 0x1A99 JUMP JUMPDEST PUSH2 0x1CDE PUSH1 0xC0 DUP4 ADD DUP6 PUSH2 0x1AF0 JUMP JUMPDEST PUSH2 0x100 DUP3 ADD DUP4 PUSH1 0x0 JUMPDEST PUSH1 0xE DUP2 LT ISZERO PUSH2 0x1D06 JUMPI DUP2 MLOAD DUP4 MSTORE PUSH1 0x20 SWAP3 DUP4 ADD SWAP3 SWAP1 SWAP2 ADD SWAP1 PUSH1 0x1 ADD PUSH2 0x1CE7 JUMP JUMPDEST POP POP POP SWAP6 SWAP5 POP POP POP POP POP JUMP JUMPDEST PUSH2 0x120 DUP2 ADD PUSH2 0x1D21 DUP3 DUP8 PUSH2 0x1AF0 JUMP JUMPDEST PUSH2 0x1D2E PUSH1 0x40 DUP4 ADD DUP7 PUSH2 0x1A99 JUMP JUMPDEST PUSH2 0x1D3B PUSH1 0xC0 DUP4 ADD DUP6 PUSH2 0x1AF0 JUMP JUMPDEST PUSH2 0x100 DUP3 ADD DUP4 PUSH1 0x0 JUMPDEST PUSH1 0x1 DUP2 LT ISZERO PUSH2 0x1D06 JUMPI DUP2 MLOAD DUP4 MSTORE PUSH1 0x20 SWAP3 DUP4 ADD SWAP3 SWAP1 SWAP2 ADD SWAP1 PUSH1 0x1 ADD PUSH2 0x1D44 JUMP JUMPDEST PUSH2 0x140 DUP2 ADD PUSH2 0x1D72 DUP3 DUP8 PUSH2 0x1AF0 JUMP JUMPDEST PUSH2 0x1D7F PUSH1 0x40 DUP4 ADD DUP7 PUSH2 0x1A99 JUMP JUMPDEST PUSH2 0x1D8C PUSH1 0xC0 DUP4 ADD DUP6 PUSH2 0x1AF0 JUMP JUMPDEST PUSH2 0x1D9A PUSH2 0x100 DUP4 ADD DUP5 PUSH2 0x1AF0 JUMP JUMPDEST SWAP6 SWAP5 POP POP POP POP POP JUMP JUMPDEST PUSH1 0x0 PUSH1 0x60 DUP3 MSTORE PUSH2 0x1DB6 PUSH1 0x60 DUP4 ADD DUP7 PUSH2 0x1B13 JUMP JUMPDEST PUSH1 0x20 DUP4 ADD SWAP5 SWAP1 SWAP5 MSTORE POP PUSH1 0x40 ADD MSTORE SWAP2 SWAP1 POP JUMP JUMPDEST PUSH1 0x0 PUSH1 0x20 DUP3 MSTORE PUSH2 0x173F PUSH1 0x20 DUP4 ADD DUP5 PUSH2 0x1B3F JUMP JUMPDEST PUSH1 0x0 PUSH1 0x20 DUP3 MSTORE PUSH2 0x173F PUSH1 0x20 DUP4 ADD DUP5 PUSH2 0x1B8A JUMP JUMPDEST PUSH1 0x0 DUP6 DUP3 MSTORE PUSH1 0x80 PUSH1 0x20 DUP4 ADD MSTORE PUSH2 0x1E07 PUSH1 0x80 DUP4 ADD DUP7 PUSH2 0x1B13 JUMP JUMPDEST DUP3 DUP2 SUB PUSH1 0x40 DUP5 ADD MSTORE PUSH2 0x1E19 DUP2 DUP7 PUSH2 0x1B13 JUMP JUMPDEST SWAP2 POP POP DUP3 ISZERO ISZERO PUSH1 0x60 DUP4 ADD MSTORE SWAP6 SWAP5 POP POP POP POP POP JUMP JUMPDEST PUSH1 0x40 MLOAD PUSH1 0x1F DUP3 ADD PUSH1 0x1F NOT AND DUP2 ADD PUSH8 0xFFFFFFFFFFFFFFFF DUP2 GT DUP3 DUP3 LT OR ISZERO PUSH2 0x1E56 JUMPI PUSH2 0x1E56 PUSH2 0x1F2F JUMP JUMPDEST PUSH1 0x40 MSTORE SWAP2 SWAP1 POP JUMP JUMPDEST PUSH1 0x0 PUSH8 0xFFFFFFFFFFFFFFFF DUP3 GT ISZERO PUSH2 0x1E78 JUMPI PUSH2 0x1E78 PUSH2 0x1F2F JUMP JUMPDEST POP PUSH1 0x5 SHL SWAP1 JUMP JUMPDEST PUSH1 0x0 DUP3 NOT DUP3 GT ISZERO PUSH2 0x1E92 JUMPI PUSH2 0x1E92 PUSH2 0x1F19 JUMP JUMPDEST POP ADD SWAP1 JUMP JUMPDEST PUSH1 0x0 JUMPDEST DUP4 DUP2 LT ISZERO PUSH2 0x1EB2 JUMPI DUP2 DUP2 ADD MLOAD DUP4 DUP3 ADD MSTORE PUSH1 0x20 ADD PUSH2 0x1E9A JUMP JUMPDEST DUP4 DUP2 GT ISZERO PUSH2 0x1AC7 JUMPI POP POP PUSH1 0x0 SWAP2 ADD MSTORE JUMP JUMPDEST PUSH1 0x1 DUP2 DUP2 SHR SWAP1 DUP3 AND DUP1 PUSH2 0x1ED7 JUMPI PUSH1 0x7F DUP3 AND SWAP2 POP JUMPDEST PUSH1 0x20 DUP3 LT DUP2 EQ ISZERO PUSH2 0x1EF8 JUMPI PUSH4 0x4E487B71 PUSH1 0xE0 SHL PUSH1 0x0 MSTORE PUSH1 0x22 PUSH1 0x4 MSTORE PUSH1 0x24 PUSH1 0x0 REVERT JUMPDEST POP SWAP2 SWAP1 POP JUMP JUMPDEST PUSH1 0x0 PUSH1 0x0 NOT DUP3 EQ ISZERO PUSH2 0x1F12 JUMPI PUSH2 0x1F12 PUSH2 0x1F19 JUMP JUMPDEST POP PUSH1 0x1 ADD SWAP1 JUMP JUMPDEST PUSH4 0x4E487B71 PUSH1 0xE0 SHL PUSH1 0x0 MSTORE PUSH1 0x11 PUSH1 0x4 MSTORE PUSH1 0x24 PUSH1 0x0 REVERT JUMPDEST PUSH4 0x4E487B71 PUSH1 0xE0 SHL PUSH1 0x0 MSTORE PUSH1 0x41 PUSH1 0x4 MSTORE PUSH1 0x24 PUSH1 0x0 REVERT INVALID LOG1 PUSH5 0x736F6C6343 STOP ADDMOD SUB STOP EXP "
        },
        "methodIdentifiers": {
          "MAX_GROUPS()": "f3451b2f",
          "MAX_USERS()": "fa6ac131",
          "addUserToGroup(string,uint256)": "5aab6635",
          "confessions(uint256)": "7cf7b946",
          "createGroup(string,uint256)": "e367fc6a",
          "createMessage(string,string)": "dc6af89f",
          "getAllHashedUsersByGroupID(uint256)": "2c166ab2",
          "getAllHashedUsersByGroupName(string)": "ceb9c570",
          "getConfessionByID(uint256)": "3af1159f",
          "getConfessions()": "e1b4fedd",
          "getGroupByID(uint256)": "65700b70",
          "getGroups()": "c72b5176",
          "groupCount()": "8f23b326",
          "groupExists(string)": "cdd781e2",
          "groupIDs(string)": "4b48f2e9",
          "groups(uint256)": "96324bd4",
          "pfsVerified()": "15796fb2",
          "verifyAndAddMessage(uint256[2],uint256[2][2],uint256[2],uint256[14],string,string)": "fc9a47ed",
          "verifyAndStoreRegistration(uint256[2],uint256[2][2],uint256[2],uint256[1],uint256[2],uint256[2][2],uint256[2],uint256[2],string)": "9b9ee534"
        }
      }
    }
  }
}