{
  "contracts/Verifier.sol": {
    "Verifier": {
      "abi": [
        {
          "inputs": [
            {
              "internalType": "uint256[2]",
              "name": "a",
              "type": "uint256[2]"
            },
            {
              "internalType": "uint256[2][2]",
              "name": "b",
              "type": "uint256[2][2]"
            },
            {
              "internalType": "uint256[2]",
              "name": "c",
              "type": "uint256[2]"
            },
            {
              "internalType": "uint256[1]",
              "name": "input",
              "type": "uint256[1]"
            }
          ],
          "name": "verifyHashCheckBitsProof",
          "outputs": [
            {
              "internalType": "bool",
              "name": "",
              "type": "bool"
            }
          ],
          "stateMutability": "view",
          "type": "function"
        },
        {
          "inputs": [
            {
              "internalType": "uint256[2]",
              "name": "a",
              "type": "uint256[2]"
            },
            {
              "internalType": "uint256[2][2]",
              "name": "b",
              "type": "uint256[2][2]"
            },
            {
              "internalType": "uint256[2]",
              "name": "c",
              "type": "uint256[2]"
            },
            {
              "internalType": "uint256[2]",
              "name": "input",
              "type": "uint256[2]"
            }
          ],
          "name": "verifyHashCheckProof",
          "outputs": [
            {
              "internalType": "bool",
              "name": "",
              "type": "bool"
            }
          ],
          "stateMutability": "view",
          "type": "function"
        },
        {
          "inputs": [
            {
              "internalType": "uint256[2]",
              "name": "a",
              "type": "uint256[2]"
            },
            {
              "internalType": "uint256[2][2]",
              "name": "b",
              "type": "uint256[2][2]"
            },
            {
              "internalType": "uint256[2]",
              "name": "c",
              "type": "uint256[2]"
            },
            {
              "internalType": "uint256[]",
              "name": "input",
              "type": "uint256[]"
            },
            {
              "components": [
                {
                  "components": [
                    {
                      "internalType": "uint256",
                      "name": "X",
                      "type": "uint256"
                    },
                    {
                      "internalType": "uint256",
                      "name": "Y",
                      "type": "uint256"
                    }
                  ],
                  "internalType": "struct Pairing.G1Point",
                  "name": "alfa1",
                  "type": "tuple"
                },
                {
                  "components": [
                    {
                      "internalType": "uint256[2]",
                      "name": "X",
                      "type": "uint256[2]"
                    },
                    {
                      "internalType": "uint256[2]",
                      "name": "Y",
                      "type": "uint256[2]"
                    }
                  ],
                  "internalType": "struct Pairing.G2Point",
                  "name": "beta2",
                  "type": "tuple"
                },
                {
                  "components": [
                    {
                      "internalType": "uint256[2]",
                      "name": "X",
                      "type": "uint256[2]"
                    },
                    {
                      "internalType": "uint256[2]",
                      "name": "Y",
                      "type": "uint256[2]"
                    }
                  ],
                  "internalType": "struct Pairing.G2Point",
                  "name": "gamma2",
                  "type": "tuple"
                },
                {
                  "components": [
                    {
                      "internalType": "uint256[2]",
                      "name": "X",
                      "type": "uint256[2]"
                    },
                    {
                      "internalType": "uint256[2]",
                      "name": "Y",
                      "type": "uint256[2]"
                    }
                  ],
                  "internalType": "struct Pairing.G2Point",
                  "name": "delta2",
                  "type": "tuple"
                },
                {
                  "components": [
                    {
                      "internalType": "uint256",
                      "name": "X",
                      "type": "uint256"
                    },
                    {
                      "internalType": "uint256",
                      "name": "Y",
                      "type": "uint256"
                    }
                  ],
                  "internalType": "struct Pairing.G1Point[]",
                  "name": "IC",
                  "type": "tuple[]"
                }
              ],
              "internalType": "struct Verifier.VerifyingKey",
              "name": "vk",
              "type": "tuple"
            }
          ],
          "name": "verifyProof",
          "outputs": [
            {
              "internalType": "bool",
              "name": "",
              "type": "bool"
            }
          ],
          "stateMutability": "view",
          "type": "function"
        },
        {
          "inputs": [
            {
              "internalType": "uint256[2]",
              "name": "a",
              "type": "uint256[2]"
            },
            {
              "internalType": "uint256[2][2]",
              "name": "b",
              "type": "uint256[2][2]"
            },
            {
              "internalType": "uint256[2]",
              "name": "c",
              "type": "uint256[2]"
            },
            {
              "internalType": "uint256[14]",
              "name": "input",
              "type": "uint256[14]"
            }
          ],
          "name": "verifySigCheckProof",
          "outputs": [
            {
              "internalType": "bool",
              "name": "",
              "type": "bool"
            }
          ],
          "stateMutability": "view",
          "type": "function"
        }
      ],
      "evm": {
        "bytecode": {
          "linkReferences": {},
          "object": "6126a761003a600b82828239805160001a60731461002d57634e487b7160e01b600052600060045260246000fd5b30600052607381538281f3fe73000000000000000000000000000000000000000030146080604052600436106100565760003560e01c80632159cf011461005b57806357c25080146100825780635c510454146100955780636baed4d0146100a8575b600080fd5b61006e61006936600461244d565b6100bb565b604051901515815260200160405180910390f35b61006e61009036600461249b565b610168565b61006e6100a3366004612384565b61020a565b61006e6100b63660046123ee565b6102b0565b6040805160028082526060820183526000928392919060208301908036833701905050905060005b600281101561014e5783816002811061010c57634e487b7160e01b600052603260045260246000fd5b602002015182828151811061013157634e487b7160e01b600052603260045260246000fd5b60209081029190910101528061014681612633565b9150506100e3565b5061015e86868684610090610353565b9695505050505050565b6000610172611fef565b604080518082018252885181526020808a01518183015290835281516080810183528851518184019081528951830151606083015281528251808401845289830180515182525183015181840152818301528382015281518083018352875181528782015191810191909152908201526101ed848285610790565b6101fb576001915050610201565b60009150505b95945050505050565b60408051600e8082526101e08201909252600091829190602082016101c08036833701905050905060005b600e8110156102a0578381600e811061025e57634e487b7160e01b600052603260045260246000fd5b602002015182828151811061028357634e487b7160e01b600052603260045260246000fd5b60209081029190910101528061029881612633565b915050610235565b5061015e868686846100906109bf565b6040805160018082528183019092526000918291906020808301908036833701905050905060005b60018110156103435783816001811061030157634e487b7160e01b600052603260045260246000fd5b602002015182828151811061032657634e487b7160e01b600052603260045260246000fd5b60209081029190910101528061033b81612633565b9150506102d8565b5061015e8686868461009061142a565b61035b612040565b6040805180820182527f2b6d4650a4a9984dd255a254717ce985d4a2625229fa63ba1268f0c8f97af9eb81527f22f3991d50b793a3660fa6ad8ce156ac3eb478b77e8b0b74ffdf4be654c5610d6020808301919091529083528151608080820184527f0e27d2438600b41133385b48fc242556e81b44ab4d0ee9a3376da7315876c2ba8285019081527f074f8374c9ddae90032fb99308af80e087027dac3ec8f203bd7ee80d8b54bb44606080850191909152908352845180860186527f218374fdb8b41d2b36cdf8b50c9a925631381f50fa6b9ad5d281a172ad21293181527f0b04b6269c1b07424f6a6985dfab0cefd704a35cae92e15048f533f4c5da412b818601528385015285840192909252835180820185527f198e9393920d483a7260bfb731fb5d25f1aa493335a9e71297e485b7aef312c28186019081527f1800deef121f1e76426a00665e5c4479674322d4f75edadd46debd5cd992f6ed828501528152845180860186527f090689d0585ff075ec9e99ad690c3395bc4b313370b38ef355acdadcd122975b81527f12c85ea5db8c6deb4aab71808dcb408fe3d1e7690c43d37b4ce6cc0166fa7daa818601528185015285850152835180820185527f187dfd92e719cd335fec9868d596e847c0a6a9c3ce8fb650fd7241df14dbcdd68186019081527f0597134ad9f10975e7f84d2cef6b5fdd0d0db6a7c09392522406567ac086d316828501528152845180860186527f10e7fdf5ad93d2ce02e82a0f4bfcf7eb249faa09b8b20cb153815bd83265e7f381527f2693890a80919bfce04dd8182a121053eaa1404a7b9711631822671051270058818601528185015291850191909152825160038082529181019093529082015b60408051808201909152600080825260208201528152602001906001900390816105d757505060808201908152604080518082019091527f25c8a85f040c40225542d2ac42ffb36df95b4a746ca92a0cab1e2d7d33f11f1681527f214f0af6fc01d65edc5cab92e8a04201bc8c0f4a387719b50ee061d1fe3d131160208201529051805160009061067857634e487b7160e01b600052603260045260246000fd5b602002602001018190525060405180604001604052807f1757de578a6826ae258150b6efb5d1494dfa902dafc276f4794ddfc59b70badb81526020017f0142d427500ec0da4f09a85b12defc4d705b824d10b58614772825027384505481525081608001516001815181106106fd57634e487b7160e01b600052603260045260246000fd5b602002602001018190525060405180604001604052807f229c09d2f02c5e89f4c87ac086df29dffdcb959f4904cf13dc8076ed39f6484d81526020017f274f1cabe77e4b1422a0e3636371dd94503f41bab67066cc3fa63e3932038584815250816080015160028151811061078257634e487b7160e01b600052603260045260246000fd5b602002602001018190525090565b60808101515183516000917f30644e72e131a029b85045b68181585d2833e84879b9709143e1f593f0000001916107c89060016125e5565b1461081a5760405162461bcd60e51b815260206004820152601260248201527f76657269666965722d6261642d696e707574000000000000000000000000000060448201526064015b60405180910390fd5b604080518082019091526000808252602082018190525b8651811015610935578287828151811061085b57634e487b7160e01b600052603260045260246000fd5b6020026020010151106108b05760405162461bcd60e51b815260206004820152601f60248201527f76657269666965722d6774652d736e61726b2d7363616c61722d6669656c64006044820152606401610811565b6109218261091c87608001518460016108c991906125e5565b815181106108e757634e487b7160e01b600052603260045260246000fd5b60200260200101518a858151811061090f57634e487b7160e01b600052603260045260246000fd5b60200260200101516117d1565b611878565b91508061092d81612633565b915050610831565b5061096c81856080015160008151811061095f57634e487b7160e01b600052603260045260246000fd5b6020026020010151611878565b90506109a261097e866000015161191b565b8660200151866000015187602001518589604001518b604001518b606001516119bc565b6109b1576001925050506109b8565b6000925050505b9392505050565b6109c7612040565b6040805180820182527f2d4d9aa7e302d9df41749d5507949d05dbea33fbb16c643b22f599a2be6df2e281527f14bedd503c37ceb061d8ec60209fe345ce89830a19230301f076caff004d19266020808301919091529083528151608080820184527f0967032fcbf776d1afc985f88877f182d38480a653f2decaa9794cbc3bf3060c8285019081527f0e187847ad4c798374d0d6732bf501847dd68bc0e071241e0213bc7fc13db7ab606080850191909152908352845180860186527f304cfbd1e08a704a99f5e847d93f8c3caafddec46b7a0d379da69a4d112346a781527f1739c1b1a457a8c7313123d24d2f9192f896b7c63eea05a9d57f06547ad0cec8818601528385015285840192909252835180820185527f198e9393920d483a7260bfb731fb5d25f1aa493335a9e71297e485b7aef312c28186019081527f1800deef121f1e76426a00665e5c4479674322d4f75edadd46debd5cd992f6ed828501528152845180860186527f090689d0585ff075ec9e99ad690c3395bc4b313370b38ef355acdadcd122975b81527f12c85ea5db8c6deb4aab71808dcb408fe3d1e7690c43d37b4ce6cc0166fa7daa818601528185015285850152835190810184527f187dfd92e719cd335fec9868d596e847c0a6a9c3ce8fb650fd7241df14dbcdd68185019081527f0597134ad9f10975e7f84d2cef6b5fdd0d0db6a7c09392522406567ac086d316828401528152835180850185527f10e7fdf5ad93d2ce02e82a0f4bfcf7eb249faa09b8b20cb153815bd83265e7f381527f2693890a80919bfce04dd8182a121053eaa1404a7b97116318226710512700588185015281840152908401528151600f8082526102008201909352919082015b6040805180820190915260008082526020820152815260200190600190039081610c4357505060808201908152604080518082019091527f01d8fa164ae8fac0590611216a236c4856aabf8857d9983fa603b386a6a1d91981527f0bce82414b6ee142329d5b50d0a5b81ade12795f76094189fa3b24456e2a41df602082015290518051600090610ce457634e487b7160e01b600052603260045260246000fd5b602002602001018190525060405180604001604052807f098168d4be60f7333125fd8bcd8fc4dde678e2316419c9174505b0034d299b3581526020017f01bff405c27312ae88c14a190d418cf9f6eba86712cf7580ce3b77df8de020048152508160800151600181518110610d6957634e487b7160e01b600052603260045260246000fd5b602002602001018190525060405180604001604052807f149c41e982dd1115602147400f3c1af5de377b046040872e78afd9a8fcf4740481526020017f266821fff9a919d6267182df9da7bfd2ff4bef1cc52924048be1b11ae1e24a5c8152508160800151600281518110610dee57634e487b7160e01b600052603260045260246000fd5b602002602001018190525060405180604001604052807f0a4b9ef09ba26cfa471884e449dfc62658e2469535d51125dceb315bd72ed16181526020017f1dc551829a5cab5e418b22f55cbee031678e959391fdce37b4d6058b3525e4768152508160800151600381518110610e7357634e487b7160e01b600052603260045260246000fd5b602002602001018190525060405180604001604052807f240135c36e7b7dd3911aec763ac83c9bdd75c11d5ed32ee3a0327506a1ed928381526020017f20964fdb692f67814e5108c591444d5bfda5e65020c15202d8c615f48c0653cb8152508160800151600481518110610ef857634e487b7160e01b600052603260045260246000fd5b602002602001018190525060405180604001604052807f01c2fe37999f39d97581577cba5532f2804cabf0297eb13db09a214bde314a0281526020017f2796e1512ba965f3b8c4299c5dfa3b9505ffdfc8d6ca4cc53775ece1ef63b4638152508160800151600581518110610f7d57634e487b7160e01b600052603260045260246000fd5b602002602001018190525060405180604001604052807f2cd2cdaf323e166f29d118acb15e69fad658a6ccfea0599e0b6e17543aebc6ff81526020017f1b6cd7fd780e8cd1dfcc407f741eec7a6014f4a764e5aa49c3e7e042db9b3010815250816080015160068151811061100257634e487b7160e01b600052603260045260246000fd5b602002602001018190525060405180604001604052807f2906995bd442b08516017af4fd80ab36f57263335583552ef88c6e6366c021a281526020017f06049f34e78f3a271abb0da12cf31580c69b7d6d15f4feeea6f3da85db2d708f815250816080015160078151811061108757634e487b7160e01b600052603260045260246000fd5b602002602001018190525060405180604001604052807f1db8447319407480deda465043f68d30b970c543e5a2c4f82241fb974660d82b81526020017f2c4163776a7448085f8e0425dedbc8c7806447842a7b845c687acae3f7ef3776815250816080015160088151811061110c57634e487b7160e01b600052603260045260246000fd5b602002602001018190525060405180604001604052807f1af661bd94eb8ab21d0bc9be8e72d4beaf1b26cac2daec0df0401052ce8972be81526020017f0f6ff1a8028b1554008199dcab9e1ed9c6fa7c7b0f71ee4fbf7204aa5c6c1262815250816080015160098151811061119157634e487b7160e01b600052603260045260246000fd5b602002602001018190525060405180604001604052807f0ff08f9b7ff175f1396d601a9c572106aa8a6f18ac50537c64cebd3f1ef7489d81526020017f1424f50e40cde8161296bda59697d1a42079b785b1021a87f1fcd0f1e756c9a18152508160800151600a8151811061121657634e487b7160e01b600052603260045260246000fd5b602002602001018190525060405180604001604052807f17199063a21f44856831e79632c4d423f792b278c865e5a6b4dbd34d2237594281526020017f1ed8cf799c14106bb30c1a4425e1d98d900809249c03c49e25cf07c4f42e67998152508160800151600b8151811061129b57634e487b7160e01b600052603260045260246000fd5b602002602001018190525060405180604001604052807f11666223b6ddb061489f9221c0e683648dd4c3f52410696ab38d5b551c97f40681526020017f10908e18ecd7815882d4e09cbebb63f2ea63a608c59bc13f41d094f6b081bcac8152508160800151600c8151811061132057634e487b7160e01b600052603260045260246000fd5b602002602001018190525060405180604001604052807f03ff773285459688479609d60d85ccc1aa55190d512f7521ccc97e65b20be90781526020017f10d49746e7bd2302b3b9fff31d976b470838b04182950ba7619ae19d2027ee1d8152508160800151600d815181106113a557634e487b7160e01b600052603260045260246000fd5b602002602001018190525060405180604001604052807f109b92e1c53fbf243a62687861867ec0d720b9e8547b6c429ce1799bcf2cde9481526020017f286bad3fedb4bb708adeee05a74f5fe48d670fa0a5ede9bc91454f263c43a3068152508160800151600e8151811061078257634e487b7160e01b600052603260045260246000fd5b611432612040565b6040805180820182527f2d4d9aa7e302d9df41749d5507949d05dbea33fbb16c643b22f599a2be6df2e281527f14bedd503c37ceb061d8ec60209fe345ce89830a19230301f076caff004d19266020808301919091529083528151608080820184527f0967032fcbf776d1afc985f88877f182d38480a653f2decaa9794cbc3bf3060c8285019081527f0e187847ad4c798374d0d6732bf501847dd68bc0e071241e0213bc7fc13db7ab606080850191909152908352845180860186527f304cfbd1e08a704a99f5e847d93f8c3caafddec46b7a0d379da69a4d112346a781527f1739c1b1a457a8c7313123d24d2f9192f896b7c63eea05a9d57f06547ad0cec8818601528385015285840192909252835180820185527f198e9393920d483a7260bfb731fb5d25f1aa493335a9e71297e485b7aef312c28186019081527f1800deef121f1e76426a00665e5c4479674322d4f75edadd46debd5cd992f6ed828501528152845180860186527f090689d0585ff075ec9e99ad690c3395bc4b313370b38ef355acdadcd122975b81527f12c85ea5db8c6deb4aab71808dcb408fe3d1e7690c43d37b4ce6cc0166fa7daa818601528185015285850152835190810184527f187dfd92e719cd335fec9868d596e847c0a6a9c3ce8fb650fd7241df14dbcdd68185019081527f0597134ad9f10975e7f84d2cef6b5fdd0d0db6a7c09392522406567ac086d316828401528152835180850185527f10e7fdf5ad93d2ce02e82a0f4bfcf7eb249faa09b8b20cb153815bd83265e7f381527f2693890a80919bfce04dd8182a121053eaa1404a7b9711631822671051270058818501528184015281850152825160028082529181019093529082015b60408051808201909152600080825260208201528152602001906001900390816116ab57505060808201908152604080518082019091527f25616db27b9873d8f3fdd051932e08146949279dc3205731d1a09ae2fab0238181527f15c92472d04fb577f0fb688cd0624e23b68e30606a25e6d0c52ad34816356edf60208201529051805160009061174c57634e487b7160e01b600052603260045260246000fd5b602002602001018190525060405180604001604052807f287019cfe177c0ab24d545d4e94f63de335a3c68d1578950a4242313d54efb0881526020017f1ac36beaef8f962013563f1600f12b12e0fdbd0397aabf63229f19e2624246f9815250816080015160018151811061078257634e487b7160e01b600052603260045260246000fd5b60408051808201909152600080825260208201526117ed612091565b835181526020808501519082015260408101839052600060608360808460076107d05a03fa905080801561182057611822565bfe5b50806118705760405162461bcd60e51b815260206004820152601260248201527f70616972696e672d6d756c2d6661696c656400000000000000000000000000006044820152606401610811565b505092915050565b60408051808201909152600080825260208201526118946120af565b8351815260208085015181830152835160408301528301516060808301919091526000908360c08460066107d05a03fa90508080156118205750806118705760405162461bcd60e51b815260206004820152601260248201527f70616972696e672d6164642d6661696c656400000000000000000000000000006044820152606401610811565b604080518082019091526000808252602082015281517f30644e72e131a029b85045b68181585d97816a916871ca8d3c208c16d87cfd479015801561196257506020830151155b1561198257505060408051808201909152600080825260208201526119b7565b6040518060400160405280846000015181526020018285602001516119a7919061264e565b6119b1908461261c565b90529150505b919050565b60408051600480825260a08201909252600091829190816020015b60408051808201909152600080825260208201528152602001906001900390816119d757505060408051600480825260a0820190925291925060009190602082015b611a216120cd565b815260200190600190039081611a195790505090508a82600081518110611a5857634e487b7160e01b600052603260045260246000fd5b60200260200101819052508882600181518110611a8557634e487b7160e01b600052603260045260246000fd5b60200260200101819052508682600281518110611ab257634e487b7160e01b600052603260045260246000fd5b60200260200101819052508482600381518110611adf57634e487b7160e01b600052603260045260246000fd5b60200260200101819052508981600081518110611b0c57634e487b7160e01b600052603260045260246000fd5b60200260200101819052508781600181518110611b3957634e487b7160e01b600052603260045260246000fd5b60200260200101819052508581600281518110611b6657634e487b7160e01b600052603260045260246000fd5b60200260200101819052508381600381518110611b9357634e487b7160e01b600052603260045260246000fd5b6020026020010181905250611ba88282611bb7565b9b9a5050505050505050505050565b60008151835114611c0a5760405162461bcd60e51b815260206004820152601660248201527f70616972696e672d6c656e677468732d6661696c6564000000000000000000006044820152606401610811565b82516000611c198260066125fd565b905060008167ffffffffffffffff811115611c4457634e487b7160e01b600052604160045260246000fd5b604051908082528060200260200182016040528015611c6d578160200160208202803683370190505b50905060005b83811015611f6c57868181518110611c9b57634e487b7160e01b600052603260045260246000fd5b60200260200101516000015182826006611cb591906125fd565b611cc09060006125e5565b81518110611cde57634e487b7160e01b600052603260045260246000fd5b602002602001018181525050868181518110611d0a57634e487b7160e01b600052603260045260246000fd5b60200260200101516020015182826006611d2491906125fd565b611d2f9060016125e5565b81518110611d4d57634e487b7160e01b600052603260045260246000fd5b602002602001018181525050858181518110611d7957634e487b7160e01b600052603260045260246000fd5b6020908102919091010151515182611d928360066125fd565b611d9d9060026125e5565b81518110611dbb57634e487b7160e01b600052603260045260246000fd5b602002602001018181525050858181518110611de757634e487b7160e01b600052603260045260246000fd5b60209081029190910181015151015182611e028360066125fd565b611e0d9060036125e5565b81518110611e2b57634e487b7160e01b600052603260045260246000fd5b602002602001018181525050858181518110611e5757634e487b7160e01b600052603260045260246000fd5b602002602001015160200151600060028110611e8357634e487b7160e01b600052603260045260246000fd5b602002015182611e948360066125fd565b611e9f9060046125e5565b81518110611ebd57634e487b7160e01b600052603260045260246000fd5b602002602001018181525050858181518110611ee957634e487b7160e01b600052603260045260246000fd5b602002602001015160200151600160028110611f1557634e487b7160e01b600052603260045260246000fd5b602002015182611f268360066125fd565b611f319060056125e5565b81518110611f4f57634e487b7160e01b600052603260045260246000fd5b602090810291909101015280611f6481612633565b915050611c73565b50611f756120ed565b6000602082602086026020860160086107d05a03fa9050808015611820575080611fe15760405162461bcd60e51b815260206004820152601560248201527f70616972696e672d6f70636f64652d6661696c656400000000000000000000006044820152606401610811565b505115159695505050505050565b6040805160a0810190915260006060820181815260808301919091528152602081016120196120cd565b815260200161203b604051806040016040528060008152602001600081525090565b905290565b6040805160e08101909152600060a0820181815260c083019190915281526020810161206a6120cd565b81526020016120776120cd565b81526020016120846120cd565b8152602001606081525090565b60405180606001604052806003906020820280368337509192915050565b60405180608001604052806004906020820280368337509192915050565b60405180604001604052806120e061210b565b815260200161203b61210b565b60405180602001604052806001906020820280368337509192915050565b60405180604001604052806002906020820280368337509192915050565b600067ffffffffffffffff83111561214357612143612684565b8260051b61215081612590565b9150818386838601111561216357600080fd5b600092505b8583101561218757803582526001929092019160209182019101612168565b5050509392505050565b600082601f8301126121a1578081fd5b60406121ac81612590565b8084866080870111156121bd578485fd5b845b60028110156121e6576121d288836121f2565b8452602090930192908401906001016121bf565b50909695505050505050565b600082601f830112612202578081fd5b6109b883600284612129565b60006040828403121561221f578081fd5b6122296040612590565b9050813581526020820135602082015292915050565b600060808284031215612250578081fd5b61225a6040612590565b905061226683836121f2565b815261227583604084016121f2565b602082015292915050565b60006101e08284031215612292578081fd5b61229c60a0612590565b90506122a8838361220e565b815260406122b88482850161223f565b602081818501526122cc8660c0870161223f565b838501526122de86610140870161223f565b60608501526101c0850135915067ffffffffffffffff82111561230057600080fd5b818501915085601f83011261231457600080fd5b8135612327612322826125c1565b612590565b80828252838201915083850189858560061b880101111561234757600080fd5b600095505b838610156123725761235e8a8261220e565b83526001959095019491840191860161234c565b50608087015250939695505050505050565b6000806000806102c0858703121561239a578384fd5b6123a486866121f2565b93506123b38660408701612191565b92506123c28660c087016121f2565b91508561011f8601126123d3578081fd5b6123e386600e6101008801612129565b905092959194509250565b6000806000806101208587031215612404578384fd5b61240e86866121f2565b935061241d8660408701612191565b925061242c8660c087016121f2565b91508561011f86011261243d578081fd5b6123e38660016101008801612129565b6000806000806101408587031215612463578182fd5b61246d86866121f2565b935061247c8660408701612191565b925061248b8660c087016121f2565b91506123e38661010087016121f2565b600080600080600061014086880312156124b3578283fd5b6124bd87876121f2565b94506124cc8760408801612191565b93506124db8760c088016121f2565b925061010086013567ffffffffffffffff808211156124f8578283fd5b818801915088601f83011261250b578283fd5b8135602061251b612322836125c1565b8083825282820191508286018d848660051b890101111561253a578788fd5b8796505b8487101561255c57803583526001969096019591830191830161253e565b509650505050610120880135915080821115612576578283fd5b5061258388828901612280565b9150509295509295909350565b604051601f8201601f1916810167ffffffffffffffff811182821017156125b9576125b9612684565b604052919050565b600067ffffffffffffffff8211156125db576125db612684565b5060051b60200190565b600082198211156125f8576125f861266e565b500190565b60008160001904831182151516156126175761261761266e565b500290565b60008282101561262e5761262e61266e565b500390565b60006000198214156126475761264761266e565b5060010190565b60008261266957634e487b7160e01b81526012600452602481fd5b500690565b634e487b7160e01b600052601160045260246000fd5b634e487b7160e01b600052604160045260246000fdfea164736f6c6343000803000a",
          "opcodes": "PUSH2 0x26A7 PUSH2 0x3A PUSH1 0xB DUP3 DUP3 DUP3 CODECOPY DUP1 MLOAD PUSH1 0x0 BYTE PUSH1 0x73 EQ PUSH2 0x2D JUMPI PUSH4 0x4E487B71 PUSH1 0xE0 SHL PUSH1 0x0 MSTORE PUSH1 0x0 PUSH1 0x4 MSTORE PUSH1 0x24 PUSH1 0x0 REVERT JUMPDEST ADDRESS PUSH1 0x0 MSTORE PUSH1 0x73 DUP2 MSTORE8 DUP3 DUP2 RETURN INVALID PUSH20 0x0 ADDRESS EQ PUSH1 0x80 PUSH1 0x40 MSTORE PUSH1 0x4 CALLDATASIZE LT PUSH2 0x56 JUMPI PUSH1 0x0 CALLDATALOAD PUSH1 0xE0 SHR DUP1 PUSH4 0x2159CF01 EQ PUSH2 0x5B JUMPI DUP1 PUSH4 0x57C25080 EQ PUSH2 0x82 JUMPI DUP1 PUSH4 0x5C510454 EQ PUSH2 0x95 JUMPI DUP1 PUSH4 0x6BAED4D0 EQ PUSH2 0xA8 JUMPI JUMPDEST PUSH1 0x0 DUP1 REVERT JUMPDEST PUSH2 0x6E PUSH2 0x69 CALLDATASIZE PUSH1 0x4 PUSH2 0x244D JUMP JUMPDEST PUSH2 0xBB JUMP JUMPDEST PUSH1 0x40 MLOAD SWAP1 ISZERO ISZERO DUP2 MSTORE PUSH1 0x20 ADD PUSH1 0x40 MLOAD DUP1 SWAP2 SUB SWAP1 RETURN JUMPDEST PUSH2 0x6E PUSH2 0x90 CALLDATASIZE PUSH1 0x4 PUSH2 0x249B JUMP JUMPDEST PUSH2 0x168 JUMP JUMPDEST PUSH2 0x6E PUSH2 0xA3 CALLDATASIZE PUSH1 0x4 PUSH2 0x2384 JUMP JUMPDEST PUSH2 0x20A JUMP JUMPDEST PUSH2 0x6E PUSH2 0xB6 CALLDATASIZE PUSH1 0x4 PUSH2 0x23EE JUMP JUMPDEST PUSH2 0x2B0 JUMP JUMPDEST PUSH1 0x40 DUP1 MLOAD PUSH1 0x2 DUP1 DUP3 MSTORE PUSH1 0x60 DUP3 ADD DUP4 MSTORE PUSH1 0x0 SWAP3 DUP4 SWAP3 SWAP2 SWAP1 PUSH1 0x20 DUP4 ADD SWAP1 DUP1 CALLDATASIZE DUP4 CALLDATACOPY ADD SWAP1 POP POP SWAP1 POP PUSH1 0x0 JUMPDEST PUSH1 0x2 DUP2 LT ISZERO PUSH2 0x14E JUMPI DUP4 DUP2 PUSH1 0x2 DUP2 LT PUSH2 0x10C JUMPI PUSH4 0x4E487B71 PUSH1 0xE0 SHL PUSH1 0x0 MSTORE PUSH1 0x32 PUSH1 0x4 MSTORE PUSH1 0x24 PUSH1 0x0 REVERT JUMPDEST PUSH1 0x20 MUL ADD MLOAD DUP3 DUP3 DUP2 MLOAD DUP2 LT PUSH2 0x131 JUMPI PUSH4 0x4E487B71 PUSH1 0xE0 SHL PUSH1 0x0 MSTORE PUSH1 0x32 PUSH1 0x4 MSTORE PUSH1 0x24 PUSH1 0x0 REVERT JUMPDEST PUSH1 0x20 SWAP1 DUP2 MUL SWAP2 SWAP1 SWAP2 ADD ADD MSTORE DUP1 PUSH2 0x146 DUP2 PUSH2 0x2633 JUMP JUMPDEST SWAP2 POP POP PUSH2 0xE3 JUMP JUMPDEST POP PUSH2 0x15E DUP7 DUP7 DUP7 DUP5 PUSH2 0x90 PUSH2 0x353 JUMP JUMPDEST SWAP7 SWAP6 POP POP POP POP POP POP JUMP JUMPDEST PUSH1 0x0 PUSH2 0x172 PUSH2 0x1FEF JUMP JUMPDEST PUSH1 0x40 DUP1 MLOAD DUP1 DUP3 ADD DUP3 MSTORE DUP9 MLOAD DUP2 MSTORE PUSH1 0x20 DUP1 DUP11 ADD MLOAD DUP2 DUP4 ADD MSTORE SWAP1 DUP4 MSTORE DUP2 MLOAD PUSH1 0x80 DUP2 ADD DUP4 MSTORE DUP9 MLOAD MLOAD DUP2 DUP5 ADD SWAP1 DUP2 MSTORE DUP10 MLOAD DUP4 ADD MLOAD PUSH1 0x60 DUP4 ADD MSTORE DUP2 MSTORE DUP3 MLOAD DUP1 DUP5 ADD DUP5 MSTORE DUP10 DUP4 ADD DUP1 MLOAD MLOAD DUP3 MSTORE MLOAD DUP4 ADD MLOAD DUP2 DUP5 ADD MSTORE DUP2 DUP4 ADD MSTORE DUP4 DUP3 ADD MSTORE DUP2 MLOAD DUP1 DUP4 ADD DUP4 MSTORE DUP8 MLOAD DUP2 MSTORE DUP8 DUP3 ADD MLOAD SWAP2 DUP2 ADD SWAP2 SWAP1 SWAP2 MSTORE SWAP1 DUP3 ADD MSTORE PUSH2 0x1ED DUP5 DUP3 DUP6 PUSH2 0x790 JUMP JUMPDEST PUSH2 0x1FB JUMPI PUSH1 0x1 SWAP2 POP POP PUSH2 0x201 JUMP JUMPDEST PUSH1 0x0 SWAP2 POP POP JUMPDEST SWAP6 SWAP5 POP POP POP POP POP JUMP JUMPDEST PUSH1 0x40 DUP1 MLOAD PUSH1 0xE DUP1 DUP3 MSTORE PUSH2 0x1E0 DUP3 ADD SWAP1 SWAP3 MSTORE PUSH1 0x0 SWAP2 DUP3 SWAP2 SWAP1 PUSH1 0x20 DUP3 ADD PUSH2 0x1C0 DUP1 CALLDATASIZE DUP4 CALLDATACOPY ADD SWAP1 POP POP SWAP1 POP PUSH1 0x0 JUMPDEST PUSH1 0xE DUP2 LT ISZERO PUSH2 0x2A0 JUMPI DUP4 DUP2 PUSH1 0xE DUP2 LT PUSH2 0x25E JUMPI PUSH4 0x4E487B71 PUSH1 0xE0 SHL PUSH1 0x0 MSTORE PUSH1 0x32 PUSH1 0x4 MSTORE PUSH1 0x24 PUSH1 0x0 REVERT JUMPDEST PUSH1 0x20 MUL ADD MLOAD DUP3 DUP3 DUP2 MLOAD DUP2 LT PUSH2 0x283 JUMPI PUSH4 0x4E487B71 PUSH1 0xE0 SHL PUSH1 0x0 MSTORE PUSH1 0x32 PUSH1 0x4 MSTORE PUSH1 0x24 PUSH1 0x0 REVERT JUMPDEST PUSH1 0x20 SWAP1 DUP2 MUL SWAP2 SWAP1 SWAP2 ADD ADD MSTORE DUP1 PUSH2 0x298 DUP2 PUSH2 0x2633 JUMP JUMPDEST SWAP2 POP POP PUSH2 0x235 JUMP JUMPDEST POP PUSH2 0x15E DUP7 DUP7 DUP7 DUP5 PUSH2 0x90 PUSH2 0x9BF JUMP JUMPDEST PUSH1 0x40 DUP1 MLOAD PUSH1 0x1 DUP1 DUP3 MSTORE DUP2 DUP4 ADD SWAP1 SWAP3 MSTORE PUSH1 0x0 SWAP2 DUP3 SWAP2 SWAP1 PUSH1 0x20 DUP1 DUP4 ADD SWAP1 DUP1 CALLDATASIZE DUP4 CALLDATACOPY ADD SWAP1 POP POP SWAP1 POP PUSH1 0x0 JUMPDEST PUSH1 0x1 DUP2 LT ISZERO PUSH2 0x343 JUMPI DUP4 DUP2 PUSH1 0x1 DUP2 LT PUSH2 0x301 JUMPI PUSH4 0x4E487B71 PUSH1 0xE0 SHL PUSH1 0x0 MSTORE PUSH1 0x32 PUSH1 0x4 MSTORE PUSH1 0x24 PUSH1 0x0 REVERT JUMPDEST PUSH1 0x20 MUL ADD MLOAD DUP3 DUP3 DUP2 MLOAD DUP2 LT PUSH2 0x326 JUMPI PUSH4 0x4E487B71 PUSH1 0xE0 SHL PUSH1 0x0 MSTORE PUSH1 0x32 PUSH1 0x4 MSTORE PUSH1 0x24 PUSH1 0x0 REVERT JUMPDEST PUSH1 0x20 SWAP1 DUP2 MUL SWAP2 SWAP1 SWAP2 ADD ADD MSTORE DUP1 PUSH2 0x33B DUP2 PUSH2 0x2633 JUMP JUMPDEST SWAP2 POP POP PUSH2 0x2D8 JUMP JUMPDEST POP PUSH2 0x15E DUP7 DUP7 DUP7 DUP5 PUSH2 0x90 PUSH2 0x142A JUMP JUMPDEST PUSH2 0x35B PUSH2 0x2040 JUMP JUMPDEST PUSH1 0x40 DUP1 MLOAD DUP1 DUP3 ADD DUP3 MSTORE PUSH32 0x2B6D4650A4A9984DD255A254717CE985D4A2625229FA63BA1268F0C8F97AF9EB DUP2 MSTORE PUSH32 0x22F3991D50B793A3660FA6AD8CE156AC3EB478B77E8B0B74FFDF4BE654C5610D PUSH1 0x20 DUP1 DUP4 ADD SWAP2 SWAP1 SWAP2 MSTORE SWAP1 DUP4 MSTORE DUP2 MLOAD PUSH1 0x80 DUP1 DUP3 ADD DUP5 MSTORE PUSH32 0xE27D2438600B41133385B48FC242556E81B44AB4D0EE9A3376DA7315876C2BA DUP3 DUP6 ADD SWAP1 DUP2 MSTORE PUSH32 0x74F8374C9DDAE90032FB99308AF80E087027DAC3EC8F203BD7EE80D8B54BB44 PUSH1 0x60 DUP1 DUP6 ADD SWAP2 SWAP1 SWAP2 MSTORE SWAP1 DUP4 MSTORE DUP5 MLOAD DUP1 DUP7 ADD DUP7 MSTORE PUSH32 0x218374FDB8B41D2B36CDF8B50C9A925631381F50FA6B9AD5D281A172AD212931 DUP2 MSTORE PUSH32 0xB04B6269C1B07424F6A6985DFAB0CEFD704A35CAE92E15048F533F4C5DA412B DUP2 DUP7 ADD MSTORE DUP4 DUP6 ADD MSTORE DUP6 DUP5 ADD SWAP3 SWAP1 SWAP3 MSTORE DUP4 MLOAD DUP1 DUP3 ADD DUP6 MSTORE PUSH32 0x198E9393920D483A7260BFB731FB5D25F1AA493335A9E71297E485B7AEF312C2 DUP2 DUP7 ADD SWAP1 DUP2 MSTORE PUSH32 0x1800DEEF121F1E76426A00665E5C4479674322D4F75EDADD46DEBD5CD992F6ED DUP3 DUP6 ADD MSTORE DUP2 MSTORE DUP5 MLOAD DUP1 DUP7 ADD DUP7 MSTORE PUSH32 0x90689D0585FF075EC9E99AD690C3395BC4B313370B38EF355ACDADCD122975B DUP2 MSTORE PUSH32 0x12C85EA5DB8C6DEB4AAB71808DCB408FE3D1E7690C43D37B4CE6CC0166FA7DAA DUP2 DUP7 ADD MSTORE DUP2 DUP6 ADD MSTORE DUP6 DUP6 ADD MSTORE DUP4 MLOAD DUP1 DUP3 ADD DUP6 MSTORE PUSH32 0x187DFD92E719CD335FEC9868D596E847C0A6A9C3CE8FB650FD7241DF14DBCDD6 DUP2 DUP7 ADD SWAP1 DUP2 MSTORE PUSH32 0x597134AD9F10975E7F84D2CEF6B5FDD0D0DB6A7C09392522406567AC086D316 DUP3 DUP6 ADD MSTORE DUP2 MSTORE DUP5 MLOAD DUP1 DUP7 ADD DUP7 MSTORE PUSH32 0x10E7FDF5AD93D2CE02E82A0F4BFCF7EB249FAA09B8B20CB153815BD83265E7F3 DUP2 MSTORE PUSH32 0x2693890A80919BFCE04DD8182A121053EAA1404A7B9711631822671051270058 DUP2 DUP7 ADD MSTORE DUP2 DUP6 ADD MSTORE SWAP2 DUP6 ADD SWAP2 SWAP1 SWAP2 MSTORE DUP3 MLOAD PUSH1 0x3 DUP1 DUP3 MSTORE SWAP2 DUP2 ADD SWAP1 SWAP4 MSTORE SWAP1 DUP3 ADD JUMPDEST PUSH1 0x40 DUP1 MLOAD DUP1 DUP3 ADD SWAP1 SWAP2 MSTORE PUSH1 0x0 DUP1 DUP3 MSTORE PUSH1 0x20 DUP3 ADD MSTORE DUP2 MSTORE PUSH1 0x20 ADD SWAP1 PUSH1 0x1 SWAP1 SUB SWAP1 DUP2 PUSH2 0x5D7 JUMPI POP POP PUSH1 0x80 DUP3 ADD SWAP1 DUP2 MSTORE PUSH1 0x40 DUP1 MLOAD DUP1 DUP3 ADD SWAP1 SWAP2 MSTORE PUSH32 0x25C8A85F040C40225542D2AC42FFB36DF95B4A746CA92A0CAB1E2D7D33F11F16 DUP2 MSTORE PUSH32 0x214F0AF6FC01D65EDC5CAB92E8A04201BC8C0F4A387719B50EE061D1FE3D1311 PUSH1 0x20 DUP3 ADD MSTORE SWAP1 MLOAD DUP1 MLOAD PUSH1 0x0 SWAP1 PUSH2 0x678 JUMPI PUSH4 0x4E487B71 PUSH1 0xE0 SHL PUSH1 0x0 MSTORE PUSH1 0x32 PUSH1 0x4 MSTORE PUSH1 0x24 PUSH1 0x0 REVERT JUMPDEST PUSH1 0x20 MUL PUSH1 0x20 ADD ADD DUP2 SWAP1 MSTORE POP PUSH1 0x40 MLOAD DUP1 PUSH1 0x40 ADD PUSH1 0x40 MSTORE DUP1 PUSH32 0x1757DE578A6826AE258150B6EFB5D1494DFA902DAFC276F4794DDFC59B70BADB DUP2 MSTORE PUSH1 0x20 ADD PUSH32 0x142D427500EC0DA4F09A85B12DEFC4D705B824D10B586147728250273845054 DUP2 MSTORE POP DUP2 PUSH1 0x80 ADD MLOAD PUSH1 0x1 DUP2 MLOAD DUP2 LT PUSH2 0x6FD JUMPI PUSH4 0x4E487B71 PUSH1 0xE0 SHL PUSH1 0x0 MSTORE PUSH1 0x32 PUSH1 0x4 MSTORE PUSH1 0x24 PUSH1 0x0 REVERT JUMPDEST PUSH1 0x20 MUL PUSH1 0x20 ADD ADD DUP2 SWAP1 MSTORE POP PUSH1 0x40 MLOAD DUP1 PUSH1 0x40 ADD PUSH1 0x40 MSTORE DUP1 PUSH32 0x229C09D2F02C5E89F4C87AC086DF29DFFDCB959F4904CF13DC8076ED39F6484D DUP2 MSTORE PUSH1 0x20 ADD PUSH32 0x274F1CABE77E4B1422A0E3636371DD94503F41BAB67066CC3FA63E3932038584 DUP2 MSTORE POP DUP2 PUSH1 0x80 ADD MLOAD PUSH1 0x2 DUP2 MLOAD DUP2 LT PUSH2 0x782 JUMPI PUSH4 0x4E487B71 PUSH1 0xE0 SHL PUSH1 0x0 MSTORE PUSH1 0x32 PUSH1 0x4 MSTORE PUSH1 0x24 PUSH1 0x0 REVERT JUMPDEST PUSH1 0x20 MUL PUSH1 0x20 ADD ADD DUP2 SWAP1 MSTORE POP SWAP1 JUMP JUMPDEST PUSH1 0x80 DUP2 ADD MLOAD MLOAD DUP4 MLOAD PUSH1 0x0 SWAP2 PUSH32 0x30644E72E131A029B85045B68181585D2833E84879B9709143E1F593F0000001 SWAP2 PUSH2 0x7C8 SWAP1 PUSH1 0x1 PUSH2 0x25E5 JUMP JUMPDEST EQ PUSH2 0x81A JUMPI PUSH1 0x40 MLOAD PUSH3 0x461BCD PUSH1 0xE5 SHL DUP2 MSTORE PUSH1 0x20 PUSH1 0x4 DUP3 ADD MSTORE PUSH1 0x12 PUSH1 0x24 DUP3 ADD MSTORE PUSH32 0x76657269666965722D6261642D696E7075740000000000000000000000000000 PUSH1 0x44 DUP3 ADD MSTORE PUSH1 0x64 ADD JUMPDEST PUSH1 0x40 MLOAD DUP1 SWAP2 SUB SWAP1 REVERT JUMPDEST PUSH1 0x40 DUP1 MLOAD DUP1 DUP3 ADD SWAP1 SWAP2 MSTORE PUSH1 0x0 DUP1 DUP3 MSTORE PUSH1 0x20 DUP3 ADD DUP2 SWAP1 MSTORE JUMPDEST DUP7 MLOAD DUP2 LT ISZERO PUSH2 0x935 JUMPI DUP3 DUP8 DUP3 DUP2 MLOAD DUP2 LT PUSH2 0x85B JUMPI PUSH4 0x4E487B71 PUSH1 0xE0 SHL PUSH1 0x0 MSTORE PUSH1 0x32 PUSH1 0x4 MSTORE PUSH1 0x24 PUSH1 0x0 REVERT JUMPDEST PUSH1 0x20 MUL PUSH1 0x20 ADD ADD MLOAD LT PUSH2 0x8B0 JUMPI PUSH1 0x40 MLOAD PUSH3 0x461BCD PUSH1 0xE5 SHL DUP2 MSTORE PUSH1 0x20 PUSH1 0x4 DUP3 ADD MSTORE PUSH1 0x1F PUSH1 0x24 DUP3 ADD MSTORE PUSH32 0x76657269666965722D6774652D736E61726B2D7363616C61722D6669656C6400 PUSH1 0x44 DUP3 ADD MSTORE PUSH1 0x64 ADD PUSH2 0x811 JUMP JUMPDEST PUSH2 0x921 DUP3 PUSH2 0x91C DUP8 PUSH1 0x80 ADD MLOAD DUP5 PUSH1 0x1 PUSH2 0x8C9 SWAP2 SWAP1 PUSH2 0x25E5 JUMP JUMPDEST DUP2 MLOAD DUP2 LT PUSH2 0x8E7 JUMPI PUSH4 0x4E487B71 PUSH1 0xE0 SHL PUSH1 0x0 MSTORE PUSH1 0x32 PUSH1 0x4 MSTORE PUSH1 0x24 PUSH1 0x0 REVERT JUMPDEST PUSH1 0x20 MUL PUSH1 0x20 ADD ADD MLOAD DUP11 DUP6 DUP2 MLOAD DUP2 LT PUSH2 0x90F JUMPI PUSH4 0x4E487B71 PUSH1 0xE0 SHL PUSH1 0x0 MSTORE PUSH1 0x32 PUSH1 0x4 MSTORE PUSH1 0x24 PUSH1 0x0 REVERT JUMPDEST PUSH1 0x20 MUL PUSH1 0x20 ADD ADD MLOAD PUSH2 0x17D1 JUMP JUMPDEST PUSH2 0x1878 JUMP JUMPDEST SWAP2 POP DUP1 PUSH2 0x92D DUP2 PUSH2 0x2633 JUMP JUMPDEST SWAP2 POP POP PUSH2 0x831 JUMP JUMPDEST POP PUSH2 0x96C DUP2 DUP6 PUSH1 0x80 ADD MLOAD PUSH1 0x0 DUP2 MLOAD DUP2 LT PUSH2 0x95F JUMPI PUSH4 0x4E487B71 PUSH1 0xE0 SHL PUSH1 0x0 MSTORE PUSH1 0x32 PUSH1 0x4 MSTORE PUSH1 0x24 PUSH1 0x0 REVERT JUMPDEST PUSH1 0x20 MUL PUSH1 0x20 ADD ADD MLOAD PUSH2 0x1878 JUMP JUMPDEST SWAP1 POP PUSH2 0x9A2 PUSH2 0x97E DUP7 PUSH1 0x0 ADD MLOAD PUSH2 0x191B JUMP JUMPDEST DUP7 PUSH1 0x20 ADD MLOAD DUP7 PUSH1 0x0 ADD MLOAD DUP8 PUSH1 0x20 ADD MLOAD DUP6 DUP10 PUSH1 0x40 ADD MLOAD DUP12 PUSH1 0x40 ADD MLOAD DUP12 PUSH1 0x60 ADD MLOAD PUSH2 0x19BC JUMP JUMPDEST PUSH2 0x9B1 JUMPI PUSH1 0x1 SWAP3 POP POP POP PUSH2 0x9B8 JUMP JUMPDEST PUSH1 0x0 SWAP3 POP POP POP JUMPDEST SWAP4 SWAP3 POP POP POP JUMP JUMPDEST PUSH2 0x9C7 PUSH2 0x2040 JUMP JUMPDEST PUSH1 0x40 DUP1 MLOAD DUP1 DUP3 ADD DUP3 MSTORE PUSH32 0x2D4D9AA7E302D9DF41749D5507949D05DBEA33FBB16C643B22F599A2BE6DF2E2 DUP2 MSTORE PUSH32 0x14BEDD503C37CEB061D8EC60209FE345CE89830A19230301F076CAFF004D1926 PUSH1 0x20 DUP1 DUP4 ADD SWAP2 SWAP1 SWAP2 MSTORE SWAP1 DUP4 MSTORE DUP2 MLOAD PUSH1 0x80 DUP1 DUP3 ADD DUP5 MSTORE PUSH32 0x967032FCBF776D1AFC985F88877F182D38480A653F2DECAA9794CBC3BF3060C DUP3 DUP6 ADD SWAP1 DUP2 MSTORE PUSH32 0xE187847AD4C798374D0D6732BF501847DD68BC0E071241E0213BC7FC13DB7AB PUSH1 0x60 DUP1 DUP6 ADD SWAP2 SWAP1 SWAP2 MSTORE SWAP1 DUP4 MSTORE DUP5 MLOAD DUP1 DUP7 ADD DUP7 MSTORE PUSH32 0x304CFBD1E08A704A99F5E847D93F8C3CAAFDDEC46B7A0D379DA69A4D112346A7 DUP2 MSTORE PUSH32 0x1739C1B1A457A8C7313123D24D2F9192F896B7C63EEA05A9D57F06547AD0CEC8 DUP2 DUP7 ADD MSTORE DUP4 DUP6 ADD MSTORE DUP6 DUP5 ADD SWAP3 SWAP1 SWAP3 MSTORE DUP4 MLOAD DUP1 DUP3 ADD DUP6 MSTORE PUSH32 0x198E9393920D483A7260BFB731FB5D25F1AA493335A9E71297E485B7AEF312C2 DUP2 DUP7 ADD SWAP1 DUP2 MSTORE PUSH32 0x1800DEEF121F1E76426A00665E5C4479674322D4F75EDADD46DEBD5CD992F6ED DUP3 DUP6 ADD MSTORE DUP2 MSTORE DUP5 MLOAD DUP1 DUP7 ADD DUP7 MSTORE PUSH32 0x90689D0585FF075EC9E99AD690C3395BC4B313370B38EF355ACDADCD122975B DUP2 MSTORE PUSH32 0x12C85EA5DB8C6DEB4AAB71808DCB408FE3D1E7690C43D37B4CE6CC0166FA7DAA DUP2 DUP7 ADD MSTORE DUP2 DUP6 ADD MSTORE DUP6 DUP6 ADD MSTORE DUP4 MLOAD SWAP1 DUP2 ADD DUP5 MSTORE PUSH32 0x187DFD92E719CD335FEC9868D596E847C0A6A9C3CE8FB650FD7241DF14DBCDD6 DUP2 DUP6 ADD SWAP1 DUP2 MSTORE PUSH32 0x597134AD9F10975E7F84D2CEF6B5FDD0D0DB6A7C09392522406567AC086D316 DUP3 DUP5 ADD MSTORE DUP2 MSTORE DUP4 MLOAD DUP1 DUP6 ADD DUP6 MSTORE PUSH32 0x10E7FDF5AD93D2CE02E82A0F4BFCF7EB249FAA09B8B20CB153815BD83265E7F3 DUP2 MSTORE PUSH32 0x2693890A80919BFCE04DD8182A121053EAA1404A7B9711631822671051270058 DUP2 DUP6 ADD MSTORE DUP2 DUP5 ADD MSTORE SWAP1 DUP5 ADD MSTORE DUP2 MLOAD PUSH1 0xF DUP1 DUP3 MSTORE PUSH2 0x200 DUP3 ADD SWAP1 SWAP4 MSTORE SWAP2 SWAP1 DUP3 ADD JUMPDEST PUSH1 0x40 DUP1 MLOAD DUP1 DUP3 ADD SWAP1 SWAP2 MSTORE PUSH1 0x0 DUP1 DUP3 MSTORE PUSH1 0x20 DUP3 ADD MSTORE DUP2 MSTORE PUSH1 0x20 ADD SWAP1 PUSH1 0x1 SWAP1 SUB SWAP1 DUP2 PUSH2 0xC43 JUMPI POP POP PUSH1 0x80 DUP3 ADD SWAP1 DUP2 MSTORE PUSH1 0x40 DUP1 MLOAD DUP1 DUP3 ADD SWAP1 SWAP2 MSTORE PUSH32 0x1D8FA164AE8FAC0590611216A236C4856AABF8857D9983FA603B386A6A1D919 DUP2 MSTORE PUSH32 0xBCE82414B6EE142329D5B50D0A5B81ADE12795F76094189FA3B24456E2A41DF PUSH1 0x20 DUP3 ADD MSTORE SWAP1 MLOAD DUP1 MLOAD PUSH1 0x0 SWAP1 PUSH2 0xCE4 JUMPI PUSH4 0x4E487B71 PUSH1 0xE0 SHL PUSH1 0x0 MSTORE PUSH1 0x32 PUSH1 0x4 MSTORE PUSH1 0x24 PUSH1 0x0 REVERT JUMPDEST PUSH1 0x20 MUL PUSH1 0x20 ADD ADD DUP2 SWAP1 MSTORE POP PUSH1 0x40 MLOAD DUP1 PUSH1 0x40 ADD PUSH1 0x40 MSTORE DUP1 PUSH32 0x98168D4BE60F7333125FD8BCD8FC4DDE678E2316419C9174505B0034D299B35 DUP2 MSTORE PUSH1 0x20 ADD PUSH32 0x1BFF405C27312AE88C14A190D418CF9F6EBA86712CF7580CE3B77DF8DE02004 DUP2 MSTORE POP DUP2 PUSH1 0x80 ADD MLOAD PUSH1 0x1 DUP2 MLOAD DUP2 LT PUSH2 0xD69 JUMPI PUSH4 0x4E487B71 PUSH1 0xE0 SHL PUSH1 0x0 MSTORE PUSH1 0x32 PUSH1 0x4 MSTORE PUSH1 0x24 PUSH1 0x0 REVERT JUMPDEST PUSH1 0x20 MUL PUSH1 0x20 ADD ADD DUP2 SWAP1 MSTORE POP PUSH1 0x40 MLOAD DUP1 PUSH1 0x40 ADD PUSH1 0x40 MSTORE DUP1 PUSH32 0x149C41E982DD1115602147400F3C1AF5DE377B046040872E78AFD9A8FCF47404 DUP2 MSTORE PUSH1 0x20 ADD PUSH32 0x266821FFF9A919D6267182DF9DA7BFD2FF4BEF1CC52924048BE1B11AE1E24A5C DUP2 MSTORE POP DUP2 PUSH1 0x80 ADD MLOAD PUSH1 0x2 DUP2 MLOAD DUP2 LT PUSH2 0xDEE JUMPI PUSH4 0x4E487B71 PUSH1 0xE0 SHL PUSH1 0x0 MSTORE PUSH1 0x32 PUSH1 0x4 MSTORE PUSH1 0x24 PUSH1 0x0 REVERT JUMPDEST PUSH1 0x20 MUL PUSH1 0x20 ADD ADD DUP2 SWAP1 MSTORE POP PUSH1 0x40 MLOAD DUP1 PUSH1 0x40 ADD PUSH1 0x40 MSTORE DUP1 PUSH32 0xA4B9EF09BA26CFA471884E449DFC62658E2469535D51125DCEB315BD72ED161 DUP2 MSTORE PUSH1 0x20 ADD PUSH32 0x1DC551829A5CAB5E418B22F55CBEE031678E959391FDCE37B4D6058B3525E476 DUP2 MSTORE POP DUP2 PUSH1 0x80 ADD MLOAD PUSH1 0x3 DUP2 MLOAD DUP2 LT PUSH2 0xE73 JUMPI PUSH4 0x4E487B71 PUSH1 0xE0 SHL PUSH1 0x0 MSTORE PUSH1 0x32 PUSH1 0x4 MSTORE PUSH1 0x24 PUSH1 0x0 REVERT JUMPDEST PUSH1 0x20 MUL PUSH1 0x20 ADD ADD DUP2 SWAP1 MSTORE POP PUSH1 0x40 MLOAD DUP1 PUSH1 0x40 ADD PUSH1 0x40 MSTORE DUP1 PUSH32 0x240135C36E7B7DD3911AEC763AC83C9BDD75C11D5ED32EE3A0327506A1ED9283 DUP2 MSTORE PUSH1 0x20 ADD PUSH32 0x20964FDB692F67814E5108C591444D5BFDA5E65020C15202D8C615F48C0653CB DUP2 MSTORE POP DUP2 PUSH1 0x80 ADD MLOAD PUSH1 0x4 DUP2 MLOAD DUP2 LT PUSH2 0xEF8 JUMPI PUSH4 0x4E487B71 PUSH1 0xE0 SHL PUSH1 0x0 MSTORE PUSH1 0x32 PUSH1 0x4 MSTORE PUSH1 0x24 PUSH1 0x0 REVERT JUMPDEST PUSH1 0x20 MUL PUSH1 0x20 ADD ADD DUP2 SWAP1 MSTORE POP PUSH1 0x40 MLOAD DUP1 PUSH1 0x40 ADD PUSH1 0x40 MSTORE DUP1 PUSH32 0x1C2FE37999F39D97581577CBA5532F2804CABF0297EB13DB09A214BDE314A02 DUP2 MSTORE PUSH1 0x20 ADD PUSH32 0x2796E1512BA965F3B8C4299C5DFA3B9505FFDFC8D6CA4CC53775ECE1EF63B463 DUP2 MSTORE POP DUP2 PUSH1 0x80 ADD MLOAD PUSH1 0x5 DUP2 MLOAD DUP2 LT PUSH2 0xF7D JUMPI PUSH4 0x4E487B71 PUSH1 0xE0 SHL PUSH1 0x0 MSTORE PUSH1 0x32 PUSH1 0x4 MSTORE PUSH1 0x24 PUSH1 0x0 REVERT JUMPDEST PUSH1 0x20 MUL PUSH1 0x20 ADD ADD DUP2 SWAP1 MSTORE POP PUSH1 0x40 MLOAD DUP1 PUSH1 0x40 ADD PUSH1 0x40 MSTORE DUP1 PUSH32 0x2CD2CDAF323E166F29D118ACB15E69FAD658A6CCFEA0599E0B6E17543AEBC6FF DUP2 MSTORE PUSH1 0x20 ADD PUSH32 0x1B6CD7FD780E8CD1DFCC407F741EEC7A6014F4A764E5AA49C3E7E042DB9B3010 DUP2 MSTORE POP DUP2 PUSH1 0x80 ADD MLOAD PUSH1 0x6 DUP2 MLOAD DUP2 LT PUSH2 0x1002 JUMPI PUSH4 0x4E487B71 PUSH1 0xE0 SHL PUSH1 0x0 MSTORE PUSH1 0x32 PUSH1 0x4 MSTORE PUSH1 0x24 PUSH1 0x0 REVERT JUMPDEST PUSH1 0x20 MUL PUSH1 0x20 ADD ADD DUP2 SWAP1 MSTORE POP PUSH1 0x40 MLOAD DUP1 PUSH1 0x40 ADD PUSH1 0x40 MSTORE DUP1 PUSH32 0x2906995BD442B08516017AF4FD80AB36F57263335583552EF88C6E6366C021A2 DUP2 MSTORE PUSH1 0x20 ADD PUSH32 0x6049F34E78F3A271ABB0DA12CF31580C69B7D6D15F4FEEEA6F3DA85DB2D708F DUP2 MSTORE POP DUP2 PUSH1 0x80 ADD MLOAD PUSH1 0x7 DUP2 MLOAD DUP2 LT PUSH2 0x1087 JUMPI PUSH4 0x4E487B71 PUSH1 0xE0 SHL PUSH1 0x0 MSTORE PUSH1 0x32 PUSH1 0x4 MSTORE PUSH1 0x24 PUSH1 0x0 REVERT JUMPDEST PUSH1 0x20 MUL PUSH1 0x20 ADD ADD DUP2 SWAP1 MSTORE POP PUSH1 0x40 MLOAD DUP1 PUSH1 0x40 ADD PUSH1 0x40 MSTORE DUP1 PUSH32 0x1DB8447319407480DEDA465043F68D30B970C543E5A2C4F82241FB974660D82B DUP2 MSTORE PUSH1 0x20 ADD PUSH32 0x2C4163776A7448085F8E0425DEDBC8C7806447842A7B845C687ACAE3F7EF3776 DUP2 MSTORE POP DUP2 PUSH1 0x80 ADD MLOAD PUSH1 0x8 DUP2 MLOAD DUP2 LT PUSH2 0x110C JUMPI PUSH4 0x4E487B71 PUSH1 0xE0 SHL PUSH1 0x0 MSTORE PUSH1 0x32 PUSH1 0x4 MSTORE PUSH1 0x24 PUSH1 0x0 REVERT JUMPDEST PUSH1 0x20 MUL PUSH1 0x20 ADD ADD DUP2 SWAP1 MSTORE POP PUSH1 0x40 MLOAD DUP1 PUSH1 0x40 ADD PUSH1 0x40 MSTORE DUP1 PUSH32 0x1AF661BD94EB8AB21D0BC9BE8E72D4BEAF1B26CAC2DAEC0DF0401052CE8972BE DUP2 MSTORE PUSH1 0x20 ADD PUSH32 0xF6FF1A8028B1554008199DCAB9E1ED9C6FA7C7B0F71EE4FBF7204AA5C6C1262 DUP2 MSTORE POP DUP2 PUSH1 0x80 ADD MLOAD PUSH1 0x9 DUP2 MLOAD DUP2 LT PUSH2 0x1191 JUMPI PUSH4 0x4E487B71 PUSH1 0xE0 SHL PUSH1 0x0 MSTORE PUSH1 0x32 PUSH1 0x4 MSTORE PUSH1 0x24 PUSH1 0x0 REVERT JUMPDEST PUSH1 0x20 MUL PUSH1 0x20 ADD ADD DUP2 SWAP1 MSTORE POP PUSH1 0x40 MLOAD DUP1 PUSH1 0x40 ADD PUSH1 0x40 MSTORE DUP1 PUSH32 0xFF08F9B7FF175F1396D601A9C572106AA8A6F18AC50537C64CEBD3F1EF7489D DUP2 MSTORE PUSH1 0x20 ADD PUSH32 0x1424F50E40CDE8161296BDA59697D1A42079B785B1021A87F1FCD0F1E756C9A1 DUP2 MSTORE POP DUP2 PUSH1 0x80 ADD MLOAD PUSH1 0xA DUP2 MLOAD DUP2 LT PUSH2 0x1216 JUMPI PUSH4 0x4E487B71 PUSH1 0xE0 SHL PUSH1 0x0 MSTORE PUSH1 0x32 PUSH1 0x4 MSTORE PUSH1 0x24 PUSH1 0x0 REVERT JUMPDEST PUSH1 0x20 MUL PUSH1 0x20 ADD ADD DUP2 SWAP1 MSTORE POP PUSH1 0x40 MLOAD DUP1 PUSH1 0x40 ADD PUSH1 0x40 MSTORE DUP1 PUSH32 0x17199063A21F44856831E79632C4D423F792B278C865E5A6B4DBD34D22375942 DUP2 MSTORE PUSH1 0x20 ADD PUSH32 0x1ED8CF799C14106BB30C1A4425E1D98D900809249C03C49E25CF07C4F42E6799 DUP2 MSTORE POP DUP2 PUSH1 0x80 ADD MLOAD PUSH1 0xB DUP2 MLOAD DUP2 LT PUSH2 0x129B JUMPI PUSH4 0x4E487B71 PUSH1 0xE0 SHL PUSH1 0x0 MSTORE PUSH1 0x32 PUSH1 0x4 MSTORE PUSH1 0x24 PUSH1 0x0 REVERT JUMPDEST PUSH1 0x20 MUL PUSH1 0x20 ADD ADD DUP2 SWAP1 MSTORE POP PUSH1 0x40 MLOAD DUP1 PUSH1 0x40 ADD PUSH1 0x40 MSTORE DUP1 PUSH32 0x11666223B6DDB061489F9221C0E683648DD4C3F52410696AB38D5B551C97F406 DUP2 MSTORE PUSH1 0x20 ADD PUSH32 0x10908E18ECD7815882D4E09CBEBB63F2EA63A608C59BC13F41D094F6B081BCAC DUP2 MSTORE POP DUP2 PUSH1 0x80 ADD MLOAD PUSH1 0xC DUP2 MLOAD DUP2 LT PUSH2 0x1320 JUMPI PUSH4 0x4E487B71 PUSH1 0xE0 SHL PUSH1 0x0 MSTORE PUSH1 0x32 PUSH1 0x4 MSTORE PUSH1 0x24 PUSH1 0x0 REVERT JUMPDEST PUSH1 0x20 MUL PUSH1 0x20 ADD ADD DUP2 SWAP1 MSTORE POP PUSH1 0x40 MLOAD DUP1 PUSH1 0x40 ADD PUSH1 0x40 MSTORE DUP1 PUSH32 0x3FF773285459688479609D60D85CCC1AA55190D512F7521CCC97E65B20BE907 DUP2 MSTORE PUSH1 0x20 ADD PUSH32 0x10D49746E7BD2302B3B9FFF31D976B470838B04182950BA7619AE19D2027EE1D DUP2 MSTORE POP DUP2 PUSH1 0x80 ADD MLOAD PUSH1 0xD DUP2 MLOAD DUP2 LT PUSH2 0x13A5 JUMPI PUSH4 0x4E487B71 PUSH1 0xE0 SHL PUSH1 0x0 MSTORE PUSH1 0x32 PUSH1 0x4 MSTORE PUSH1 0x24 PUSH1 0x0 REVERT JUMPDEST PUSH1 0x20 MUL PUSH1 0x20 ADD ADD DUP2 SWAP1 MSTORE POP PUSH1 0x40 MLOAD DUP1 PUSH1 0x40 ADD PUSH1 0x40 MSTORE DUP1 PUSH32 0x109B92E1C53FBF243A62687861867EC0D720B9E8547B6C429CE1799BCF2CDE94 DUP2 MSTORE PUSH1 0x20 ADD PUSH32 0x286BAD3FEDB4BB708ADEEE05A74F5FE48D670FA0A5EDE9BC91454F263C43A306 DUP2 MSTORE POP DUP2 PUSH1 0x80 ADD MLOAD PUSH1 0xE DUP2 MLOAD DUP2 LT PUSH2 0x782 JUMPI PUSH4 0x4E487B71 PUSH1 0xE0 SHL PUSH1 0x0 MSTORE PUSH1 0x32 PUSH1 0x4 MSTORE PUSH1 0x24 PUSH1 0x0 REVERT JUMPDEST PUSH2 0x1432 PUSH2 0x2040 JUMP JUMPDEST PUSH1 0x40 DUP1 MLOAD DUP1 DUP3 ADD DUP3 MSTORE PUSH32 0x2D4D9AA7E302D9DF41749D5507949D05DBEA33FBB16C643B22F599A2BE6DF2E2 DUP2 MSTORE PUSH32 0x14BEDD503C37CEB061D8EC60209FE345CE89830A19230301F076CAFF004D1926 PUSH1 0x20 DUP1 DUP4 ADD SWAP2 SWAP1 SWAP2 MSTORE SWAP1 DUP4 MSTORE DUP2 MLOAD PUSH1 0x80 DUP1 DUP3 ADD DUP5 MSTORE PUSH32 0x967032FCBF776D1AFC985F88877F182D38480A653F2DECAA9794CBC3BF3060C DUP3 DUP6 ADD SWAP1 DUP2 MSTORE PUSH32 0xE187847AD4C798374D0D6732BF501847DD68BC0E071241E0213BC7FC13DB7AB PUSH1 0x60 DUP1 DUP6 ADD SWAP2 SWAP1 SWAP2 MSTORE SWAP1 DUP4 MSTORE DUP5 MLOAD DUP1 DUP7 ADD DUP7 MSTORE PUSH32 0x304CFBD1E08A704A99F5E847D93F8C3CAAFDDEC46B7A0D379DA69A4D112346A7 DUP2 MSTORE PUSH32 0x1739C1B1A457A8C7313123D24D2F9192F896B7C63EEA05A9D57F06547AD0CEC8 DUP2 DUP7 ADD MSTORE DUP4 DUP6 ADD MSTORE DUP6 DUP5 ADD SWAP3 SWAP1 SWAP3 MSTORE DUP4 MLOAD DUP1 DUP3 ADD DUP6 MSTORE PUSH32 0x198E9393920D483A7260BFB731FB5D25F1AA493335A9E71297E485B7AEF312C2 DUP2 DUP7 ADD SWAP1 DUP2 MSTORE PUSH32 0x1800DEEF121F1E76426A00665E5C4479674322D4F75EDADD46DEBD5CD992F6ED DUP3 DUP6 ADD MSTORE DUP2 MSTORE DUP5 MLOAD DUP1 DUP7 ADD DUP7 MSTORE PUSH32 0x90689D0585FF075EC9E99AD690C3395BC4B313370B38EF355ACDADCD122975B DUP2 MSTORE PUSH32 0x12C85EA5DB8C6DEB4AAB71808DCB408FE3D1E7690C43D37B4CE6CC0166FA7DAA DUP2 DUP7 ADD MSTORE DUP2 DUP6 ADD MSTORE DUP6 DUP6 ADD MSTORE DUP4 MLOAD SWAP1 DUP2 ADD DUP5 MSTORE PUSH32 0x187DFD92E719CD335FEC9868D596E847C0A6A9C3CE8FB650FD7241DF14DBCDD6 DUP2 DUP6 ADD SWAP1 DUP2 MSTORE PUSH32 0x597134AD9F10975E7F84D2CEF6B5FDD0D0DB6A7C09392522406567AC086D316 DUP3 DUP5 ADD MSTORE DUP2 MSTORE DUP4 MLOAD DUP1 DUP6 ADD DUP6 MSTORE PUSH32 0x10E7FDF5AD93D2CE02E82A0F4BFCF7EB249FAA09B8B20CB153815BD83265E7F3 DUP2 MSTORE PUSH32 0x2693890A80919BFCE04DD8182A121053EAA1404A7B9711631822671051270058 DUP2 DUP6 ADD MSTORE DUP2 DUP5 ADD MSTORE DUP2 DUP6 ADD MSTORE DUP3 MLOAD PUSH1 0x2 DUP1 DUP3 MSTORE SWAP2 DUP2 ADD SWAP1 SWAP4 MSTORE SWAP1 DUP3 ADD JUMPDEST PUSH1 0x40 DUP1 MLOAD DUP1 DUP3 ADD SWAP1 SWAP2 MSTORE PUSH1 0x0 DUP1 DUP3 MSTORE PUSH1 0x20 DUP3 ADD MSTORE DUP2 MSTORE PUSH1 0x20 ADD SWAP1 PUSH1 0x1 SWAP1 SUB SWAP1 DUP2 PUSH2 0x16AB JUMPI POP POP PUSH1 0x80 DUP3 ADD SWAP1 DUP2 MSTORE PUSH1 0x40 DUP1 MLOAD DUP1 DUP3 ADD SWAP1 SWAP2 MSTORE PUSH32 0x25616DB27B9873D8F3FDD051932E08146949279DC3205731D1A09AE2FAB02381 DUP2 MSTORE PUSH32 0x15C92472D04FB577F0FB688CD0624E23B68E30606A25E6D0C52AD34816356EDF PUSH1 0x20 DUP3 ADD MSTORE SWAP1 MLOAD DUP1 MLOAD PUSH1 0x0 SWAP1 PUSH2 0x174C JUMPI PUSH4 0x4E487B71 PUSH1 0xE0 SHL PUSH1 0x0 MSTORE PUSH1 0x32 PUSH1 0x4 MSTORE PUSH1 0x24 PUSH1 0x0 REVERT JUMPDEST PUSH1 0x20 MUL PUSH1 0x20 ADD ADD DUP2 SWAP1 MSTORE POP PUSH1 0x40 MLOAD DUP1 PUSH1 0x40 ADD PUSH1 0x40 MSTORE DUP1 PUSH32 0x287019CFE177C0AB24D545D4E94F63DE335A3C68D1578950A4242313D54EFB08 DUP2 MSTORE PUSH1 0x20 ADD PUSH32 0x1AC36BEAEF8F962013563F1600F12B12E0FDBD0397AABF63229F19E2624246F9 DUP2 MSTORE POP DUP2 PUSH1 0x80 ADD MLOAD PUSH1 0x1 DUP2 MLOAD DUP2 LT PUSH2 0x782 JUMPI PUSH4 0x4E487B71 PUSH1 0xE0 SHL PUSH1 0x0 MSTORE PUSH1 0x32 PUSH1 0x4 MSTORE PUSH1 0x24 PUSH1 0x0 REVERT JUMPDEST PUSH1 0x40 DUP1 MLOAD DUP1 DUP3 ADD SWAP1 SWAP2 MSTORE PUSH1 0x0 DUP1 DUP3 MSTORE PUSH1 0x20 DUP3 ADD MSTORE PUSH2 0x17ED PUSH2 0x2091 JUMP JUMPDEST DUP4 MLOAD DUP2 MSTORE PUSH1 0x20 DUP1 DUP6 ADD MLOAD SWAP1 DUP3 ADD MSTORE PUSH1 0x40 DUP2 ADD DUP4 SWAP1 MSTORE PUSH1 0x0 PUSH1 0x60 DUP4 PUSH1 0x80 DUP5 PUSH1 0x7 PUSH2 0x7D0 GAS SUB STATICCALL SWAP1 POP DUP1 DUP1 ISZERO PUSH2 0x1820 JUMPI PUSH2 0x1822 JUMP JUMPDEST INVALID JUMPDEST POP DUP1 PUSH2 0x1870 JUMPI PUSH1 0x40 MLOAD PUSH3 0x461BCD PUSH1 0xE5 SHL DUP2 MSTORE PUSH1 0x20 PUSH1 0x4 DUP3 ADD MSTORE PUSH1 0x12 PUSH1 0x24 DUP3 ADD MSTORE PUSH32 0x70616972696E672D6D756C2D6661696C65640000000000000000000000000000 PUSH1 0x44 DUP3 ADD MSTORE PUSH1 0x64 ADD PUSH2 0x811 JUMP JUMPDEST POP POP SWAP3 SWAP2 POP POP JUMP JUMPDEST PUSH1 0x40 DUP1 MLOAD DUP1 DUP3 ADD SWAP1 SWAP2 MSTORE PUSH1 0x0 DUP1 DUP3 MSTORE PUSH1 0x20 DUP3 ADD MSTORE PUSH2 0x1894 PUSH2 0x20AF JUMP JUMPDEST DUP4 MLOAD DUP2 MSTORE PUSH1 0x20 DUP1 DUP6 ADD MLOAD DUP2 DUP4 ADD MSTORE DUP4 MLOAD PUSH1 0x40 DUP4 ADD MSTORE DUP4 ADD MLOAD PUSH1 0x60 DUP1 DUP4 ADD SWAP2 SWAP1 SWAP2 MSTORE PUSH1 0x0 SWAP1 DUP4 PUSH1 0xC0 DUP5 PUSH1 0x6 PUSH2 0x7D0 GAS SUB STATICCALL SWAP1 POP DUP1 DUP1 ISZERO PUSH2 0x1820 JUMPI POP DUP1 PUSH2 0x1870 JUMPI PUSH1 0x40 MLOAD PUSH3 0x461BCD PUSH1 0xE5 SHL DUP2 MSTORE PUSH1 0x20 PUSH1 0x4 DUP3 ADD MSTORE PUSH1 0x12 PUSH1 0x24 DUP3 ADD MSTORE PUSH32 0x70616972696E672D6164642D6661696C65640000000000000000000000000000 PUSH1 0x44 DUP3 ADD MSTORE PUSH1 0x64 ADD PUSH2 0x811 JUMP JUMPDEST PUSH1 0x40 DUP1 MLOAD DUP1 DUP3 ADD SWAP1 SWAP2 MSTORE PUSH1 0x0 DUP1 DUP3 MSTORE PUSH1 0x20 DUP3 ADD MSTORE DUP2 MLOAD PUSH32 0x30644E72E131A029B85045B68181585D97816A916871CA8D3C208C16D87CFD47 SWAP1 ISZERO DUP1 ISZERO PUSH2 0x1962 JUMPI POP PUSH1 0x20 DUP4 ADD MLOAD ISZERO JUMPDEST ISZERO PUSH2 0x1982 JUMPI POP POP PUSH1 0x40 DUP1 MLOAD DUP1 DUP3 ADD SWAP1 SWAP2 MSTORE PUSH1 0x0 DUP1 DUP3 MSTORE PUSH1 0x20 DUP3 ADD MSTORE PUSH2 0x19B7 JUMP JUMPDEST PUSH1 0x40 MLOAD DUP1 PUSH1 0x40 ADD PUSH1 0x40 MSTORE DUP1 DUP5 PUSH1 0x0 ADD MLOAD DUP2 MSTORE PUSH1 0x20 ADD DUP3 DUP6 PUSH1 0x20 ADD MLOAD PUSH2 0x19A7 SWAP2 SWAP1 PUSH2 0x264E JUMP JUMPDEST PUSH2 0x19B1 SWAP1 DUP5 PUSH2 0x261C JUMP JUMPDEST SWAP1 MSTORE SWAP2 POP POP JUMPDEST SWAP2 SWAP1 POP JUMP JUMPDEST PUSH1 0x40 DUP1 MLOAD PUSH1 0x4 DUP1 DUP3 MSTORE PUSH1 0xA0 DUP3 ADD SWAP1 SWAP3 MSTORE PUSH1 0x0 SWAP2 DUP3 SWAP2 SWAP1 DUP2 PUSH1 0x20 ADD JUMPDEST PUSH1 0x40 DUP1 MLOAD DUP1 DUP3 ADD SWAP1 SWAP2 MSTORE PUSH1 0x0 DUP1 DUP3 MSTORE PUSH1 0x20 DUP3 ADD MSTORE DUP2 MSTORE PUSH1 0x20 ADD SWAP1 PUSH1 0x1 SWAP1 SUB SWAP1 DUP2 PUSH2 0x19D7 JUMPI POP POP PUSH1 0x40 DUP1 MLOAD PUSH1 0x4 DUP1 DUP3 MSTORE PUSH1 0xA0 DUP3 ADD SWAP1 SWAP3 MSTORE SWAP2 SWAP3 POP PUSH1 0x0 SWAP2 SWAP1 PUSH1 0x20 DUP3 ADD JUMPDEST PUSH2 0x1A21 PUSH2 0x20CD JUMP JUMPDEST DUP2 MSTORE PUSH1 0x20 ADD SWAP1 PUSH1 0x1 SWAP1 SUB SWAP1 DUP2 PUSH2 0x1A19 JUMPI SWAP1 POP POP SWAP1 POP DUP11 DUP3 PUSH1 0x0 DUP2 MLOAD DUP2 LT PUSH2 0x1A58 JUMPI PUSH4 0x4E487B71 PUSH1 0xE0 SHL PUSH1 0x0 MSTORE PUSH1 0x32 PUSH1 0x4 MSTORE PUSH1 0x24 PUSH1 0x0 REVERT JUMPDEST PUSH1 0x20 MUL PUSH1 0x20 ADD ADD DUP2 SWAP1 MSTORE POP DUP9 DUP3 PUSH1 0x1 DUP2 MLOAD DUP2 LT PUSH2 0x1A85 JUMPI PUSH4 0x4E487B71 PUSH1 0xE0 SHL PUSH1 0x0 MSTORE PUSH1 0x32 PUSH1 0x4 MSTORE PUSH1 0x24 PUSH1 0x0 REVERT JUMPDEST PUSH1 0x20 MUL PUSH1 0x20 ADD ADD DUP2 SWAP1 MSTORE POP DUP7 DUP3 PUSH1 0x2 DUP2 MLOAD DUP2 LT PUSH2 0x1AB2 JUMPI PUSH4 0x4E487B71 PUSH1 0xE0 SHL PUSH1 0x0 MSTORE PUSH1 0x32 PUSH1 0x4 MSTORE PUSH1 0x24 PUSH1 0x0 REVERT JUMPDEST PUSH1 0x20 MUL PUSH1 0x20 ADD ADD DUP2 SWAP1 MSTORE POP DUP5 DUP3 PUSH1 0x3 DUP2 MLOAD DUP2 LT PUSH2 0x1ADF JUMPI PUSH4 0x4E487B71 PUSH1 0xE0 SHL PUSH1 0x0 MSTORE PUSH1 0x32 PUSH1 0x4 MSTORE PUSH1 0x24 PUSH1 0x0 REVERT JUMPDEST PUSH1 0x20 MUL PUSH1 0x20 ADD ADD DUP2 SWAP1 MSTORE POP DUP10 DUP2 PUSH1 0x0 DUP2 MLOAD DUP2 LT PUSH2 0x1B0C JUMPI PUSH4 0x4E487B71 PUSH1 0xE0 SHL PUSH1 0x0 MSTORE PUSH1 0x32 PUSH1 0x4 MSTORE PUSH1 0x24 PUSH1 0x0 REVERT JUMPDEST PUSH1 0x20 MUL PUSH1 0x20 ADD ADD DUP2 SWAP1 MSTORE POP DUP8 DUP2 PUSH1 0x1 DUP2 MLOAD DUP2 LT PUSH2 0x1B39 JUMPI PUSH4 0x4E487B71 PUSH1 0xE0 SHL PUSH1 0x0 MSTORE PUSH1 0x32 PUSH1 0x4 MSTORE PUSH1 0x24 PUSH1 0x0 REVERT JUMPDEST PUSH1 0x20 MUL PUSH1 0x20 ADD ADD DUP2 SWAP1 MSTORE POP DUP6 DUP2 PUSH1 0x2 DUP2 MLOAD DUP2 LT PUSH2 0x1B66 JUMPI PUSH4 0x4E487B71 PUSH1 0xE0 SHL PUSH1 0x0 MSTORE PUSH1 0x32 PUSH1 0x4 MSTORE PUSH1 0x24 PUSH1 0x0 REVERT JUMPDEST PUSH1 0x20 MUL PUSH1 0x20 ADD ADD DUP2 SWAP1 MSTORE POP DUP4 DUP2 PUSH1 0x3 DUP2 MLOAD DUP2 LT PUSH2 0x1B93 JUMPI PUSH4 0x4E487B71 PUSH1 0xE0 SHL PUSH1 0x0 MSTORE PUSH1 0x32 PUSH1 0x4 MSTORE PUSH1 0x24 PUSH1 0x0 REVERT JUMPDEST PUSH1 0x20 MUL PUSH1 0x20 ADD ADD DUP2 SWAP1 MSTORE POP PUSH2 0x1BA8 DUP3 DUP3 PUSH2 0x1BB7 JUMP JUMPDEST SWAP12 SWAP11 POP POP POP POP POP POP POP POP POP POP POP JUMP JUMPDEST PUSH1 0x0 DUP2 MLOAD DUP4 MLOAD EQ PUSH2 0x1C0A JUMPI PUSH1 0x40 MLOAD PUSH3 0x461BCD PUSH1 0xE5 SHL DUP2 MSTORE PUSH1 0x20 PUSH1 0x4 DUP3 ADD MSTORE PUSH1 0x16 PUSH1 0x24 DUP3 ADD MSTORE PUSH32 0x70616972696E672D6C656E677468732D6661696C656400000000000000000000 PUSH1 0x44 DUP3 ADD MSTORE PUSH1 0x64 ADD PUSH2 0x811 JUMP JUMPDEST DUP3 MLOAD PUSH1 0x0 PUSH2 0x1C19 DUP3 PUSH1 0x6 PUSH2 0x25FD JUMP JUMPDEST SWAP1 POP PUSH1 0x0 DUP2 PUSH8 0xFFFFFFFFFFFFFFFF DUP2 GT ISZERO PUSH2 0x1C44 JUMPI PUSH4 0x4E487B71 PUSH1 0xE0 SHL PUSH1 0x0 MSTORE PUSH1 0x41 PUSH1 0x4 MSTORE PUSH1 0x24 PUSH1 0x0 REVERT JUMPDEST PUSH1 0x40 MLOAD SWAP1 DUP1 DUP3 MSTORE DUP1 PUSH1 0x20 MUL PUSH1 0x20 ADD DUP3 ADD PUSH1 0x40 MSTORE DUP1 ISZERO PUSH2 0x1C6D JUMPI DUP2 PUSH1 0x20 ADD PUSH1 0x20 DUP3 MUL DUP1 CALLDATASIZE DUP4 CALLDATACOPY ADD SWAP1 POP JUMPDEST POP SWAP1 POP PUSH1 0x0 JUMPDEST DUP4 DUP2 LT ISZERO PUSH2 0x1F6C JUMPI DUP7 DUP2 DUP2 MLOAD DUP2 LT PUSH2 0x1C9B JUMPI PUSH4 0x4E487B71 PUSH1 0xE0 SHL PUSH1 0x0 MSTORE PUSH1 0x32 PUSH1 0x4 MSTORE PUSH1 0x24 PUSH1 0x0 REVERT JUMPDEST PUSH1 0x20 MUL PUSH1 0x20 ADD ADD MLOAD PUSH1 0x0 ADD MLOAD DUP3 DUP3 PUSH1 0x6 PUSH2 0x1CB5 SWAP2 SWAP1 PUSH2 0x25FD JUMP JUMPDEST PUSH2 0x1CC0 SWAP1 PUSH1 0x0 PUSH2 0x25E5 JUMP JUMPDEST DUP2 MLOAD DUP2 LT PUSH2 0x1CDE JUMPI PUSH4 0x4E487B71 PUSH1 0xE0 SHL PUSH1 0x0 MSTORE PUSH1 0x32 PUSH1 0x4 MSTORE PUSH1 0x24 PUSH1 0x0 REVERT JUMPDEST PUSH1 0x20 MUL PUSH1 0x20 ADD ADD DUP2 DUP2 MSTORE POP POP DUP7 DUP2 DUP2 MLOAD DUP2 LT PUSH2 0x1D0A JUMPI PUSH4 0x4E487B71 PUSH1 0xE0 SHL PUSH1 0x0 MSTORE PUSH1 0x32 PUSH1 0x4 MSTORE PUSH1 0x24 PUSH1 0x0 REVERT JUMPDEST PUSH1 0x20 MUL PUSH1 0x20 ADD ADD MLOAD PUSH1 0x20 ADD MLOAD DUP3 DUP3 PUSH1 0x6 PUSH2 0x1D24 SWAP2 SWAP1 PUSH2 0x25FD JUMP JUMPDEST PUSH2 0x1D2F SWAP1 PUSH1 0x1 PUSH2 0x25E5 JUMP JUMPDEST DUP2 MLOAD DUP2 LT PUSH2 0x1D4D JUMPI PUSH4 0x4E487B71 PUSH1 0xE0 SHL PUSH1 0x0 MSTORE PUSH1 0x32 PUSH1 0x4 MSTORE PUSH1 0x24 PUSH1 0x0 REVERT JUMPDEST PUSH1 0x20 MUL PUSH1 0x20 ADD ADD DUP2 DUP2 MSTORE POP POP DUP6 DUP2 DUP2 MLOAD DUP2 LT PUSH2 0x1D79 JUMPI PUSH4 0x4E487B71 PUSH1 0xE0 SHL PUSH1 0x0 MSTORE PUSH1 0x32 PUSH1 0x4 MSTORE PUSH1 0x24 PUSH1 0x0 REVERT JUMPDEST PUSH1 0x20 SWAP1 DUP2 MUL SWAP2 SWAP1 SWAP2 ADD ADD MLOAD MLOAD MLOAD DUP3 PUSH2 0x1D92 DUP4 PUSH1 0x6 PUSH2 0x25FD JUMP JUMPDEST PUSH2 0x1D9D SWAP1 PUSH1 0x2 PUSH2 0x25E5 JUMP JUMPDEST DUP2 MLOAD DUP2 LT PUSH2 0x1DBB JUMPI PUSH4 0x4E487B71 PUSH1 0xE0 SHL PUSH1 0x0 MSTORE PUSH1 0x32 PUSH1 0x4 MSTORE PUSH1 0x24 PUSH1 0x0 REVERT JUMPDEST PUSH1 0x20 MUL PUSH1 0x20 ADD ADD DUP2 DUP2 MSTORE POP POP DUP6 DUP2 DUP2 MLOAD DUP2 LT PUSH2 0x1DE7 JUMPI PUSH4 0x4E487B71 PUSH1 0xE0 SHL PUSH1 0x0 MSTORE PUSH1 0x32 PUSH1 0x4 MSTORE PUSH1 0x24 PUSH1 0x0 REVERT JUMPDEST PUSH1 0x20 SWAP1 DUP2 MUL SWAP2 SWAP1 SWAP2 ADD DUP2 ADD MLOAD MLOAD ADD MLOAD DUP3 PUSH2 0x1E02 DUP4 PUSH1 0x6 PUSH2 0x25FD JUMP JUMPDEST PUSH2 0x1E0D SWAP1 PUSH1 0x3 PUSH2 0x25E5 JUMP JUMPDEST DUP2 MLOAD DUP2 LT PUSH2 0x1E2B JUMPI PUSH4 0x4E487B71 PUSH1 0xE0 SHL PUSH1 0x0 MSTORE PUSH1 0x32 PUSH1 0x4 MSTORE PUSH1 0x24 PUSH1 0x0 REVERT JUMPDEST PUSH1 0x20 MUL PUSH1 0x20 ADD ADD DUP2 DUP2 MSTORE POP POP DUP6 DUP2 DUP2 MLOAD DUP2 LT PUSH2 0x1E57 JUMPI PUSH4 0x4E487B71 PUSH1 0xE0 SHL PUSH1 0x0 MSTORE PUSH1 0x32 PUSH1 0x4 MSTORE PUSH1 0x24 PUSH1 0x0 REVERT JUMPDEST PUSH1 0x20 MUL PUSH1 0x20 ADD ADD MLOAD PUSH1 0x20 ADD MLOAD PUSH1 0x0 PUSH1 0x2 DUP2 LT PUSH2 0x1E83 JUMPI PUSH4 0x4E487B71 PUSH1 0xE0 SHL PUSH1 0x0 MSTORE PUSH1 0x32 PUSH1 0x4 MSTORE PUSH1 0x24 PUSH1 0x0 REVERT JUMPDEST PUSH1 0x20 MUL ADD MLOAD DUP3 PUSH2 0x1E94 DUP4 PUSH1 0x6 PUSH2 0x25FD JUMP JUMPDEST PUSH2 0x1E9F SWAP1 PUSH1 0x4 PUSH2 0x25E5 JUMP JUMPDEST DUP2 MLOAD DUP2 LT PUSH2 0x1EBD JUMPI PUSH4 0x4E487B71 PUSH1 0xE0 SHL PUSH1 0x0 MSTORE PUSH1 0x32 PUSH1 0x4 MSTORE PUSH1 0x24 PUSH1 0x0 REVERT JUMPDEST PUSH1 0x20 MUL PUSH1 0x20 ADD ADD DUP2 DUP2 MSTORE POP POP DUP6 DUP2 DUP2 MLOAD DUP2 LT PUSH2 0x1EE9 JUMPI PUSH4 0x4E487B71 PUSH1 0xE0 SHL PUSH1 0x0 MSTORE PUSH1 0x32 PUSH1 0x4 MSTORE PUSH1 0x24 PUSH1 0x0 REVERT JUMPDEST PUSH1 0x20 MUL PUSH1 0x20 ADD ADD MLOAD PUSH1 0x20 ADD MLOAD PUSH1 0x1 PUSH1 0x2 DUP2 LT PUSH2 0x1F15 JUMPI PUSH4 0x4E487B71 PUSH1 0xE0 SHL PUSH1 0x0 MSTORE PUSH1 0x32 PUSH1 0x4 MSTORE PUSH1 0x24 PUSH1 0x0 REVERT JUMPDEST PUSH1 0x20 MUL ADD MLOAD DUP3 PUSH2 0x1F26 DUP4 PUSH1 0x6 PUSH2 0x25FD JUMP JUMPDEST PUSH2 0x1F31 SWAP1 PUSH1 0x5 PUSH2 0x25E5 JUMP JUMPDEST DUP2 MLOAD DUP2 LT PUSH2 0x1F4F JUMPI PUSH4 0x4E487B71 PUSH1 0xE0 SHL PUSH1 0x0 MSTORE PUSH1 0x32 PUSH1 0x4 MSTORE PUSH1 0x24 PUSH1 0x0 REVERT JUMPDEST PUSH1 0x20 SWAP1 DUP2 MUL SWAP2 SWAP1 SWAP2 ADD ADD MSTORE DUP1 PUSH2 0x1F64 DUP2 PUSH2 0x2633 JUMP JUMPDEST SWAP2 POP POP PUSH2 0x1C73 JUMP JUMPDEST POP PUSH2 0x1F75 PUSH2 0x20ED JUMP JUMPDEST PUSH1 0x0 PUSH1 0x20 DUP3 PUSH1 0x20 DUP7 MUL PUSH1 0x20 DUP7 ADD PUSH1 0x8 PUSH2 0x7D0 GAS SUB STATICCALL SWAP1 POP DUP1 DUP1 ISZERO PUSH2 0x1820 JUMPI POP DUP1 PUSH2 0x1FE1 JUMPI PUSH1 0x40 MLOAD PUSH3 0x461BCD PUSH1 0xE5 SHL DUP2 MSTORE PUSH1 0x20 PUSH1 0x4 DUP3 ADD MSTORE PUSH1 0x15 PUSH1 0x24 DUP3 ADD MSTORE PUSH32 0x70616972696E672D6F70636F64652D6661696C65640000000000000000000000 PUSH1 0x44 DUP3 ADD MSTORE PUSH1 0x64 ADD PUSH2 0x811 JUMP JUMPDEST POP MLOAD ISZERO ISZERO SWAP7 SWAP6 POP POP POP POP POP POP JUMP JUMPDEST PUSH1 0x40 DUP1 MLOAD PUSH1 0xA0 DUP2 ADD SWAP1 SWAP2 MSTORE PUSH1 0x0 PUSH1 0x60 DUP3 ADD DUP2 DUP2 MSTORE PUSH1 0x80 DUP4 ADD SWAP2 SWAP1 SWAP2 MSTORE DUP2 MSTORE PUSH1 0x20 DUP2 ADD PUSH2 0x2019 PUSH2 0x20CD JUMP JUMPDEST DUP2 MSTORE PUSH1 0x20 ADD PUSH2 0x203B PUSH1 0x40 MLOAD DUP1 PUSH1 0x40 ADD PUSH1 0x40 MSTORE DUP1 PUSH1 0x0 DUP2 MSTORE PUSH1 0x20 ADD PUSH1 0x0 DUP2 MSTORE POP SWAP1 JUMP JUMPDEST SWAP1 MSTORE SWAP1 JUMP JUMPDEST PUSH1 0x40 DUP1 MLOAD PUSH1 0xE0 DUP2 ADD SWAP1 SWAP2 MSTORE PUSH1 0x0 PUSH1 0xA0 DUP3 ADD DUP2 DUP2 MSTORE PUSH1 0xC0 DUP4 ADD SWAP2 SWAP1 SWAP2 MSTORE DUP2 MSTORE PUSH1 0x20 DUP2 ADD PUSH2 0x206A PUSH2 0x20CD JUMP JUMPDEST DUP2 MSTORE PUSH1 0x20 ADD PUSH2 0x2077 PUSH2 0x20CD JUMP JUMPDEST DUP2 MSTORE PUSH1 0x20 ADD PUSH2 0x2084 PUSH2 0x20CD JUMP JUMPDEST DUP2 MSTORE PUSH1 0x20 ADD PUSH1 0x60 DUP2 MSTORE POP SWAP1 JUMP JUMPDEST PUSH1 0x40 MLOAD DUP1 PUSH1 0x60 ADD PUSH1 0x40 MSTORE DUP1 PUSH1 0x3 SWAP1 PUSH1 0x20 DUP3 MUL DUP1 CALLDATASIZE DUP4 CALLDATACOPY POP SWAP2 SWAP3 SWAP2 POP POP JUMP JUMPDEST PUSH1 0x40 MLOAD DUP1 PUSH1 0x80 ADD PUSH1 0x40 MSTORE DUP1 PUSH1 0x4 SWAP1 PUSH1 0x20 DUP3 MUL DUP1 CALLDATASIZE DUP4 CALLDATACOPY POP SWAP2 SWAP3 SWAP2 POP POP JUMP JUMPDEST PUSH1 0x40 MLOAD DUP1 PUSH1 0x40 ADD PUSH1 0x40 MSTORE DUP1 PUSH2 0x20E0 PUSH2 0x210B JUMP JUMPDEST DUP2 MSTORE PUSH1 0x20 ADD PUSH2 0x203B PUSH2 0x210B JUMP JUMPDEST PUSH1 0x40 MLOAD DUP1 PUSH1 0x20 ADD PUSH1 0x40 MSTORE DUP1 PUSH1 0x1 SWAP1 PUSH1 0x20 DUP3 MUL DUP1 CALLDATASIZE DUP4 CALLDATACOPY POP SWAP2 SWAP3 SWAP2 POP POP JUMP JUMPDEST PUSH1 0x40 MLOAD DUP1 PUSH1 0x40 ADD PUSH1 0x40 MSTORE DUP1 PUSH1 0x2 SWAP1 PUSH1 0x20 DUP3 MUL DUP1 CALLDATASIZE DUP4 CALLDATACOPY POP SWAP2 SWAP3 SWAP2 POP POP JUMP JUMPDEST PUSH1 0x0 PUSH8 0xFFFFFFFFFFFFFFFF DUP4 GT ISZERO PUSH2 0x2143 JUMPI PUSH2 0x2143 PUSH2 0x2684 JUMP JUMPDEST DUP3 PUSH1 0x5 SHL PUSH2 0x2150 DUP2 PUSH2 0x2590 JUMP JUMPDEST SWAP2 POP DUP2 DUP4 DUP7 DUP4 DUP7 ADD GT ISZERO PUSH2 0x2163 JUMPI PUSH1 0x0 DUP1 REVERT JUMPDEST PUSH1 0x0 SWAP3 POP JUMPDEST DUP6 DUP4 LT ISZERO PUSH2 0x2187 JUMPI DUP1 CALLDATALOAD DUP3 MSTORE PUSH1 0x1 SWAP3 SWAP1 SWAP3 ADD SWAP2 PUSH1 0x20 SWAP2 DUP3 ADD SWAP2 ADD PUSH2 0x2168 JUMP JUMPDEST POP POP POP SWAP4 SWAP3 POP POP POP JUMP JUMPDEST PUSH1 0x0 DUP3 PUSH1 0x1F DUP4 ADD SLT PUSH2 0x21A1 JUMPI DUP1 DUP2 REVERT JUMPDEST PUSH1 0x40 PUSH2 0x21AC DUP2 PUSH2 0x2590 JUMP JUMPDEST DUP1 DUP5 DUP7 PUSH1 0x80 DUP8 ADD GT ISZERO PUSH2 0x21BD JUMPI DUP5 DUP6 REVERT JUMPDEST DUP5 JUMPDEST PUSH1 0x2 DUP2 LT ISZERO PUSH2 0x21E6 JUMPI PUSH2 0x21D2 DUP9 DUP4 PUSH2 0x21F2 JUMP JUMPDEST DUP5 MSTORE PUSH1 0x20 SWAP1 SWAP4 ADD SWAP3 SWAP1 DUP5 ADD SWAP1 PUSH1 0x1 ADD PUSH2 0x21BF JUMP JUMPDEST POP SWAP1 SWAP7 SWAP6 POP POP POP POP POP POP JUMP JUMPDEST PUSH1 0x0 DUP3 PUSH1 0x1F DUP4 ADD SLT PUSH2 0x2202 JUMPI DUP1 DUP2 REVERT JUMPDEST PUSH2 0x9B8 DUP4 PUSH1 0x2 DUP5 PUSH2 0x2129 JUMP JUMPDEST PUSH1 0x0 PUSH1 0x40 DUP3 DUP5 SUB SLT ISZERO PUSH2 0x221F JUMPI DUP1 DUP2 REVERT JUMPDEST PUSH2 0x2229 PUSH1 0x40 PUSH2 0x2590 JUMP JUMPDEST SWAP1 POP DUP2 CALLDATALOAD DUP2 MSTORE PUSH1 0x20 DUP3 ADD CALLDATALOAD PUSH1 0x20 DUP3 ADD MSTORE SWAP3 SWAP2 POP POP JUMP JUMPDEST PUSH1 0x0 PUSH1 0x80 DUP3 DUP5 SUB SLT ISZERO PUSH2 0x2250 JUMPI DUP1 DUP2 REVERT JUMPDEST PUSH2 0x225A PUSH1 0x40 PUSH2 0x2590 JUMP JUMPDEST SWAP1 POP PUSH2 0x2266 DUP4 DUP4 PUSH2 0x21F2 JUMP JUMPDEST DUP2 MSTORE PUSH2 0x2275 DUP4 PUSH1 0x40 DUP5 ADD PUSH2 0x21F2 JUMP JUMPDEST PUSH1 0x20 DUP3 ADD MSTORE SWAP3 SWAP2 POP POP JUMP JUMPDEST PUSH1 0x0 PUSH2 0x1E0 DUP3 DUP5 SUB SLT ISZERO PUSH2 0x2292 JUMPI DUP1 DUP2 REVERT JUMPDEST PUSH2 0x229C PUSH1 0xA0 PUSH2 0x2590 JUMP JUMPDEST SWAP1 POP PUSH2 0x22A8 DUP4 DUP4 PUSH2 0x220E JUMP JUMPDEST DUP2 MSTORE PUSH1 0x40 PUSH2 0x22B8 DUP5 DUP3 DUP6 ADD PUSH2 0x223F JUMP JUMPDEST PUSH1 0x20 DUP2 DUP2 DUP6 ADD MSTORE PUSH2 0x22CC DUP7 PUSH1 0xC0 DUP8 ADD PUSH2 0x223F JUMP JUMPDEST DUP4 DUP6 ADD MSTORE PUSH2 0x22DE DUP7 PUSH2 0x140 DUP8 ADD PUSH2 0x223F JUMP JUMPDEST PUSH1 0x60 DUP6 ADD MSTORE PUSH2 0x1C0 DUP6 ADD CALLDATALOAD SWAP2 POP PUSH8 0xFFFFFFFFFFFFFFFF DUP3 GT ISZERO PUSH2 0x2300 JUMPI PUSH1 0x0 DUP1 REVERT JUMPDEST DUP2 DUP6 ADD SWAP2 POP DUP6 PUSH1 0x1F DUP4 ADD SLT PUSH2 0x2314 JUMPI PUSH1 0x0 DUP1 REVERT JUMPDEST DUP2 CALLDATALOAD PUSH2 0x2327 PUSH2 0x2322 DUP3 PUSH2 0x25C1 JUMP JUMPDEST PUSH2 0x2590 JUMP JUMPDEST DUP1 DUP3 DUP3 MSTORE DUP4 DUP3 ADD SWAP2 POP DUP4 DUP6 ADD DUP10 DUP6 DUP6 PUSH1 0x6 SHL DUP9 ADD ADD GT ISZERO PUSH2 0x2347 JUMPI PUSH1 0x0 DUP1 REVERT JUMPDEST PUSH1 0x0 SWAP6 POP JUMPDEST DUP4 DUP7 LT ISZERO PUSH2 0x2372 JUMPI PUSH2 0x235E DUP11 DUP3 PUSH2 0x220E JUMP JUMPDEST DUP4 MSTORE PUSH1 0x1 SWAP6 SWAP1 SWAP6 ADD SWAP5 SWAP2 DUP5 ADD SWAP2 DUP7 ADD PUSH2 0x234C JUMP JUMPDEST POP PUSH1 0x80 DUP8 ADD MSTORE POP SWAP4 SWAP7 SWAP6 POP POP POP POP POP POP JUMP JUMPDEST PUSH1 0x0 DUP1 PUSH1 0x0 DUP1 PUSH2 0x2C0 DUP6 DUP8 SUB SLT ISZERO PUSH2 0x239A JUMPI DUP4 DUP5 REVERT JUMPDEST PUSH2 0x23A4 DUP7 DUP7 PUSH2 0x21F2 JUMP JUMPDEST SWAP4 POP PUSH2 0x23B3 DUP7 PUSH1 0x40 DUP8 ADD PUSH2 0x2191 JUMP JUMPDEST SWAP3 POP PUSH2 0x23C2 DUP7 PUSH1 0xC0 DUP8 ADD PUSH2 0x21F2 JUMP JUMPDEST SWAP2 POP DUP6 PUSH2 0x11F DUP7 ADD SLT PUSH2 0x23D3 JUMPI DUP1 DUP2 REVERT JUMPDEST PUSH2 0x23E3 DUP7 PUSH1 0xE PUSH2 0x100 DUP9 ADD PUSH2 0x2129 JUMP JUMPDEST SWAP1 POP SWAP3 SWAP6 SWAP2 SWAP5 POP SWAP3 POP JUMP JUMPDEST PUSH1 0x0 DUP1 PUSH1 0x0 DUP1 PUSH2 0x120 DUP6 DUP8 SUB SLT ISZERO PUSH2 0x2404 JUMPI DUP4 DUP5 REVERT JUMPDEST PUSH2 0x240E DUP7 DUP7 PUSH2 0x21F2 JUMP JUMPDEST SWAP4 POP PUSH2 0x241D DUP7 PUSH1 0x40 DUP8 ADD PUSH2 0x2191 JUMP JUMPDEST SWAP3 POP PUSH2 0x242C DUP7 PUSH1 0xC0 DUP8 ADD PUSH2 0x21F2 JUMP JUMPDEST SWAP2 POP DUP6 PUSH2 0x11F DUP7 ADD SLT PUSH2 0x243D JUMPI DUP1 DUP2 REVERT JUMPDEST PUSH2 0x23E3 DUP7 PUSH1 0x1 PUSH2 0x100 DUP9 ADD PUSH2 0x2129 JUMP JUMPDEST PUSH1 0x0 DUP1 PUSH1 0x0 DUP1 PUSH2 0x140 DUP6 DUP8 SUB SLT ISZERO PUSH2 0x2463 JUMPI DUP2 DUP3 REVERT JUMPDEST PUSH2 0x246D DUP7 DUP7 PUSH2 0x21F2 JUMP JUMPDEST SWAP4 POP PUSH2 0x247C DUP7 PUSH1 0x40 DUP8 ADD PUSH2 0x2191 JUMP JUMPDEST SWAP3 POP PUSH2 0x248B DUP7 PUSH1 0xC0 DUP8 ADD PUSH2 0x21F2 JUMP JUMPDEST SWAP2 POP PUSH2 0x23E3 DUP7 PUSH2 0x100 DUP8 ADD PUSH2 0x21F2 JUMP JUMPDEST PUSH1 0x0 DUP1 PUSH1 0x0 DUP1 PUSH1 0x0 PUSH2 0x140 DUP7 DUP9 SUB SLT ISZERO PUSH2 0x24B3 JUMPI DUP3 DUP4 REVERT JUMPDEST PUSH2 0x24BD DUP8 DUP8 PUSH2 0x21F2 JUMP JUMPDEST SWAP5 POP PUSH2 0x24CC DUP8 PUSH1 0x40 DUP9 ADD PUSH2 0x2191 JUMP JUMPDEST SWAP4 POP PUSH2 0x24DB DUP8 PUSH1 0xC0 DUP9 ADD PUSH2 0x21F2 JUMP JUMPDEST SWAP3 POP PUSH2 0x100 DUP7 ADD CALLDATALOAD PUSH8 0xFFFFFFFFFFFFFFFF DUP1 DUP3 GT ISZERO PUSH2 0x24F8 JUMPI DUP3 DUP4 REVERT JUMPDEST DUP2 DUP9 ADD SWAP2 POP DUP9 PUSH1 0x1F DUP4 ADD SLT PUSH2 0x250B JUMPI DUP3 DUP4 REVERT JUMPDEST DUP2 CALLDATALOAD PUSH1 0x20 PUSH2 0x251B PUSH2 0x2322 DUP4 PUSH2 0x25C1 JUMP JUMPDEST DUP1 DUP4 DUP3 MSTORE DUP3 DUP3 ADD SWAP2 POP DUP3 DUP7 ADD DUP14 DUP5 DUP7 PUSH1 0x5 SHL DUP10 ADD ADD GT ISZERO PUSH2 0x253A JUMPI DUP8 DUP9 REVERT JUMPDEST DUP8 SWAP7 POP JUMPDEST DUP5 DUP8 LT ISZERO PUSH2 0x255C JUMPI DUP1 CALLDATALOAD DUP4 MSTORE PUSH1 0x1 SWAP7 SWAP1 SWAP7 ADD SWAP6 SWAP2 DUP4 ADD SWAP2 DUP4 ADD PUSH2 0x253E JUMP JUMPDEST POP SWAP7 POP POP POP POP PUSH2 0x120 DUP9 ADD CALLDATALOAD SWAP2 POP DUP1 DUP3 GT ISZERO PUSH2 0x2576 JUMPI DUP3 DUP4 REVERT JUMPDEST POP PUSH2 0x2583 DUP9 DUP3 DUP10 ADD PUSH2 0x2280 JUMP JUMPDEST SWAP2 POP POP SWAP3 SWAP6 POP SWAP3 SWAP6 SWAP1 SWAP4 POP JUMP JUMPDEST PUSH1 0x40 MLOAD PUSH1 0x1F DUP3 ADD PUSH1 0x1F NOT AND DUP2 ADD PUSH8 0xFFFFFFFFFFFFFFFF DUP2 GT DUP3 DUP3 LT OR ISZERO PUSH2 0x25B9 JUMPI PUSH2 0x25B9 PUSH2 0x2684 JUMP JUMPDEST PUSH1 0x40 MSTORE SWAP2 SWAP1 POP JUMP JUMPDEST PUSH1 0x0 PUSH8 0xFFFFFFFFFFFFFFFF DUP3 GT ISZERO PUSH2 0x25DB JUMPI PUSH2 0x25DB PUSH2 0x2684 JUMP JUMPDEST POP PUSH1 0x5 SHL PUSH1 0x20 ADD SWAP1 JUMP JUMPDEST PUSH1 0x0 DUP3 NOT DUP3 GT ISZERO PUSH2 0x25F8 JUMPI PUSH2 0x25F8 PUSH2 0x266E JUMP JUMPDEST POP ADD SWAP1 JUMP JUMPDEST PUSH1 0x0 DUP2 PUSH1 0x0 NOT DIV DUP4 GT DUP3 ISZERO ISZERO AND ISZERO PUSH2 0x2617 JUMPI PUSH2 0x2617 PUSH2 0x266E JUMP JUMPDEST POP MUL SWAP1 JUMP JUMPDEST PUSH1 0x0 DUP3 DUP3 LT ISZERO PUSH2 0x262E JUMPI PUSH2 0x262E PUSH2 0x266E JUMP JUMPDEST POP SUB SWAP1 JUMP JUMPDEST PUSH1 0x0 PUSH1 0x0 NOT DUP3 EQ ISZERO PUSH2 0x2647 JUMPI PUSH2 0x2647 PUSH2 0x266E JUMP JUMPDEST POP PUSH1 0x1 ADD SWAP1 JUMP JUMPDEST PUSH1 0x0 DUP3 PUSH2 0x2669 JUMPI PUSH4 0x4E487B71 PUSH1 0xE0 SHL DUP2 MSTORE PUSH1 0x12 PUSH1 0x4 MSTORE PUSH1 0x24 DUP2 REVERT JUMPDEST POP MOD SWAP1 JUMP JUMPDEST PUSH4 0x4E487B71 PUSH1 0xE0 SHL PUSH1 0x0 MSTORE PUSH1 0x11 PUSH1 0x4 MSTORE PUSH1 0x24 PUSH1 0x0 REVERT JUMPDEST PUSH4 0x4E487B71 PUSH1 0xE0 SHL PUSH1 0x0 MSTORE PUSH1 0x41 PUSH1 0x4 MSTORE PUSH1 0x24 PUSH1 0x0 REVERT INVALID LOG1 PUSH5 0x736F6C6343 STOP ADDMOD SUB STOP EXP "
        },
        "methodIdentifiers": {
          "verifyHashCheckBitsProof(uint256[2],uint256[2][2],uint256[2],uint256[1])": "6baed4d0",
          "verifyHashCheckProof(uint256[2],uint256[2][2],uint256[2],uint256[2])": "2159cf01",
          "verifyProof(uint256[2],uint256[2][2],uint256[2],uint256[],Verifier.VerifyingKey)": "57c25080",
          "verifySigCheckProof(uint256[2],uint256[2][2],uint256[2],uint256[14])": "5c510454"
        }
      }
    }
  }
}