{
  "_format": "hh-sol-artifact-1",
  "contractName": "CoreValidator",
  "sourceName": "contracts/CoreValidator.sol",
  "abi": [
    {
      "inputs": [],
      "stateMutability": "nonpayable",
      "type": "constructor"
    },
    {
      "anonymous": false,
      "inputs": [
        {
          "indexed": false,
          "internalType": "uint256",
          "name": "pfsAccepted",
          "type": "uint256"
        }
      ],
      "name": "ProofVerified",
      "type": "event"
    },
    {
      "inputs": [],
      "name": "MAX_GROUPS",
      "outputs": [
        {
          "internalType": "uint256",
          "name": "",
          "type": "uint256"
        }
      ],
      "stateMutability": "view",
      "type": "function"
    },
    {
      "inputs": [],
      "name": "MAX_USERS",
      "outputs": [
        {
          "internalType": "uint256",
          "name": "",
          "type": "uint256"
        }
      ],
      "stateMutability": "view",
      "type": "function"
    },
    {
      "inputs": [
        {
          "internalType": "string",
          "name": "groupName",
          "type": "string"
        },
        {
          "internalType": "uint256",
          "name": "userHash",
          "type": "uint256"
        }
      ],
      "name": "addUserToGroup",
      "outputs": [],
      "stateMutability": "nonpayable",
      "type": "function"
    },
    {
      "inputs": [
        {
          "internalType": "uint256",
          "name": "",
          "type": "uint256"
        }
      ],
      "name": "confessions",
      "outputs": [
        {
          "internalType": "uint256",
          "name": "id",
          "type": "uint256"
        },
        {
          "internalType": "string",
          "name": "text",
          "type": "string"
        },
        {
          "internalType": "string",
          "name": "group",
          "type": "string"
        },
        {
          "internalType": "bool",
          "name": "verified",
          "type": "bool"
        }
      ],
      "stateMutability": "view",
      "type": "function"
    },
    {
      "inputs": [
        {
          "internalType": "string",
          "name": "groupName",
          "type": "string"
        },
        {
          "internalType": "uint256",
          "name": "passwordHash",
          "type": "uint256"
        }
      ],
      "name": "createGroup",
      "outputs": [],
      "stateMutability": "nonpayable",
      "type": "function"
    },
    {
      "inputs": [
        {
          "internalType": "string",
          "name": "message",
          "type": "string"
        },
        {
          "internalType": "string",
          "name": "groupName",
          "type": "string"
        }
      ],
      "name": "createMessage",
      "outputs": [],
      "stateMutability": "nonpayable",
      "type": "function"
    },
    {
      "inputs": [
        {
          "internalType": "uint256",
          "name": "groupID",
          "type": "uint256"
        }
      ],
      "name": "getAllHashedUsersByGroupID",
      "outputs": [
        {
          "internalType": "uint256[10]",
          "name": "",
          "type": "uint256[10]"
        }
      ],
      "stateMutability": "view",
      "type": "function"
    },
    {
      "inputs": [
        {
          "internalType": "string",
          "name": "groupName",
          "type": "string"
        }
      ],
      "name": "getAllHashedUsersByGroupName",
      "outputs": [
        {
          "internalType": "uint256[10]",
          "name": "",
          "type": "uint256[10]"
        }
      ],
      "stateMutability": "view",
      "type": "function"
    },
    {
      "inputs": [
        {
          "internalType": "uint256",
          "name": "confessionID",
          "type": "uint256"
        }
      ],
      "name": "getConfessionByID",
      "outputs": [
        {
          "components": [
            {
              "internalType": "uint256",
              "name": "id",
              "type": "uint256"
            },
            {
              "internalType": "string",
              "name": "text",
              "type": "string"
            },
            {
              "internalType": "string",
              "name": "group",
              "type": "string"
            },
            {
              "internalType": "bool",
              "name": "verified",
              "type": "bool"
            }
          ],
          "internalType": "struct ContractStorage.Message",
          "name": "",
          "type": "tuple"
        }
      ],
      "stateMutability": "view",
      "type": "function"
    },
    {
      "inputs": [],
      "name": "getConfessions",
      "outputs": [
        {
          "components": [
            {
              "internalType": "uint256",
              "name": "id",
              "type": "uint256"
            },
            {
              "internalType": "string",
              "name": "text",
              "type": "string"
            },
            {
              "internalType": "string",
              "name": "group",
              "type": "string"
            },
            {
              "internalType": "bool",
              "name": "verified",
              "type": "bool"
            }
          ],
          "internalType": "struct ContractStorage.Message[]",
          "name": "",
          "type": "tuple[]"
        }
      ],
      "stateMutability": "view",
      "type": "function"
    },
    {
      "inputs": [
        {
          "internalType": "uint256",
          "name": "groupID",
          "type": "uint256"
        }
      ],
      "name": "getGroupByID",
      "outputs": [
        {
          "components": [
            {
              "internalType": "string",
              "name": "name",
              "type": "string"
            },
            {
              "internalType": "uint256",
              "name": "passwordHash",
              "type": "uint256"
            },
            {
              "internalType": "uint256[10]",
              "name": "users",
              "type": "uint256[10]"
            },
            {
              "internalType": "uint256",
              "name": "userCount",
              "type": "uint256"
            }
          ],
          "internalType": "struct ContractStorage.Group",
          "name": "",
          "type": "tuple"
        }
      ],
      "stateMutability": "view",
      "type": "function"
    },
    {
      "inputs": [],
      "name": "getGroups",
      "outputs": [
        {
          "components": [
            {
              "internalType": "string",
              "name": "name",
              "type": "string"
            },
            {
              "internalType": "uint256",
              "name": "passwordHash",
              "type": "uint256"
            },
            {
              "internalType": "uint256[10]",
              "name": "users",
              "type": "uint256[10]"
            },
            {
              "internalType": "uint256",
              "name": "userCount",
              "type": "uint256"
            }
          ],
          "internalType": "struct ContractStorage.Group[10]",
          "name": "",
          "type": "tuple[10]"
        }
      ],
      "stateMutability": "view",
      "type": "function"
    },
    {
      "inputs": [],
      "name": "groupCount",
      "outputs": [
        {
          "internalType": "uint256",
          "name": "",
          "type": "uint256"
        }
      ],
      "stateMutability": "view",
      "type": "function"
    },
    {
      "inputs": [
        {
          "internalType": "string",
          "name": "",
          "type": "string"
        }
      ],
      "name": "groupExists",
      "outputs": [
        {
          "internalType": "bool",
          "name": "",
          "type": "bool"
        }
      ],
      "stateMutability": "view",
      "type": "function"
    },
    {
      "inputs": [
        {
          "internalType": "string",
          "name": "",
          "type": "string"
        }
      ],
      "name": "groupIDs",
      "outputs": [
        {
          "internalType": "uint256",
          "name": "",
          "type": "uint256"
        }
      ],
      "stateMutability": "view",
      "type": "function"
    },
    {
      "inputs": [
        {
          "internalType": "uint256",
          "name": "",
          "type": "uint256"
        }
      ],
      "name": "groups",
      "outputs": [
        {
          "internalType": "string",
          "name": "name",
          "type": "string"
        },
        {
          "internalType": "uint256",
          "name": "passwordHash",
          "type": "uint256"
        },
        {
          "internalType": "uint256",
          "name": "userCount",
          "type": "uint256"
        }
      ],
      "stateMutability": "view",
      "type": "function"
    },
    {
      "inputs": [],
      "name": "pfsVerified",
      "outputs": [
        {
          "internalType": "uint256",
          "name": "",
          "type": "uint256"
        }
      ],
      "stateMutability": "view",
      "type": "function"
    },
    {
      "inputs": [
        {
          "internalType": "uint256[2]",
          "name": "a",
          "type": "uint256[2]"
        },
        {
          "internalType": "uint256[2][2]",
          "name": "b",
          "type": "uint256[2][2]"
        },
        {
          "internalType": "uint256[2]",
          "name": "c",
          "type": "uint256[2]"
        },
        {
          "internalType": "uint256[14]",
          "name": "input",
          "type": "uint256[14]"
        },
        {
          "internalType": "string",
          "name": "message",
          "type": "string"
        },
        {
          "internalType": "string",
          "name": "groupName",
          "type": "string"
        }
      ],
      "name": "verifyAndAddMessage",
      "outputs": [
        {
          "internalType": "bool",
          "name": "",
          "type": "bool"
        }
      ],
      "stateMutability": "nonpayable",
      "type": "function"
    },
    {
      "inputs": [
        {
          "internalType": "uint256[2]",
          "name": "keyA",
          "type": "uint256[2]"
        },
        {
          "internalType": "uint256[2][2]",
          "name": "keyB",
          "type": "uint256[2][2]"
        },
        {
          "internalType": "uint256[2]",
          "name": "keyC",
          "type": "uint256[2]"
        },
        {
          "internalType": "uint256[2]",
          "name": "keyInput",
          "type": "uint256[2]"
        },
        {
          "internalType": "uint256[2]",
          "name": "passwordA",
          "type": "uint256[2]"
        },
        {
          "internalType": "uint256[2][2]",
          "name": "passwordB",
          "type": "uint256[2][2]"
        },
        {
          "internalType": "uint256[2]",
          "name": "passwordC",
          "type": "uint256[2]"
        },
        {
          "internalType": "uint256[2]",
          "name": "passwordInput",
          "type": "uint256[2]"
        },
        {
          "internalType": "string",
          "name": "groupName",
          "type": "string"
        }
      ],
      "name": "verifyAndStoreRegistration",
      "outputs": [
        {
          "internalType": "bool",
          "name": "",
          "type": "bool"
        }
      ],
      "stateMutability": "nonpayable",
      "type": "function"
    }
  ],
  "bytecode": "0x6080604052600160855534801561001557600080fd5b506000608755611edc8061002a6000396000f3fe608060405234801561001057600080fd5b50600436106101515760003560e01c806396324bd4116100cd578063e1b4fedd11610081578063f3451b2f11610066578063f3451b2f14610314578063fa6ac13114610314578063fc9a47ed1461031c57610151565b8063e1b4fedd146102ec578063e367fc6a1461030157610151565b8063cdd781e2116100b2578063cdd781e214610298578063ceb9c570146102c6578063dc6af89f146102d957610151565b806396324bd414610261578063c72b51761461028357610151565b80634b48f2e91161012457806365700b701161010957806365700b70146102155780637cf7b946146102355780638f23b3261461025857610151565b80634b48f2e9146101d55780635aab66351461020057610151565b806315796fb2146101565780632c166ab2146101725780633af1159f1461019257806343a9ae7c146101b2575b600080fd5b61015f60865481565b6040519081526020015b60405180910390f35b610185610180366004611a5c565b61032f565b6040516101699190611c81565b6101a56101a0366004611a5c565b6103ee565b6040516101699190611d65565b6101c56101c0366004611888565b6105eb565b6040519015158152602001610169565b61015f6101e336600461197d565b805160208183018101805160018252928201919093012091525481565b61021361020e366004611a19565b6108c4565b005b610228610223366004611a5c565b6109f2565b6040516101699190611d52565b610248610243366004611a5c565b610b61565b6040516101699493929190611d78565b61015f60855481565b61027461026f366004611a5c565b610cb0565b60405161016993929190611d2d565b61028b610d63565b6040516101699190611bd2565b6101c56102a636600461197d565b805160208183018101805160848252928201919093012091525460ff1681565b6101856102d436600461197d565b610e8f565b6102136102e73660046119b8565b610ec4565b6102f4610fd7565b6040516101699190611c20565b61021361030f366004611a19565b611232565b61015f600a81565b6101c561032a366004611791565b6113ec565b61033761152d565b816085541161038d5760405162461bcd60e51b815260206004820152601260248201527f4e6f7420656e6f7567682067726f75707321000000000000000000000000000060448201526064015b60405180910390fd5b600282600a81106103ae57634e487b7160e01b600052603260045260246000fd5b6040805161014081019182905292600d9290920290910160020190600a9082845b8154815260200190600101908083116103cf5750505050509050919050565b61041b60405180608001604052806000815260200160608152602001606081526020016000151581525090565b816087541161046c5760405162461bcd60e51b815260206004820152601760248201527f4e6f7420656e6f75676820636f6e66657373696f6e73210000000000000000006044820152606401610384565b6000828154811061048d57634e487b7160e01b600052603260045260246000fd5b9060005260206000209060040201604051806080016040529081600082015481526020016001820180546104c090611e4d565b80601f01602080910402602001604051908101604052809291908181526020018280546104ec90611e4d565b80156105395780601f1061050e57610100808354040283529160200191610539565b820191906000526020600020905b81548152906001019060200180831161051c57829003601f168201915b5050505050815260200160028201805461055290611e4d565b80601f016020809104026020016040519081016040528092919081815260200182805461057e90611e4d565b80156105cb5780601f106105a0576101008083540402835291602001916105cb565b820191906000526020600020905b8154815290600101906020018083116105ae57829003601f168201915b50505091835250506003919091015460ff16151560209091015292915050565b600060026001836040516105ff9190611bb6565b908152602001604051809103902054600a811061062c57634e487b7160e01b600052603260045260246000fd5b600d0201600101548360006002811061065557634e487b7160e01b600052603260045260246000fd5b6020020151146106a75760405162461bcd60e51b815260206004820152601060248201527f57726f6e672070617373206861736821000000000000000000000000000000006044820152606401610384565b604051636f7f057760e11b815273__$6b78ae7bf09e0e72535be6401663f3a543$__9063defe0aee906106e4908d908d908d908d90600401611ced565b60206040518083038186803b1580156106fc57600080fd5b505af4158015610710573d6000803e3d6000fd5b505050506040513d601f19601f820116820180604052508101906107349190611956565b6107805760405162461bcd60e51b815260206004820152601260248201527f4b65792070726f6f6620696e76616c69642100000000000000000000000000006044820152606401610384565b604051632159cf0160e01b815273__$6b78ae7bf09e0e72535be6401663f3a543$__90632159cf01906107bd908990899089908990600401611ced565b60206040518083038186803b1580156107d557600080fd5b505af41580156107e9573d6000803e3d6000fd5b505050506040513d601f19601f8201168201806040525081019061080d9190611956565b6108595760405162461bcd60e51b815260206004820152601760248201527f50617373776f72642070726f6f6620696e76616c6964210000000000000000006044820152606401610384565b86516108669083906108c4565b6001608660008282546108799190611e09565b90915550506086546040519081527f4eb5ee08f6bd1352ed7b0dac0ee5e5b7cb984b0477d694d9db613b705f47f2ab9060200160405180910390a15060019998505050505050505050565b60006001836040516108d69190611bb6565b90815260200160405180910390205490506000600282600a811061090a57634e487b7160e01b600052603260045260246000fd5b600d0201600c01549050600a81106109645760405162461bcd60e51b815260206004820152600f60248201527f546f6f206d616e792075736572732100000000000000000000000000000000006044820152606401610384565b82600283600a811061098657634e487b7160e01b600052603260045260246000fd5b600d020160020182600a81106109ac57634e487b7160e01b600052603260045260246000fd5b0155600282600a81106109cf57634e487b7160e01b600052603260045260246000fd5b600d0201600c0160008154809291906109e790611e88565b919050555050505050565b6109fa61154c565b8160855411610a4b5760405162461bcd60e51b815260206004820152601260248201527f4e6f7420656e6f7567682067726f7570732100000000000000000000000000006044820152606401610384565b600282600a8110610a6c57634e487b7160e01b600052603260045260246000fd5b600d0201604051806080016040529081600082018054610a8b90611e4d565b80601f0160208091040260200160405190810160405280929190818152602001828054610ab790611e4d565b8015610b045780601f10610ad957610100808354040283529160200191610b04565b820191906000526020600020905b815481529060010190602001808311610ae757829003601f168201915b505050918352505060018201546020820152604080516101408101825291019060028301600a8282826020028201915b815481526020019060010190808311610b345750505050508152602001600c820154815250509050919050565b60008181548110610b7157600080fd5b60009182526020909120600490910201805460018201805491935090610b9690611e4d565b80601f0160208091040260200160405190810160405280929190818152602001828054610bc290611e4d565b8015610c0f5780601f10610be457610100808354040283529160200191610c0f565b820191906000526020600020905b815481529060010190602001808311610bf257829003601f168201915b505050505090806002018054610c2490611e4d565b80601f0160208091040260200160405190810160405280929190818152602001828054610c5090611e4d565b8015610c9d5780601f10610c7257610100808354040283529160200191610c9d565b820191906000526020600020905b815481529060010190602001808311610c8057829003601f168201915b5050506003909301549192505060ff1684565b600281600a8110610cc057600080fd5b600d020180549091508190610cd490611e4d565b80601f0160208091040260200160405190810160405280929190818152602001828054610d0090611e4d565b8015610d4d5780601f10610d2257610100808354040283529160200191610d4d565b820191906000526020600020905b815481529060010190602001808311610d3057829003601f168201915b50505050509080600101549080600c0154905083565b610d6b61157a565b6040805161014081019091526002600a6000835b82821015610e86578382600d0201604051806080016040529081600082018054610da890611e4d565b80601f0160208091040260200160405190810160405280929190818152602001828054610dd490611e4d565b8015610e215780601f10610df657610100808354040283529160200191610e21565b820191906000526020600020905b815481529060010190602001808311610e0457829003601f168201915b505050918352505060018201546020820152604080516101408101825291019060028301600a8282826020028201915b815481526020019060010190808311610e515750505050508152602001600c8201548152505081526020019060010190610d7f565b50505050905090565b610e9761152d565b610ebe600183604051610eaa9190611bb6565b90815260200160405180910390205461032f565b92915050565b610ef160405180608001604052806000815260200160608152602001606081526020016000151581525090565b6087548152602080820184815260408301849052600060608401819052805460018101825590805283517f290decd9548b62a8d60345a988386fc84ba6bc95484008f6362f93160ef3e5636004909202918201908155915180518594610f7b937f290decd9548b62a8d60345a988386fc84ba6bc95484008f6362f93160ef3e564019201906115a8565b5060408201518051610f979160028401916020909101906115a8565b5060608201518160030160006101000a81548160ff0219169083151502179055505050600160876000828254610fcd9190611e09565b9091555050505050565b60875460609060008167ffffffffffffffff81111561100657634e487b7160e01b600052604160045260246000fd5b60405190808252806020026020018201604052801561106457816020015b61105160405180608001604052806000815260200160608152602001606081526020016000151581525090565b8152602001906001900390816110245790505b50905060005b8281101561122b576000818154811061109357634e487b7160e01b600052603260045260246000fd5b9060005260206000209060040201604051806080016040529081600082015481526020016001820180546110c690611e4d565b80601f01602080910402602001604051908101604052809291908181526020018280546110f290611e4d565b801561113f5780601f106111145761010080835404028352916020019161113f565b820191906000526020600020905b81548152906001019060200180831161112257829003601f168201915b5050505050815260200160028201805461115890611e4d565b80601f016020809104026020016040519081016040528092919081815260200182805461118490611e4d565b80156111d15780601f106111a6576101008083540402835291602001916111d1565b820191906000526020600020905b8154815290600101906020018083116111b457829003601f168201915b50505091835250506003919091015460ff161515602090910152825183908390811061120d57634e487b7160e01b600052603260045260246000fd5b6020026020010181905250808061122390611e88565b91505061106a565b5091505090565b6084826040516112429190611bb6565b9081526040519081900360200190205460ff16156112a25760405162461bcd60e51b815260206004820152601560248201527f47726f757020616c7265616479206578697374732100000000000000000000006044820152606401610384565b600a608554106112f45760405162461bcd60e51b815260206004820152601060248201527f546f6f206d616e792067726f75707321000000000000000000000000000000006044820152606401610384565b6112fc61154c565b6020810182905282815260006060820152608554604051600190611321908690611bb6565b90815260200160405180910390208190555060016084846040516113459190611bb6565b908152604051908190036020019020805491151560ff199092169190911790556085548190600290600a811061138b57634e487b7160e01b600052603260045260246000fd5b600d020160008201518160000190805190602001906113ab9291906115a8565b506020820151600182015560408201516113cb906002830190600a61162c565b50606082015181600c0155905050600160856000828254610fcd9190611e09565b604051631714411560e21b815260009073__$6b78ae7bf09e0e72535be6401663f3a543$__90635c5104549061142c908a908a908a908a90600401611c90565b60206040518083038186803b15801561144457600080fd5b505af4158015611458573d6000803e3d6000fd5b505050506040513d601f19601f8201168201806040525081019061147c9190611956565b6114c85760405162461bcd60e51b815260206004820152600e60248201527f50726f6f6620696e76616c6964210000000000000000000000000000000000006044820152606401610384565b6001608660008282546114db9190611e09565b90915550506086546040519081527f4eb5ee08f6bd1352ed7b0dac0ee5e5b7cb984b0477d694d9db613b705f47f2ab9060200160405180910390a16115208383610ec4565b5060019695505050505050565b604051806101400160405280600a906020820280368337509192915050565b6040518060800160405280606081526020016000815260200161156d61152d565b8152602001600081525090565b604051806101400160405280600a905b61159261154c565b81526020019060019003908161158a5790505090565b8280546115b490611e4d565b90600052602060002090601f0160209004810192826115d6576000855561161c565b82601f106115ef57805160ff191683800117855561161c565b8280016001018555821561161c579182015b8281111561161c578251825591602001919060010190611601565b50611628929150611659565b5090565b82600a810192821561161c579160200282018281111561161c578251825591602001919060010190611601565b5b80821115611628576000815560010161165a565b600082601f83011261167e578081fd5b604061168981611db7565b80848660808701111561169a578485fd5b845b60028110156116c3576116af88836116cf565b84526020909301929084019060010161169c565b50909695505050505050565b600082601f8301126116df578081fd5b6116e96040611db7565b8083856040860111156116fa578384fd5b835b600281101561171b5781358452602093840193909101906001016116fc565b509095945050505050565b600082601f830112611736578081fd5b813567ffffffffffffffff81111561175057611750611eb9565b611763601f8201601f1916602001611db7565b818152846020838601011115611777578283fd5b816020850160208301379081016020019190915292915050565b60008060008060008061030087890312156117aa578182fd5b6117b488886116cf565b95506117c3886040890161166e565b94506117d28860c089016116cf565b93508761011f8801126117e3578182fd5b600e6117f66117f182611de8565b611db7565b806101008a016102c08b018c81111561180d578687fd5b865b8581101561182d57823585526020948501949092019160010161180f565b509196505035915067ffffffffffffffff90508082111561184c578384fd5b6118588a838b01611726565b93506102e089013591508082111561186e578283fd5b5061187b89828a01611726565b9150509295509295509295565b60008060008060008060008060006102a08a8c0312156118a6578283fd5b6118b08b8b6116cf565b98506118bf8b60408c0161166e565b97506118ce8b60c08c016116cf565b96506118de8b6101008c016116cf565b95506118ee8b6101408c016116cf565b94506118fe8b6101808c0161166e565b935061190e8b6102008c016116cf565b925061191e8b6102408c016116cf565b91506102808a013567ffffffffffffffff81111561193a578182fd5b6119468c828d01611726565b9150509295985092959850929598565b600060208284031215611967578081fd5b81518015158114611976578182fd5b9392505050565b60006020828403121561198e578081fd5b813567ffffffffffffffff8111156119a4578182fd5b6119b084828501611726565b949350505050565b600080604083850312156119ca578182fd5b823567ffffffffffffffff808211156119e1578384fd5b6119ed86838701611726565b93506020850135915080821115611a02578283fd5b50611a0f85828601611726565b9150509250929050565b60008060408385031215611a2b578182fd5b823567ffffffffffffffff811115611a41578283fd5b611a4d85828601611726565b95602094909401359450505050565b600060208284031215611a6d578081fd5b5035919050565b8060005b6002811015611aa257611a8c848351611acb565b6040939093019260209190910190600101611a78565b50505050565b8060005b600a811015611aa2578151845260209384019390910190600101611aac565b8060005b6002811015611aa2578151845260209384019390910190600101611acf565b60008151808452611b06816020860160208601611e21565b601f01601f19169290920160200192915050565b60006101a08251818552611b3082860182611aee565b915050602083015160208501526040830151611b4f6040860182611aa8565b5060608301516101808501528091505092915050565b600081518352602082015160806020850152611b846080850182611aee565b905060408301518482036040860152611b9d8282611aee565b9150506060830151151560608501528091505092915050565b60008251611bc8818460208701611e21565b9190910192915050565b6020808252600090610160830183820185845b600a811015611c1457601f19878503018352611c02848351611b1a565b93509184019190840190600101611be5565b50919695505050505050565b6000602080830181845280855180835260408601915060408160051b8701019250838701855b82811015611c7457603f19888603018452611c62858351611b65565b94509285019290850190600101611c46565b5092979650505050505050565b6101408101610ebe8284611aa8565b6102c08101611c9f8287611acb565b611cac6040830186611a74565b611cb960c0830185611acb565b61010082018360005b600e811015611ce1578151835260209283019290910190600101611cc2565b50505095945050505050565b6101408101611cfc8287611acb565b611d096040830186611a74565b611d1660c0830185611acb565b611d24610100830184611acb565b95945050505050565b600060608252611d406060830186611aee565b60208301949094525060400152919050565b6000602082526119766020830184611b1a565b6000602082526119766020830184611b65565b600085825260806020830152611d916080830186611aee565b8281036040840152611da38186611aee565b915050821515606083015295945050505050565b604051601f8201601f1916810167ffffffffffffffff81118282101715611de057611de0611eb9565b604052919050565b600067ffffffffffffffff821115611e0257611e02611eb9565b5060051b90565b60008219821115611e1c57611e1c611ea3565b500190565b60005b83811015611e3c578181015183820152602001611e24565b83811115611aa25750506000910152565b600181811c90821680611e6157607f821691505b60208210811415611e8257634e487b7160e01b600052602260045260246000fd5b50919050565b6000600019821415611e9c57611e9c611ea3565b5060010190565b634e487b7160e01b600052601160045260246000fd5b634e487b7160e01b600052604160045260246000fdfea164736f6c6343000803000a",
  "linkReferences": {
    "contracts/Verifier.sol": {
      "Verifier": [
        {
          "length": 20,
          "start": 1760
        },
        {
          "length": 20,
          "start": 1977
        },
        {
          "length": 20,
          "start": 5160
        }
      ]
    }
  },
  "deployedLinkReferences": {
    "contracts/Verifier.sol": {
      "Verifier": [
        {
          "length": 20,
          "start": 1718
        },
        {
          "length": 20,
          "start": 1935
        },
        {
          "length": 20,
          "start": 5118
        }
      ]
    }
  }
}