{
  "_format": "hh-sol-artifact-1",
  "contractName": "CoreValidator",
  "sourceName": "contracts/CoreValidator.sol",
  "abi": [
    {
      "inputs": [],
      "stateMutability": "nonpayable",
      "type": "constructor"
    },
    {
      "anonymous": false,
      "inputs": [
        {
          "indexed": false,
          "internalType": "uint256",
          "name": "pfsAccepted",
          "type": "uint256"
        }
      ],
      "name": "ProofVerified",
      "type": "event"
    },
    {
      "inputs": [],
      "name": "MAX_GROUPS",
      "outputs": [
        {
          "internalType": "uint256",
          "name": "",
          "type": "uint256"
        }
      ],
      "stateMutability": "view",
      "type": "function"
    },
    {
      "inputs": [],
      "name": "MAX_USERS",
      "outputs": [
        {
          "internalType": "uint256",
          "name": "",
          "type": "uint256"
        }
      ],
      "stateMutability": "view",
      "type": "function"
    },
    {
      "inputs": [
        {
          "internalType": "string",
          "name": "groupName",
          "type": "string"
        },
        {
          "internalType": "uint256",
          "name": "userHash",
          "type": "uint256"
        }
      ],
      "name": "addUserToGroup",
      "outputs": [],
      "stateMutability": "nonpayable",
      "type": "function"
    },
    {
      "inputs": [
        {
          "internalType": "uint256",
          "name": "",
          "type": "uint256"
        }
      ],
      "name": "confessions",
      "outputs": [
        {
          "internalType": "uint256",
          "name": "id",
          "type": "uint256"
        },
        {
          "internalType": "string",
          "name": "text",
          "type": "string"
        },
        {
          "internalType": "string",
          "name": "group",
          "type": "string"
        },
        {
          "internalType": "bool",
          "name": "verified",
          "type": "bool"
        }
      ],
      "stateMutability": "view",
      "type": "function"
    },
    {
      "inputs": [
        {
          "internalType": "string",
          "name": "groupName",
          "type": "string"
        },
        {
          "internalType": "uint256",
          "name": "passwordHash",
          "type": "uint256"
        }
      ],
      "name": "createGroup",
      "outputs": [],
      "stateMutability": "nonpayable",
      "type": "function"
    },
    {
      "inputs": [
        {
          "internalType": "string",
          "name": "message",
          "type": "string"
        },
        {
          "internalType": "string",
          "name": "groupName",
          "type": "string"
        }
      ],
      "name": "createMessage",
      "outputs": [],
      "stateMutability": "nonpayable",
      "type": "function"
    },
    {
      "inputs": [
        {
          "internalType": "uint256",
          "name": "groupID",
          "type": "uint256"
        }
      ],
      "name": "getAllHashedUsersByGroupID",
      "outputs": [
        {
          "internalType": "uint256[10]",
          "name": "",
          "type": "uint256[10]"
        }
      ],
      "stateMutability": "view",
      "type": "function"
    },
    {
      "inputs": [
        {
          "internalType": "string",
          "name": "groupName",
          "type": "string"
        }
      ],
      "name": "getAllHashedUsersByGroupName",
      "outputs": [
        {
          "internalType": "uint256[10]",
          "name": "",
          "type": "uint256[10]"
        }
      ],
      "stateMutability": "view",
      "type": "function"
    },
    {
      "inputs": [
        {
          "internalType": "uint256",
          "name": "confessionID",
          "type": "uint256"
        }
      ],
      "name": "getConfessionByID",
      "outputs": [
        {
          "components": [
            {
              "internalType": "uint256",
              "name": "id",
              "type": "uint256"
            },
            {
              "internalType": "string",
              "name": "text",
              "type": "string"
            },
            {
              "internalType": "string",
              "name": "group",
              "type": "string"
            },
            {
              "internalType": "bool",
              "name": "verified",
              "type": "bool"
            }
          ],
          "internalType": "struct ContractStorage.Message",
          "name": "",
          "type": "tuple"
        }
      ],
      "stateMutability": "view",
      "type": "function"
    },
    {
      "inputs": [],
      "name": "getConfessions",
      "outputs": [
        {
          "components": [
            {
              "internalType": "uint256",
              "name": "id",
              "type": "uint256"
            },
            {
              "internalType": "string",
              "name": "text",
              "type": "string"
            },
            {
              "internalType": "string",
              "name": "group",
              "type": "string"
            },
            {
              "internalType": "bool",
              "name": "verified",
              "type": "bool"
            }
          ],
          "internalType": "struct ContractStorage.Message[]",
          "name": "",
          "type": "tuple[]"
        }
      ],
      "stateMutability": "view",
      "type": "function"
    },
    {
      "inputs": [
        {
          "internalType": "uint256",
          "name": "groupID",
          "type": "uint256"
        }
      ],
      "name": "getGroupByID",
      "outputs": [
        {
          "components": [
            {
              "internalType": "string",
              "name": "name",
              "type": "string"
            },
            {
              "internalType": "uint256",
              "name": "passwordHash",
              "type": "uint256"
            },
            {
              "internalType": "uint256[10]",
              "name": "users",
              "type": "uint256[10]"
            },
            {
              "internalType": "uint256",
              "name": "userCount",
              "type": "uint256"
            }
          ],
          "internalType": "struct ContractStorage.Group",
          "name": "",
          "type": "tuple"
        }
      ],
      "stateMutability": "view",
      "type": "function"
    },
    {
      "inputs": [],
      "name": "getGroups",
      "outputs": [
        {
          "components": [
            {
              "internalType": "string",
              "name": "name",
              "type": "string"
            },
            {
              "internalType": "uint256",
              "name": "passwordHash",
              "type": "uint256"
            },
            {
              "internalType": "uint256[10]",
              "name": "users",
              "type": "uint256[10]"
            },
            {
              "internalType": "uint256",
              "name": "userCount",
              "type": "uint256"
            }
          ],
          "internalType": "struct ContractStorage.Group[10]",
          "name": "",
          "type": "tuple[10]"
        }
      ],
      "stateMutability": "view",
      "type": "function"
    },
    {
      "inputs": [],
      "name": "groupCount",
      "outputs": [
        {
          "internalType": "uint256",
          "name": "",
          "type": "uint256"
        }
      ],
      "stateMutability": "view",
      "type": "function"
    },
    {
      "inputs": [
        {
          "internalType": "string",
          "name": "",
          "type": "string"
        }
      ],
      "name": "groupExists",
      "outputs": [
        {
          "internalType": "bool",
          "name": "",
          "type": "bool"
        }
      ],
      "stateMutability": "view",
      "type": "function"
    },
    {
      "inputs": [
        {
          "internalType": "string",
          "name": "",
          "type": "string"
        }
      ],
      "name": "groupIDs",
      "outputs": [
        {
          "internalType": "uint256",
          "name": "",
          "type": "uint256"
        }
      ],
      "stateMutability": "view",
      "type": "function"
    },
    {
      "inputs": [
        {
          "internalType": "uint256",
          "name": "",
          "type": "uint256"
        }
      ],
      "name": "groups",
      "outputs": [
        {
          "internalType": "string",
          "name": "name",
          "type": "string"
        },
        {
          "internalType": "uint256",
          "name": "passwordHash",
          "type": "uint256"
        },
        {
          "internalType": "uint256",
          "name": "userCount",
          "type": "uint256"
        }
      ],
      "stateMutability": "view",
      "type": "function"
    },
    {
      "inputs": [],
      "name": "pfsVerified",
      "outputs": [
        {
          "internalType": "uint256",
          "name": "",
          "type": "uint256"
        }
      ],
      "stateMutability": "view",
      "type": "function"
    },
    {
      "inputs": [
        {
          "internalType": "uint256[2]",
          "name": "a",
          "type": "uint256[2]"
        },
        {
          "internalType": "uint256[2][2]",
          "name": "b",
          "type": "uint256[2][2]"
        },
        {
          "internalType": "uint256[2]",
          "name": "c",
          "type": "uint256[2]"
        },
        {
          "internalType": "uint256[14]",
          "name": "input",
          "type": "uint256[14]"
        },
        {
          "internalType": "string",
          "name": "message",
          "type": "string"
        },
        {
          "internalType": "string",
          "name": "groupName",
          "type": "string"
        }
      ],
      "name": "verifyAndAddMessage",
      "outputs": [
        {
          "internalType": "bool",
          "name": "",
          "type": "bool"
        }
      ],
      "stateMutability": "nonpayable",
      "type": "function"
    },
    {
      "inputs": [
        {
          "internalType": "uint256[2]",
          "name": "keyA",
          "type": "uint256[2]"
        },
        {
          "internalType": "uint256[2][2]",
          "name": "keyB",
          "type": "uint256[2][2]"
        },
        {
          "internalType": "uint256[2]",
          "name": "keyC",
          "type": "uint256[2]"
        },
        {
          "internalType": "uint256[1]",
          "name": "keyInput",
          "type": "uint256[1]"
        },
        {
          "internalType": "uint256[2]",
          "name": "passwordA",
          "type": "uint256[2]"
        },
        {
          "internalType": "uint256[2][2]",
          "name": "passwordB",
          "type": "uint256[2][2]"
        },
        {
          "internalType": "uint256[2]",
          "name": "passwordC",
          "type": "uint256[2]"
        },
        {
          "internalType": "uint256[2]",
          "name": "passwordInput",
          "type": "uint256[2]"
        },
        {
          "internalType": "string",
          "name": "groupName",
          "type": "string"
        }
      ],
      "name": "verifyAndStoreRegistration",
      "outputs": [
        {
          "internalType": "bool",
          "name": "",
          "type": "bool"
        }
      ],
      "stateMutability": "nonpayable",
      "type": "function"
    }
  ],
  "bytecode": "0x6080604052600160855534801561001557600080fd5b506000608755611f528061002a6000396000f3fe608060405234801561001057600080fd5b50600436106101515760003560e01c80639b9ee534116100cd578063e1b4fedd11610081578063f3451b2f11610066578063f3451b2f14610314578063fa6ac13114610314578063fc9a47ed1461031c57610151565b8063e1b4fedd146102ec578063e367fc6a1461030157610151565b8063cdd781e2116100b2578063cdd781e214610298578063ceb9c570146102c6578063dc6af89f146102d957610151565b80639b9ee53414610260578063c72b51761461028357610151565b80635aab6635116101245780637cf7b946116101095780637cf7b946146102125780638f23b3261461023557806396324bd41461023e57610151565b80635aab6635146101dd57806365700b70146101f257610151565b806315796fb2146101565780632c166ab2146101725780633af1159f146101925780634b48f2e9146101b2575b600080fd5b61015f60865481565b6040519081526020015b60405180910390f35b610185610180366004611a81565b61032f565b6040516101699190611ca6565b6101a56101a0366004611a81565b6103ee565b6040516101699190611ddb565b61015f6101c03660046119a2565b805160208183018101805160018252928201919093012091525481565b6101f06101eb366004611a3e565b6105eb565b005b610205610200366004611a81565b610719565b6040516101699190611dc8565b610225610220366004611a81565b610888565b6040516101699493929190611dee565b61015f60855481565b61025161024c366004611a81565b6109d7565b60405161016993929190611da3565b61027361026e3660046118a3565b610a8a565b6040519015158152602001610169565b61028b610d63565b6040516101699190611bf7565b6102736102a63660046119a2565b805160208183018101805160848252928201919093012091525460ff1681565b6101856102d43660046119a2565b610e8f565b6101f06102e73660046119dd565b610ec4565b6102f4610fd7565b6040516101699190611c45565b6101f061030f366004611a3e565b611232565b61015f600a81565b61027361032a3660046117b1565b6113ec565b61033761152d565b816085541161038d5760405162461bcd60e51b815260206004820152601260248201527f4e6f7420656e6f7567682067726f75707321000000000000000000000000000060448201526064015b60405180910390fd5b600282600a81106103ae57634e487b7160e01b600052603260045260246000fd5b6040805161014081019182905292600d9290920290910160020190600a9082845b8154815260200190600101908083116103cf5750505050509050919050565b61041b60405180608001604052806000815260200160608152602001606081526020016000151581525090565b816087541161046c5760405162461bcd60e51b815260206004820152601760248201527f4e6f7420656e6f75676820636f6e66657373696f6e73210000000000000000006044820152606401610384565b6000828154811061048d57634e487b7160e01b600052603260045260246000fd5b9060005260206000209060040201604051806080016040529081600082015481526020016001820180546104c090611ec3565b80601f01602080910402602001604051908101604052809291908181526020018280546104ec90611ec3565b80156105395780601f1061050e57610100808354040283529160200191610539565b820191906000526020600020905b81548152906001019060200180831161051c57829003601f168201915b5050505050815260200160028201805461055290611ec3565b80601f016020809104026020016040519081016040528092919081815260200182805461057e90611ec3565b80156105cb5780601f106105a0576101008083540402835291602001916105cb565b820191906000526020600020905b8154815290600101906020018083116105ae57829003601f168201915b50505091835250506003919091015460ff16151560209091015292915050565b60006001836040516105fd9190611bdb565b90815260200160405180910390205490506000600282600a811061063157634e487b7160e01b600052603260045260246000fd5b600d0201600c01549050600a811061068b5760405162461bcd60e51b815260206004820152600f60248201527f546f6f206d616e792075736572732100000000000000000000000000000000006044820152606401610384565b82600283600a81106106ad57634e487b7160e01b600052603260045260246000fd5b600d020160020182600a81106106d357634e487b7160e01b600052603260045260246000fd5b0155600282600a81106106f657634e487b7160e01b600052603260045260246000fd5b600d0201600c01600081548092919061070e90611efe565b919050555050505050565b61072161154c565b81608554116107725760405162461bcd60e51b815260206004820152601260248201527f4e6f7420656e6f7567682067726f7570732100000000000000000000000000006044820152606401610384565b600282600a811061079357634e487b7160e01b600052603260045260246000fd5b600d02016040518060800160405290816000820180546107b290611ec3565b80601f01602080910402602001604051908101604052809291908181526020018280546107de90611ec3565b801561082b5780601f106108005761010080835404028352916020019161082b565b820191906000526020600020905b81548152906001019060200180831161080e57829003601f168201915b505050918352505060018201546020820152604080516101408101825291019060028301600a8282826020028201915b81548152602001906001019080831161085b5750505050508152602001600c820154815250509050919050565b6000818154811061089857600080fd5b600091825260209091206004909102018054600182018054919350906108bd90611ec3565b80601f01602080910402602001604051908101604052809291908181526020018280546108e990611ec3565b80156109365780601f1061090b57610100808354040283529160200191610936565b820191906000526020600020905b81548152906001019060200180831161091957829003601f168201915b50505050509080600201805461094b90611ec3565b80601f016020809104026020016040519081016040528092919081815260200182805461097790611ec3565b80156109c45780601f10610999576101008083540402835291602001916109c4565b820191906000526020600020905b8154815290600101906020018083116109a757829003601f168201915b5050506003909301549192505060ff1684565b600281600a81106109e757600080fd5b600d0201805490915081906109fb90611ec3565b80601f0160208091040260200160405190810160405280929190818152602001828054610a2790611ec3565b8015610a745780601f10610a4957610100808354040283529160200191610a74565b820191906000526020600020905b815481529060010190602001808311610a5757829003601f168201915b50505050509080600101549080600c0154905083565b60006002600183604051610a9e9190611bdb565b908152602001604051809103902054600a8110610acb57634e487b7160e01b600052603260045260246000fd5b600d02016001015483600060028110610af457634e487b7160e01b600052603260045260246000fd5b602002015114610b465760405162461bcd60e51b815260206004820152601060248201527f57726f6e672070617373206861736821000000000000000000000000000000006044820152606401610384565b6040516306baed4d60e41b815273__$6b78ae7bf09e0e72535be6401663f3a543$__90636baed4d090610b83908d908d908d908d90600401611d12565b60206040518083038186803b158015610b9b57600080fd5b505af4158015610baf573d6000803e3d6000fd5b505050506040513d601f19601f82011682018060405250810190610bd39190611982565b610c1f5760405162461bcd60e51b815260206004820152601260248201527f4b65792070726f6f6620696e76616c69642100000000000000000000000000006044820152606401610384565b604051632159cf0160e01b815273__$6b78ae7bf09e0e72535be6401663f3a543$__90632159cf0190610c5c908990899089908990600401611d63565b60206040518083038186803b158015610c7457600080fd5b505af4158015610c88573d6000803e3d6000fd5b505050506040513d601f19601f82011682018060405250810190610cac9190611982565b610cf85760405162461bcd60e51b815260206004820152601760248201527f50617373776f72642070726f6f6620696e76616c6964210000000000000000006044820152606401610384565b8651610d059083906105eb565b600160866000828254610d189190611e7f565b90915550506086546040519081527f4eb5ee08f6bd1352ed7b0dac0ee5e5b7cb984b0477d694d9db613b705f47f2ab9060200160405180910390a15060019998505050505050505050565b610d6b61157a565b6040805161014081019091526002600a6000835b82821015610e86578382600d0201604051806080016040529081600082018054610da890611ec3565b80601f0160208091040260200160405190810160405280929190818152602001828054610dd490611ec3565b8015610e215780601f10610df657610100808354040283529160200191610e21565b820191906000526020600020905b815481529060010190602001808311610e0457829003601f168201915b505050918352505060018201546020820152604080516101408101825291019060028301600a8282826020028201915b815481526020019060010190808311610e515750505050508152602001600c8201548152505081526020019060010190610d7f565b50505050905090565b610e9761152d565b610ebe600183604051610eaa9190611bdb565b90815260200160405180910390205461032f565b92915050565b610ef160405180608001604052806000815260200160608152602001606081526020016000151581525090565b6087548152602080820184815260408301849052600060608401819052805460018101825590805283517f290decd9548b62a8d60345a988386fc84ba6bc95484008f6362f93160ef3e5636004909202918201908155915180518594610f7b937f290decd9548b62a8d60345a988386fc84ba6bc95484008f6362f93160ef3e564019201906115a8565b5060408201518051610f979160028401916020909101906115a8565b5060608201518160030160006101000a81548160ff0219169083151502179055505050600160876000828254610fcd9190611e7f565b9091555050505050565b60875460609060008167ffffffffffffffff81111561100657634e487b7160e01b600052604160045260246000fd5b60405190808252806020026020018201604052801561106457816020015b61105160405180608001604052806000815260200160608152602001606081526020016000151581525090565b8152602001906001900390816110245790505b50905060005b8281101561122b576000818154811061109357634e487b7160e01b600052603260045260246000fd5b9060005260206000209060040201604051806080016040529081600082015481526020016001820180546110c690611ec3565b80601f01602080910402602001604051908101604052809291908181526020018280546110f290611ec3565b801561113f5780601f106111145761010080835404028352916020019161113f565b820191906000526020600020905b81548152906001019060200180831161112257829003601f168201915b5050505050815260200160028201805461115890611ec3565b80601f016020809104026020016040519081016040528092919081815260200182805461118490611ec3565b80156111d15780601f106111a6576101008083540402835291602001916111d1565b820191906000526020600020905b8154815290600101906020018083116111b457829003601f168201915b50505091835250506003919091015460ff161515602090910152825183908390811061120d57634e487b7160e01b600052603260045260246000fd5b6020026020010181905250808061122390611efe565b91505061106a565b5091505090565b6084826040516112429190611bdb565b9081526040519081900360200190205460ff16156112a25760405162461bcd60e51b815260206004820152601560248201527f47726f757020616c7265616479206578697374732100000000000000000000006044820152606401610384565b600a608554106112f45760405162461bcd60e51b815260206004820152601060248201527f546f6f206d616e792067726f75707321000000000000000000000000000000006044820152606401610384565b6112fc61154c565b6020810182905282815260006060820152608554604051600190611321908690611bdb565b90815260200160405180910390208190555060016084846040516113459190611bdb565b908152604051908190036020019020805491151560ff199092169190911790556085548190600290600a811061138b57634e487b7160e01b600052603260045260246000fd5b600d020160008201518160000190805190602001906113ab9291906115a8565b506020820151600182015560408201516113cb906002830190600a61162c565b50606082015181600c0155905050600160856000828254610fcd9190611e7f565b604051631714411560e21b815260009073__$6b78ae7bf09e0e72535be6401663f3a543$__90635c5104549061142c908a908a908a908a90600401611cb5565b60206040518083038186803b15801561144457600080fd5b505af4158015611458573d6000803e3d6000fd5b505050506040513d601f19601f8201168201806040525081019061147c9190611982565b6114c85760405162461bcd60e51b815260206004820152600e60248201527f50726f6f6620696e76616c6964210000000000000000000000000000000000006044820152606401610384565b6001608660008282546114db9190611e7f565b90915550506086546040519081527f4eb5ee08f6bd1352ed7b0dac0ee5e5b7cb984b0477d694d9db613b705f47f2ab9060200160405180910390a16115208383610ec4565b5060019695505050505050565b604051806101400160405280600a906020820280368337509192915050565b6040518060800160405280606081526020016000815260200161156d61152d565b8152602001600081525090565b604051806101400160405280600a905b61159261154c565b81526020019060019003908161158a5790505090565b8280546115b490611ec3565b90600052602060002090601f0160209004810192826115d6576000855561161c565b82601f106115ef57805160ff191683800117855561161c565b8280016001018555821561161c579182015b8281111561161c578251825591602001919060010190611601565b50611628929150611659565b5090565b82600a810192821561161c579160200282018281111561161c578251825591602001919060010190611601565b5b80821115611628576000815560010161165a565b600061168161167c84611e5e565b611e2d565b90508082858560051b8501111561169757600080fd5b60005b858110156116b857813583526020928301929091019060010161169a565b5050509392505050565b600082601f8301126116d2578081fd5b60406116dd81611e2d565b8084866080870111156116ee578485fd5b845b6002811015611717576117038883611723565b8452602090930192908401906001016116f0565b50909695505050505050565b600082601f830112611733578081fd5b61173f8360028461166e565b9392505050565b600082601f830112611756578081fd5b813567ffffffffffffffff81111561177057611770611f2f565b611783601f8201601f1916602001611e2d565b818152846020838601011115611797578283fd5b816020850160208301379081016020019190915292915050565b60008060008060008061030087890312156117ca578182fd5b6117d48888611723565b95506117e388604089016116c2565b94506117f28860c08901611723565b93508761011f880112611803578182fd5b600e61181161167c82611e5e565b806101008a016102c08b018c811115611828578687fd5b865b8581101561184857823585526020948501949092019160010161182a565b509196505035915067ffffffffffffffff905080821115611867578384fd5b6118738a838b01611746565b93506102e0890135915080821115611889578283fd5b5061189689828a01611746565b9150509295509295509295565b60008060008060008060008060006102808a8c0312156118c1578283fd5b6118cb8b8b611723565b98506118da8b60408c016116c2565b97506118e98b60c08c01611723565b96508a61011f8b01126118fa578283fd5b61190a8b60016101008d0161166e565b955061191a8b6101208c01611723565b945061192a8b6101608c016116c2565b935061193a8b6101e08c01611723565b925061194a8b6102208c01611723565b91506102608a013567ffffffffffffffff811115611966578182fd5b6119728c828d01611746565b9150509295985092959850929598565b600060208284031215611993578081fd5b8151801515811461173f578182fd5b6000602082840312156119b3578081fd5b813567ffffffffffffffff8111156119c9578182fd5b6119d584828501611746565b949350505050565b600080604083850312156119ef578182fd5b823567ffffffffffffffff80821115611a06578384fd5b611a1286838701611746565b93506020850135915080821115611a27578283fd5b50611a3485828601611746565b9150509250929050565b60008060408385031215611a50578182fd5b823567ffffffffffffffff811115611a66578283fd5b611a7285828601611746565b95602094909401359450505050565b600060208284031215611a92578081fd5b5035919050565b8060005b6002811015611ac757611ab1848351611af0565b6040939093019260209190910190600101611a9d565b50505050565b8060005b600a811015611ac7578151845260209384019390910190600101611ad1565b8060005b6002811015611ac7578151845260209384019390910190600101611af4565b60008151808452611b2b816020860160208601611e97565b601f01601f19169290920160200192915050565b60006101a08251818552611b5582860182611b13565b915050602083015160208501526040830151611b746040860182611acd565b5060608301516101808501528091505092915050565b600081518352602082015160806020850152611ba96080850182611b13565b905060408301518482036040860152611bc28282611b13565b9150506060830151151560608501528091505092915050565b60008251611bed818460208701611e97565b9190910192915050565b6020808252600090610160830183820185845b600a811015611c3957601f19878503018352611c27848351611b3f565b93509184019190840190600101611c0a565b50919695505050505050565b6000602080830181845280855180835260408601915060408160051b8701019250838701855b82811015611c9957603f19888603018452611c87858351611b8a565b94509285019290850190600101611c6b565b5092979650505050505050565b6101408101610ebe8284611acd565b6102c08101611cc48287611af0565b611cd16040830186611a99565b611cde60c0830185611af0565b61010082018360005b600e811015611d06578151835260209283019290910190600101611ce7565b50505095945050505050565b6101208101611d218287611af0565b611d2e6040830186611a99565b611d3b60c0830185611af0565b61010082018360005b6001811015611d06578151835260209283019290910190600101611d44565b6101408101611d728287611af0565b611d7f6040830186611a99565b611d8c60c0830185611af0565b611d9a610100830184611af0565b95945050505050565b600060608252611db66060830186611b13565b60208301949094525060400152919050565b60006020825261173f6020830184611b3f565b60006020825261173f6020830184611b8a565b600085825260806020830152611e076080830186611b13565b8281036040840152611e198186611b13565b915050821515606083015295945050505050565b604051601f8201601f1916810167ffffffffffffffff81118282101715611e5657611e56611f2f565b604052919050565b600067ffffffffffffffff821115611e7857611e78611f2f565b5060051b90565b60008219821115611e9257611e92611f19565b500190565b60005b83811015611eb2578181015183820152602001611e9a565b83811115611ac75750506000910152565b600181811c90821680611ed757607f821691505b60208210811415611ef857634e487b7160e01b600052602260045260246000fd5b50919050565b6000600019821415611f1257611f12611f19565b5060010190565b634e487b7160e01b600052601160045260246000fd5b634e487b7160e01b600052604160045260246000fdfea164736f6c6343000803000a",
  "linkReferences": {
    "contracts/Verifier.sol": {
      "Verifier": [
        {
          "length": 20,
          "start": 2943
        },
        {
          "length": 20,
          "start": 3160
        },
        {
          "length": 20,
          "start": 5160
        }
      ]
    }
  },
  "deployedLinkReferences": {
    "contracts/Verifier.sol": {
      "Verifier": [
        {
          "length": 20,
          "start": 2901
        },
        {
          "length": 20,
          "start": 3118
        },
        {
          "length": 20,
          "start": 5118
        }
      ]
    }
  }
}