{
  "_format": "hh-sol-artifact-1",
  "contractName": "ContractStorage",
  "sourceName": "contracts/ContractStorage.sol",
  "abi": [
    {
      "inputs": [],
      "name": "MAX_GROUPS",
      "outputs": [
        {
          "internalType": "uint256",
          "name": "",
          "type": "uint256"
        }
      ],
      "stateMutability": "view",
      "type": "function"
    },
    {
      "inputs": [],
      "name": "MAX_USERS",
      "outputs": [
        {
          "internalType": "uint256",
          "name": "",
          "type": "uint256"
        }
      ],
      "stateMutability": "view",
      "type": "function"
    },
    {
      "inputs": [
        {
          "internalType": "uint256",
          "name": "",
          "type": "uint256"
        }
      ],
      "name": "confessions",
      "outputs": [
        {
          "internalType": "uint256",
          "name": "id",
          "type": "uint256"
        },
        {
          "internalType": "string",
          "name": "text",
          "type": "string"
        },
        {
          "internalType": "string",
          "name": "group",
          "type": "string"
        },
        {
          "internalType": "bool",
          "name": "verified",
          "type": "bool"
        }
      ],
      "stateMutability": "view",
      "type": "function"
    },
    {
      "inputs": [],
      "name": "groupCount",
      "outputs": [
        {
          "internalType": "uint256",
          "name": "",
          "type": "uint256"
        }
      ],
      "stateMutability": "view",
      "type": "function"
    },
    {
      "inputs": [
        {
          "internalType": "string",
          "name": "",
          "type": "string"
        }
      ],
      "name": "groupExists",
      "outputs": [
        {
          "internalType": "bool",
          "name": "",
          "type": "bool"
        }
      ],
      "stateMutability": "view",
      "type": "function"
    },
    {
      "inputs": [
        {
          "internalType": "string",
          "name": "",
          "type": "string"
        }
      ],
      "name": "groupIDs",
      "outputs": [
        {
          "internalType": "uint256",
          "name": "",
          "type": "uint256"
        }
      ],
      "stateMutability": "view",
      "type": "function"
    },
    {
      "inputs": [
        {
          "internalType": "uint256",
          "name": "",
          "type": "uint256"
        }
      ],
      "name": "groups",
      "outputs": [
        {
          "internalType": "string",
          "name": "name",
          "type": "string"
        },
        {
          "internalType": "uint256",
          "name": "passwordHash",
          "type": "uint256"
        },
        {
          "internalType": "uint256",
          "name": "userCount",
          "type": "uint256"
        }
      ],
      "stateMutability": "view",
      "type": "function"
    },
    {
      "inputs": [],
      "name": "pfsVerified",
      "outputs": [
        {
          "internalType": "uint256",
          "name": "",
          "type": "uint256"
        }
      ],
      "stateMutability": "view",
      "type": "function"
    }
  ],
  "bytecode": "0x6080604052600160855534801561001557600080fd5b50610539806100256000396000f3fe608060405234801561001057600080fd5b50600436106100885760003560e01c806396324bd41161005b57806396324bd414610100578063cdd781e214610122578063f3451b2f14610160578063fa6ac1311461016057610088565b806315796fb21461008d5780634b48f2e9146100a95780637cf7b946146100d45780638f23b326146100f7575b600080fd5b61009660865481565b6040519081526020015b60405180910390f35b6100966100b736600461036a565b805160208183018101805160018252928201919093012091525481565b6100e76100e2366004610414565b610168565b6040516100a0949392919061049c565b61009660855481565b61011361010e366004610414565b6102b7565b6040516100a093929190610477565b61015061013036600461036a565b805160208183018101805160848252928201919093012091525460ff1681565b60405190151581526020016100a0565b610096600a81565b6000818154811061017857600080fd5b6000918252602090912060049091020180546001820180549193509061019d906104db565b80601f01602080910402602001604051908101604052809291908181526020018280546101c9906104db565b80156102165780601f106101eb57610100808354040283529160200191610216565b820191906000526020600020905b8154815290600101906020018083116101f957829003601f168201915b50505050509080600201805461022b906104db565b80601f0160208091040260200160405190810160405280929190818152602001828054610257906104db565b80156102a45780601f10610279576101008083540402835291602001916102a4565b820191906000526020600020905b81548152906001019060200180831161028757829003601f168201915b5050506003909301549192505060ff1684565b600281600a81106102c757600080fd5b600d0201805490915081906102db906104db565b80601f0160208091040260200160405190810160405280929190818152602001828054610307906104db565b80156103545780601f1061032957610100808354040283529160200191610354565b820191906000526020600020905b81548152906001019060200180831161033757829003601f168201915b50505050509080600101549080600c0154905083565b60006020828403121561037b578081fd5b813567ffffffffffffffff80821115610392578283fd5b818401915084601f8301126103a5578283fd5b8135818111156103b7576103b7610516565b604051601f8201601f19908116603f011681019083821181831017156103df576103df610516565b816040528281528760208487010111156103f7578586fd5b826020860160208301379182016020019490945295945050505050565b600060208284031215610425578081fd5b5035919050565b60008151808452815b8181101561045157602081850181015186830182015201610435565b818111156104625782602083870101525b50601f01601f19169290920160200192915050565b60006060825261048a606083018661042c565b60208301949094525060400152919050565b6000858252608060208301526104b5608083018661042c565b82810360408401526104c7818661042c565b915050821515606083015295945050505050565b600181811c908216806104ef57607f821691505b6020821081141561051057634e487b7160e01b600052602260045260246000fd5b50919050565b634e487b7160e01b600052604160045260246000fdfea164736f6c6343000803000a",
  "linkReferences": {},
  "deployedLinkReferences": {}
}