{
  "_format": "hh-sol-artifact-1",
  "contractName": "Verifier",
  "sourceName": "contracts/Verifier.sol",
  "abi": [
    {
      "inputs": [
        {
          "internalType": "uint256[2]",
          "name": "a",
          "type": "uint256[2]"
        },
        {
          "internalType": "uint256[2][2]",
          "name": "b",
          "type": "uint256[2][2]"
        },
        {
          "internalType": "uint256[2]",
          "name": "c",
          "type": "uint256[2]"
        },
        {
          "internalType": "uint256[1]",
          "name": "input",
          "type": "uint256[1]"
        }
      ],
      "name": "verifyHashCheckBitsProof",
      "outputs": [
        {
          "internalType": "bool",
          "name": "",
          "type": "bool"
        }
      ],
      "stateMutability": "view",
      "type": "function"
    },
    {
      "inputs": [
        {
          "internalType": "uint256[2]",
          "name": "a",
          "type": "uint256[2]"
        },
        {
          "internalType": "uint256[2][2]",
          "name": "b",
          "type": "uint256[2][2]"
        },
        {
          "internalType": "uint256[2]",
          "name": "c",
          "type": "uint256[2]"
        },
        {
          "internalType": "uint256[2]",
          "name": "input",
          "type": "uint256[2]"
        }
      ],
      "name": "verifyHashCheckProof",
      "outputs": [
        {
          "internalType": "bool",
          "name": "",
          "type": "bool"
        }
      ],
      "stateMutability": "view",
      "type": "function"
    },
    {
      "inputs": [
        {
          "internalType": "uint256[2]",
          "name": "a",
          "type": "uint256[2]"
        },
        {
          "internalType": "uint256[2][2]",
          "name": "b",
          "type": "uint256[2][2]"
        },
        {
          "internalType": "uint256[2]",
          "name": "c",
          "type": "uint256[2]"
        },
        {
          "internalType": "uint256[]",
          "name": "input",
          "type": "uint256[]"
        },
        {
          "components": [
            {
              "components": [
                {
                  "internalType": "uint256",
                  "name": "X",
                  "type": "uint256"
                },
                {
                  "internalType": "uint256",
                  "name": "Y",
                  "type": "uint256"
                }
              ],
              "internalType": "struct Pairing.G1Point",
              "name": "alfa1",
              "type": "tuple"
            },
            {
              "components": [
                {
                  "internalType": "uint256[2]",
                  "name": "X",
                  "type": "uint256[2]"
                },
                {
                  "internalType": "uint256[2]",
                  "name": "Y",
                  "type": "uint256[2]"
                }
              ],
              "internalType": "struct Pairing.G2Point",
              "name": "beta2",
              "type": "tuple"
            },
            {
              "components": [
                {
                  "internalType": "uint256[2]",
                  "name": "X",
                  "type": "uint256[2]"
                },
                {
                  "internalType": "uint256[2]",
                  "name": "Y",
                  "type": "uint256[2]"
                }
              ],
              "internalType": "struct Pairing.G2Point",
              "name": "gamma2",
              "type": "tuple"
            },
            {
              "components": [
                {
                  "internalType": "uint256[2]",
                  "name": "X",
                  "type": "uint256[2]"
                },
                {
                  "internalType": "uint256[2]",
                  "name": "Y",
                  "type": "uint256[2]"
                }
              ],
              "internalType": "struct Pairing.G2Point",
              "name": "delta2",
              "type": "tuple"
            },
            {
              "components": [
                {
                  "internalType": "uint256",
                  "name": "X",
                  "type": "uint256"
                },
                {
                  "internalType": "uint256",
                  "name": "Y",
                  "type": "uint256"
                }
              ],
              "internalType": "struct Pairing.G1Point[]",
              "name": "IC",
              "type": "tuple[]"
            }
          ],
          "internalType": "struct Verifier.VerifyingKey",
          "name": "vk",
          "type": "tuple"
        }
      ],
      "name": "verifyProof",
      "outputs": [
        {
          "internalType": "bool",
          "name": "",
          "type": "bool"
        }
      ],
      "stateMutability": "view",
      "type": "function"
    },
    {
      "inputs": [
        {
          "internalType": "uint256[2]",
          "name": "a",
          "type": "uint256[2]"
        },
        {
          "internalType": "uint256[2][2]",
          "name": "b",
          "type": "uint256[2][2]"
        },
        {
          "internalType": "uint256[2]",
          "name": "c",
          "type": "uint256[2]"
        },
        {
          "internalType": "uint256[14]",
          "name": "input",
          "type": "uint256[14]"
        }
      ],
      "name": "verifySigCheckProof",
      "outputs": [
        {
          "internalType": "bool",
          "name": "",
          "type": "bool"
        }
      ],
      "stateMutability": "view",
      "type": "function"
    }
  ],
  "bytecode": "0x6126a761003a600b82828239805160001a60731461002d57634e487b7160e01b600052600060045260246000fd5b30600052607381538281f3fe73000000000000000000000000000000000000000030146080604052600436106100565760003560e01c80632159cf011461005b57806357c25080146100825780635c510454146100955780636baed4d0146100a8575b600080fd5b61006e61006936600461244d565b6100bb565b604051901515815260200160405180910390f35b61006e61009036600461249b565b610168565b61006e6100a3366004612384565b61020a565b61006e6100b63660046123ee565b6102b0565b6040805160028082526060820183526000928392919060208301908036833701905050905060005b600281101561014e5783816002811061010c57634e487b7160e01b600052603260045260246000fd5b602002015182828151811061013157634e487b7160e01b600052603260045260246000fd5b60209081029190910101528061014681612633565b9150506100e3565b5061015e86868684610090610353565b9695505050505050565b6000610172611fef565b604080518082018252885181526020808a01518183015290835281516080810183528851518184019081528951830151606083015281528251808401845289830180515182525183015181840152818301528382015281518083018352875181528782015191810191909152908201526101ed848285610790565b6101fb576001915050610201565b60009150505b95945050505050565b60408051600e8082526101e08201909252600091829190602082016101c08036833701905050905060005b600e8110156102a0578381600e811061025e57634e487b7160e01b600052603260045260246000fd5b602002015182828151811061028357634e487b7160e01b600052603260045260246000fd5b60209081029190910101528061029881612633565b915050610235565b5061015e868686846100906109bf565b6040805160018082528183019092526000918291906020808301908036833701905050905060005b60018110156103435783816001811061030157634e487b7160e01b600052603260045260246000fd5b602002015182828151811061032657634e487b7160e01b600052603260045260246000fd5b60209081029190910101528061033b81612633565b9150506102d8565b5061015e8686868461009061142a565b61035b612040565b6040805180820182527f2b6d4650a4a9984dd255a254717ce985d4a2625229fa63ba1268f0c8f97af9eb81527f22f3991d50b793a3660fa6ad8ce156ac3eb478b77e8b0b74ffdf4be654c5610d6020808301919091529083528151608080820184527f0e27d2438600b41133385b48fc242556e81b44ab4d0ee9a3376da7315876c2ba8285019081527f074f8374c9ddae90032fb99308af80e087027dac3ec8f203bd7ee80d8b54bb44606080850191909152908352845180860186527f218374fdb8b41d2b36cdf8b50c9a925631381f50fa6b9ad5d281a172ad21293181527f0b04b6269c1b07424f6a6985dfab0cefd704a35cae92e15048f533f4c5da412b818601528385015285840192909252835180820185527f198e9393920d483a7260bfb731fb5d25f1aa493335a9e71297e485b7aef312c28186019081527f1800deef121f1e76426a00665e5c4479674322d4f75edadd46debd5cd992f6ed828501528152845180860186527f090689d0585ff075ec9e99ad690c3395bc4b313370b38ef355acdadcd122975b81527f12c85ea5db8c6deb4aab71808dcb408fe3d1e7690c43d37b4ce6cc0166fa7daa818601528185015285850152835180820185527f187dfd92e719cd335fec9868d596e847c0a6a9c3ce8fb650fd7241df14dbcdd68186019081527f0597134ad9f10975e7f84d2cef6b5fdd0d0db6a7c09392522406567ac086d316828501528152845180860186527f10e7fdf5ad93d2ce02e82a0f4bfcf7eb249faa09b8b20cb153815bd83265e7f381527f2693890a80919bfce04dd8182a121053eaa1404a7b9711631822671051270058818601528185015291850191909152825160038082529181019093529082015b60408051808201909152600080825260208201528152602001906001900390816105d757505060808201908152604080518082019091527f25c8a85f040c40225542d2ac42ffb36df95b4a746ca92a0cab1e2d7d33f11f1681527f214f0af6fc01d65edc5cab92e8a04201bc8c0f4a387719b50ee061d1fe3d131160208201529051805160009061067857634e487b7160e01b600052603260045260246000fd5b602002602001018190525060405180604001604052807f1757de578a6826ae258150b6efb5d1494dfa902dafc276f4794ddfc59b70badb81526020017f0142d427500ec0da4f09a85b12defc4d705b824d10b58614772825027384505481525081608001516001815181106106fd57634e487b7160e01b600052603260045260246000fd5b602002602001018190525060405180604001604052807f229c09d2f02c5e89f4c87ac086df29dffdcb959f4904cf13dc8076ed39f6484d81526020017f274f1cabe77e4b1422a0e3636371dd94503f41bab67066cc3fa63e3932038584815250816080015160028151811061078257634e487b7160e01b600052603260045260246000fd5b602002602001018190525090565b60808101515183516000917f30644e72e131a029b85045b68181585d2833e84879b9709143e1f593f0000001916107c89060016125e5565b1461081a5760405162461bcd60e51b815260206004820152601260248201527f76657269666965722d6261642d696e707574000000000000000000000000000060448201526064015b60405180910390fd5b604080518082019091526000808252602082018190525b8651811015610935578287828151811061085b57634e487b7160e01b600052603260045260246000fd5b6020026020010151106108b05760405162461bcd60e51b815260206004820152601f60248201527f76657269666965722d6774652d736e61726b2d7363616c61722d6669656c64006044820152606401610811565b6109218261091c87608001518460016108c991906125e5565b815181106108e757634e487b7160e01b600052603260045260246000fd5b60200260200101518a858151811061090f57634e487b7160e01b600052603260045260246000fd5b60200260200101516117d1565b611878565b91508061092d81612633565b915050610831565b5061096c81856080015160008151811061095f57634e487b7160e01b600052603260045260246000fd5b6020026020010151611878565b90506109a261097e866000015161191b565b8660200151866000015187602001518589604001518b604001518b606001516119bc565b6109b1576001925050506109b8565b6000925050505b9392505050565b6109c7612040565b6040805180820182527f2d4d9aa7e302d9df41749d5507949d05dbea33fbb16c643b22f599a2be6df2e281527f14bedd503c37ceb061d8ec60209fe345ce89830a19230301f076caff004d19266020808301919091529083528151608080820184527f0967032fcbf776d1afc985f88877f182d38480a653f2decaa9794cbc3bf3060c8285019081527f0e187847ad4c798374d0d6732bf501847dd68bc0e071241e0213bc7fc13db7ab606080850191909152908352845180860186527f304cfbd1e08a704a99f5e847d93f8c3caafddec46b7a0d379da69a4d112346a781527f1739c1b1a457a8c7313123d24d2f9192f896b7c63eea05a9d57f06547ad0cec8818601528385015285840192909252835180820185527f198e9393920d483a7260bfb731fb5d25f1aa493335a9e71297e485b7aef312c28186019081527f1800deef121f1e76426a00665e5c4479674322d4f75edadd46debd5cd992f6ed828501528152845180860186527f090689d0585ff075ec9e99ad690c3395bc4b313370b38ef355acdadcd122975b81527f12c85ea5db8c6deb4aab71808dcb408fe3d1e7690c43d37b4ce6cc0166fa7daa818601528185015285850152835190810184527f187dfd92e719cd335fec9868d596e847c0a6a9c3ce8fb650fd7241df14dbcdd68185019081527f0597134ad9f10975e7f84d2cef6b5fdd0d0db6a7c09392522406567ac086d316828401528152835180850185527f10e7fdf5ad93d2ce02e82a0f4bfcf7eb249faa09b8b20cb153815bd83265e7f381527f2693890a80919bfce04dd8182a121053eaa1404a7b97116318226710512700588185015281840152908401528151600f8082526102008201909352919082015b6040805180820190915260008082526020820152815260200190600190039081610c4357505060808201908152604080518082019091527f01d8fa164ae8fac0590611216a236c4856aabf8857d9983fa603b386a6a1d91981527f0bce82414b6ee142329d5b50d0a5b81ade12795f76094189fa3b24456e2a41df602082015290518051600090610ce457634e487b7160e01b600052603260045260246000fd5b602002602001018190525060405180604001604052807f098168d4be60f7333125fd8bcd8fc4dde678e2316419c9174505b0034d299b3581526020017f01bff405c27312ae88c14a190d418cf9f6eba86712cf7580ce3b77df8de020048152508160800151600181518110610d6957634e487b7160e01b600052603260045260246000fd5b602002602001018190525060405180604001604052807f149c41e982dd1115602147400f3c1af5de377b046040872e78afd9a8fcf4740481526020017f266821fff9a919d6267182df9da7bfd2ff4bef1cc52924048be1b11ae1e24a5c8152508160800151600281518110610dee57634e487b7160e01b600052603260045260246000fd5b602002602001018190525060405180604001604052807f0a4b9ef09ba26cfa471884e449dfc62658e2469535d51125dceb315bd72ed16181526020017f1dc551829a5cab5e418b22f55cbee031678e959391fdce37b4d6058b3525e4768152508160800151600381518110610e7357634e487b7160e01b600052603260045260246000fd5b602002602001018190525060405180604001604052807f240135c36e7b7dd3911aec763ac83c9bdd75c11d5ed32ee3a0327506a1ed928381526020017f20964fdb692f67814e5108c591444d5bfda5e65020c15202d8c615f48c0653cb8152508160800151600481518110610ef857634e487b7160e01b600052603260045260246000fd5b602002602001018190525060405180604001604052807f01c2fe37999f39d97581577cba5532f2804cabf0297eb13db09a214bde314a0281526020017f2796e1512ba965f3b8c4299c5dfa3b9505ffdfc8d6ca4cc53775ece1ef63b4638152508160800151600581518110610f7d57634e487b7160e01b600052603260045260246000fd5b602002602001018190525060405180604001604052807f2cd2cdaf323e166f29d118acb15e69fad658a6ccfea0599e0b6e17543aebc6ff81526020017f1b6cd7fd780e8cd1dfcc407f741eec7a6014f4a764e5aa49c3e7e042db9b3010815250816080015160068151811061100257634e487b7160e01b600052603260045260246000fd5b602002602001018190525060405180604001604052807f2906995bd442b08516017af4fd80ab36f57263335583552ef88c6e6366c021a281526020017f06049f34e78f3a271abb0da12cf31580c69b7d6d15f4feeea6f3da85db2d708f815250816080015160078151811061108757634e487b7160e01b600052603260045260246000fd5b602002602001018190525060405180604001604052807f1db8447319407480deda465043f68d30b970c543e5a2c4f82241fb974660d82b81526020017f2c4163776a7448085f8e0425dedbc8c7806447842a7b845c687acae3f7ef3776815250816080015160088151811061110c57634e487b7160e01b600052603260045260246000fd5b602002602001018190525060405180604001604052807f1af661bd94eb8ab21d0bc9be8e72d4beaf1b26cac2daec0df0401052ce8972be81526020017f0f6ff1a8028b1554008199dcab9e1ed9c6fa7c7b0f71ee4fbf7204aa5c6c1262815250816080015160098151811061119157634e487b7160e01b600052603260045260246000fd5b602002602001018190525060405180604001604052807f0ff08f9b7ff175f1396d601a9c572106aa8a6f18ac50537c64cebd3f1ef7489d81526020017f1424f50e40cde8161296bda59697d1a42079b785b1021a87f1fcd0f1e756c9a18152508160800151600a8151811061121657634e487b7160e01b600052603260045260246000fd5b602002602001018190525060405180604001604052807f17199063a21f44856831e79632c4d423f792b278c865e5a6b4dbd34d2237594281526020017f1ed8cf799c14106bb30c1a4425e1d98d900809249c03c49e25cf07c4f42e67998152508160800151600b8151811061129b57634e487b7160e01b600052603260045260246000fd5b602002602001018190525060405180604001604052807f11666223b6ddb061489f9221c0e683648dd4c3f52410696ab38d5b551c97f40681526020017f10908e18ecd7815882d4e09cbebb63f2ea63a608c59bc13f41d094f6b081bcac8152508160800151600c8151811061132057634e487b7160e01b600052603260045260246000fd5b602002602001018190525060405180604001604052807f03ff773285459688479609d60d85ccc1aa55190d512f7521ccc97e65b20be90781526020017f10d49746e7bd2302b3b9fff31d976b470838b04182950ba7619ae19d2027ee1d8152508160800151600d815181106113a557634e487b7160e01b600052603260045260246000fd5b602002602001018190525060405180604001604052807f109b92e1c53fbf243a62687861867ec0d720b9e8547b6c429ce1799bcf2cde9481526020017f286bad3fedb4bb708adeee05a74f5fe48d670fa0a5ede9bc91454f263c43a3068152508160800151600e8151811061078257634e487b7160e01b600052603260045260246000fd5b611432612040565b6040805180820182527f2d4d9aa7e302d9df41749d5507949d05dbea33fbb16c643b22f599a2be6df2e281527f14bedd503c37ceb061d8ec60209fe345ce89830a19230301f076caff004d19266020808301919091529083528151608080820184527f0967032fcbf776d1afc985f88877f182d38480a653f2decaa9794cbc3bf3060c8285019081527f0e187847ad4c798374d0d6732bf501847dd68bc0e071241e0213bc7fc13db7ab606080850191909152908352845180860186527f304cfbd1e08a704a99f5e847d93f8c3caafddec46b7a0d379da69a4d112346a781527f1739c1b1a457a8c7313123d24d2f9192f896b7c63eea05a9d57f06547ad0cec8818601528385015285840192909252835180820185527f198e9393920d483a7260bfb731fb5d25f1aa493335a9e71297e485b7aef312c28186019081527f1800deef121f1e76426a00665e5c4479674322d4f75edadd46debd5cd992f6ed828501528152845180860186527f090689d0585ff075ec9e99ad690c3395bc4b313370b38ef355acdadcd122975b81527f12c85ea5db8c6deb4aab71808dcb408fe3d1e7690c43d37b4ce6cc0166fa7daa818601528185015285850152835190810184527f187dfd92e719cd335fec9868d596e847c0a6a9c3ce8fb650fd7241df14dbcdd68185019081527f0597134ad9f10975e7f84d2cef6b5fdd0d0db6a7c09392522406567ac086d316828401528152835180850185527f10e7fdf5ad93d2ce02e82a0f4bfcf7eb249faa09b8b20cb153815bd83265e7f381527f2693890a80919bfce04dd8182a121053eaa1404a7b9711631822671051270058818501528184015281850152825160028082529181019093529082015b60408051808201909152600080825260208201528152602001906001900390816116ab57505060808201908152604080518082019091527f25616db27b9873d8f3fdd051932e08146949279dc3205731d1a09ae2fab0238181527f15c92472d04fb577f0fb688cd0624e23b68e30606a25e6d0c52ad34816356edf60208201529051805160009061174c57634e487b7160e01b600052603260045260246000fd5b602002602001018190525060405180604001604052807f287019cfe177c0ab24d545d4e94f63de335a3c68d1578950a4242313d54efb0881526020017f1ac36beaef8f962013563f1600f12b12e0fdbd0397aabf63229f19e2624246f9815250816080015160018151811061078257634e487b7160e01b600052603260045260246000fd5b60408051808201909152600080825260208201526117ed612091565b835181526020808501519082015260408101839052600060608360808460076107d05a03fa905080801561182057611822565bfe5b50806118705760405162461bcd60e51b815260206004820152601260248201527f70616972696e672d6d756c2d6661696c656400000000000000000000000000006044820152606401610811565b505092915050565b60408051808201909152600080825260208201526118946120af565b8351815260208085015181830152835160408301528301516060808301919091526000908360c08460066107d05a03fa90508080156118205750806118705760405162461bcd60e51b815260206004820152601260248201527f70616972696e672d6164642d6661696c656400000000000000000000000000006044820152606401610811565b604080518082019091526000808252602082015281517f30644e72e131a029b85045b68181585d97816a916871ca8d3c208c16d87cfd479015801561196257506020830151155b1561198257505060408051808201909152600080825260208201526119b7565b6040518060400160405280846000015181526020018285602001516119a7919061264e565b6119b1908461261c565b90529150505b919050565b60408051600480825260a08201909252600091829190816020015b60408051808201909152600080825260208201528152602001906001900390816119d757505060408051600480825260a0820190925291925060009190602082015b611a216120cd565b815260200190600190039081611a195790505090508a82600081518110611a5857634e487b7160e01b600052603260045260246000fd5b60200260200101819052508882600181518110611a8557634e487b7160e01b600052603260045260246000fd5b60200260200101819052508682600281518110611ab257634e487b7160e01b600052603260045260246000fd5b60200260200101819052508482600381518110611adf57634e487b7160e01b600052603260045260246000fd5b60200260200101819052508981600081518110611b0c57634e487b7160e01b600052603260045260246000fd5b60200260200101819052508781600181518110611b3957634e487b7160e01b600052603260045260246000fd5b60200260200101819052508581600281518110611b6657634e487b7160e01b600052603260045260246000fd5b60200260200101819052508381600381518110611b9357634e487b7160e01b600052603260045260246000fd5b6020026020010181905250611ba88282611bb7565b9b9a5050505050505050505050565b60008151835114611c0a5760405162461bcd60e51b815260206004820152601660248201527f70616972696e672d6c656e677468732d6661696c6564000000000000000000006044820152606401610811565b82516000611c198260066125fd565b905060008167ffffffffffffffff811115611c4457634e487b7160e01b600052604160045260246000fd5b604051908082528060200260200182016040528015611c6d578160200160208202803683370190505b50905060005b83811015611f6c57868181518110611c9b57634e487b7160e01b600052603260045260246000fd5b60200260200101516000015182826006611cb591906125fd565b611cc09060006125e5565b81518110611cde57634e487b7160e01b600052603260045260246000fd5b602002602001018181525050868181518110611d0a57634e487b7160e01b600052603260045260246000fd5b60200260200101516020015182826006611d2491906125fd565b611d2f9060016125e5565b81518110611d4d57634e487b7160e01b600052603260045260246000fd5b602002602001018181525050858181518110611d7957634e487b7160e01b600052603260045260246000fd5b6020908102919091010151515182611d928360066125fd565b611d9d9060026125e5565b81518110611dbb57634e487b7160e01b600052603260045260246000fd5b602002602001018181525050858181518110611de757634e487b7160e01b600052603260045260246000fd5b60209081029190910181015151015182611e028360066125fd565b611e0d9060036125e5565b81518110611e2b57634e487b7160e01b600052603260045260246000fd5b602002602001018181525050858181518110611e5757634e487b7160e01b600052603260045260246000fd5b602002602001015160200151600060028110611e8357634e487b7160e01b600052603260045260246000fd5b602002015182611e948360066125fd565b611e9f9060046125e5565b81518110611ebd57634e487b7160e01b600052603260045260246000fd5b602002602001018181525050858181518110611ee957634e487b7160e01b600052603260045260246000fd5b602002602001015160200151600160028110611f1557634e487b7160e01b600052603260045260246000fd5b602002015182611f268360066125fd565b611f319060056125e5565b81518110611f4f57634e487b7160e01b600052603260045260246000fd5b602090810291909101015280611f6481612633565b915050611c73565b50611f756120ed565b6000602082602086026020860160086107d05a03fa9050808015611820575080611fe15760405162461bcd60e51b815260206004820152601560248201527f70616972696e672d6f70636f64652d6661696c656400000000000000000000006044820152606401610811565b505115159695505050505050565b6040805160a0810190915260006060820181815260808301919091528152602081016120196120cd565b815260200161203b604051806040016040528060008152602001600081525090565b905290565b6040805160e08101909152600060a0820181815260c083019190915281526020810161206a6120cd565b81526020016120776120cd565b81526020016120846120cd565b8152602001606081525090565b60405180606001604052806003906020820280368337509192915050565b60405180608001604052806004906020820280368337509192915050565b60405180604001604052806120e061210b565b815260200161203b61210b565b60405180602001604052806001906020820280368337509192915050565b60405180604001604052806002906020820280368337509192915050565b600067ffffffffffffffff83111561214357612143612684565b8260051b61215081612590565b9150818386838601111561216357600080fd5b600092505b8583101561218757803582526001929092019160209182019101612168565b5050509392505050565b600082601f8301126121a1578081fd5b60406121ac81612590565b8084866080870111156121bd578485fd5b845b60028110156121e6576121d288836121f2565b8452602090930192908401906001016121bf565b50909695505050505050565b600082601f830112612202578081fd5b6109b883600284612129565b60006040828403121561221f578081fd5b6122296040612590565b9050813581526020820135602082015292915050565b600060808284031215612250578081fd5b61225a6040612590565b905061226683836121f2565b815261227583604084016121f2565b602082015292915050565b60006101e08284031215612292578081fd5b61229c60a0612590565b90506122a8838361220e565b815260406122b88482850161223f565b602081818501526122cc8660c0870161223f565b838501526122de86610140870161223f565b60608501526101c0850135915067ffffffffffffffff82111561230057600080fd5b818501915085601f83011261231457600080fd5b8135612327612322826125c1565b612590565b80828252838201915083850189858560061b880101111561234757600080fd5b600095505b838610156123725761235e8a8261220e565b83526001959095019491840191860161234c565b50608087015250939695505050505050565b6000806000806102c0858703121561239a578384fd5b6123a486866121f2565b93506123b38660408701612191565b92506123c28660c087016121f2565b91508561011f8601126123d3578081fd5b6123e386600e6101008801612129565b905092959194509250565b6000806000806101208587031215612404578384fd5b61240e86866121f2565b935061241d8660408701612191565b925061242c8660c087016121f2565b91508561011f86011261243d578081fd5b6123e38660016101008801612129565b6000806000806101408587031215612463578182fd5b61246d86866121f2565b935061247c8660408701612191565b925061248b8660c087016121f2565b91506123e38661010087016121f2565b600080600080600061014086880312156124b3578283fd5b6124bd87876121f2565b94506124cc8760408801612191565b93506124db8760c088016121f2565b925061010086013567ffffffffffffffff808211156124f8578283fd5b818801915088601f83011261250b578283fd5b8135602061251b612322836125c1565b8083825282820191508286018d848660051b890101111561253a578788fd5b8796505b8487101561255c57803583526001969096019591830191830161253e565b509650505050610120880135915080821115612576578283fd5b5061258388828901612280565b9150509295509295909350565b604051601f8201601f1916810167ffffffffffffffff811182821017156125b9576125b9612684565b604052919050565b600067ffffffffffffffff8211156125db576125db612684565b5060051b60200190565b600082198211156125f8576125f861266e565b500190565b60008160001904831182151516156126175761261761266e565b500290565b60008282101561262e5761262e61266e565b500390565b60006000198214156126475761264761266e565b5060010190565b60008261266957634e487b7160e01b81526012600452602481fd5b500690565b634e487b7160e01b600052601160045260246000fd5b634e487b7160e01b600052604160045260246000fdfea164736f6c6343000803000a",
  "linkReferences": {},
  "deployedLinkReferences": {}
}