{
  "_format": "hh-sol-artifact-1",
  "contractName": "Verifier",
  "sourceName": "contracts/Verifier.sol",
  "abi": [
    {
      "inputs": [
        {
          "internalType": "uint256[2]",
          "name": "a",
          "type": "uint256[2]"
        },
        {
          "internalType": "uint256[2][2]",
          "name": "b",
          "type": "uint256[2][2]"
        },
        {
          "internalType": "uint256[2]",
          "name": "c",
          "type": "uint256[2]"
        },
        {
          "internalType": "uint256[2]",
          "name": "input",
          "type": "uint256[2]"
        }
      ],
      "name": "verifyHashCheckBitsProof",
      "outputs": [
        {
          "internalType": "bool",
          "name": "",
          "type": "bool"
        }
      ],
      "stateMutability": "view",
      "type": "function"
    },
    {
      "inputs": [
        {
          "internalType": "uint256[2]",
          "name": "a",
          "type": "uint256[2]"
        },
        {
          "internalType": "uint256[2][2]",
          "name": "b",
          "type": "uint256[2][2]"
        },
        {
          "internalType": "uint256[2]",
          "name": "c",
          "type": "uint256[2]"
        },
        {
          "internalType": "uint256[2]",
          "name": "input",
          "type": "uint256[2]"
        }
      ],
      "name": "verifyHashCheckProof",
      "outputs": [
        {
          "internalType": "bool",
          "name": "",
          "type": "bool"
        }
      ],
      "stateMutability": "view",
      "type": "function"
    },
    {
      "inputs": [
        {
          "internalType": "uint256[2]",
          "name": "a",
          "type": "uint256[2]"
        },
        {
          "internalType": "uint256[2][2]",
          "name": "b",
          "type": "uint256[2][2]"
        },
        {
          "internalType": "uint256[2]",
          "name": "c",
          "type": "uint256[2]"
        },
        {
          "internalType": "uint256[]",
          "name": "input",
          "type": "uint256[]"
        },
        {
          "components": [
            {
              "components": [
                {
                  "internalType": "uint256",
                  "name": "X",
                  "type": "uint256"
                },
                {
                  "internalType": "uint256",
                  "name": "Y",
                  "type": "uint256"
                }
              ],
              "internalType": "struct Pairing.G1Point",
              "name": "alfa1",
              "type": "tuple"
            },
            {
              "components": [
                {
                  "internalType": "uint256[2]",
                  "name": "X",
                  "type": "uint256[2]"
                },
                {
                  "internalType": "uint256[2]",
                  "name": "Y",
                  "type": "uint256[2]"
                }
              ],
              "internalType": "struct Pairing.G2Point",
              "name": "beta2",
              "type": "tuple"
            },
            {
              "components": [
                {
                  "internalType": "uint256[2]",
                  "name": "X",
                  "type": "uint256[2]"
                },
                {
                  "internalType": "uint256[2]",
                  "name": "Y",
                  "type": "uint256[2]"
                }
              ],
              "internalType": "struct Pairing.G2Point",
              "name": "gamma2",
              "type": "tuple"
            },
            {
              "components": [
                {
                  "internalType": "uint256[2]",
                  "name": "X",
                  "type": "uint256[2]"
                },
                {
                  "internalType": "uint256[2]",
                  "name": "Y",
                  "type": "uint256[2]"
                }
              ],
              "internalType": "struct Pairing.G2Point",
              "name": "delta2",
              "type": "tuple"
            },
            {
              "components": [
                {
                  "internalType": "uint256",
                  "name": "X",
                  "type": "uint256"
                },
                {
                  "internalType": "uint256",
                  "name": "Y",
                  "type": "uint256"
                }
              ],
              "internalType": "struct Pairing.G1Point[]",
              "name": "IC",
              "type": "tuple[]"
            }
          ],
          "internalType": "struct Verifier.VerifyingKey",
          "name": "vk",
          "type": "tuple"
        }
      ],
      "name": "verifyProof",
      "outputs": [
        {
          "internalType": "bool",
          "name": "",
          "type": "bool"
        }
      ],
      "stateMutability": "view",
      "type": "function"
    },
    {
      "inputs": [
        {
          "internalType": "uint256[2]",
          "name": "a",
          "type": "uint256[2]"
        },
        {
          "internalType": "uint256[2][2]",
          "name": "b",
          "type": "uint256[2][2]"
        },
        {
          "internalType": "uint256[2]",
          "name": "c",
          "type": "uint256[2]"
        },
        {
          "internalType": "uint256[14]",
          "name": "input",
          "type": "uint256[14]"
        }
      ],
      "name": "verifySigCheckProof",
      "outputs": [
        {
          "internalType": "bool",
          "name": "",
          "type": "bool"
        }
      ],
      "stateMutability": "view",
      "type": "function"
    }
  ],
  "bytecode": "0x6126d061003a600b82828239805160001a60731461002d57634e487b7160e01b600052600060045260246000fd5b30600052607381538281f3fe73000000000000000000000000000000000000000030146080604052600436106100565760003560e01c80632159cf011461005b57806357c25080146100825780635c51045414610095578063defe0aee146100a8575b600080fd5b61006e610069366004612476565b6100bb565b604051901515815260200160405180910390f35b61006e6100903660046124c4565b610168565b61006e6100a336600461240c565b61020a565b61006e6100b6366004612476565b6102b0565b6040805160028082526060820183526000928392919060208301908036833701905050905060005b600281101561014e5783816002811061010c57634e487b7160e01b600052603260045260246000fd5b602002015182828151811061013157634e487b7160e01b600052603260045260246000fd5b6020908102919091010152806101468161265c565b9150506100e3565b5061015e86868684610090610353565b9695505050505050565b6000610172612077565b604080518082018252885181526020808a01518183015290835281516080810183528851518184019081528951830151606083015281528251808401845289830180515182525183015181840152818301528382015281518083018352875181528782015191810191909152908201526101ed848285610790565b6101fb576001915050610201565b60009150505b95945050505050565b60408051600e8082526101e08201909252600091829190602082016101c08036833701905050905060005b600e8110156102a0578381600e811061025e57634e487b7160e01b600052603260045260246000fd5b602002015182828151811061028357634e487b7160e01b600052603260045260246000fd5b6020908102919091010152806102988161265c565b915050610235565b5061015e868686846100906109bf565b6040805160028082526060820183526000928392919060208301908036833701905050905060005b60028110156103435783816002811061030157634e487b7160e01b600052603260045260246000fd5b602002015182828151811061032657634e487b7160e01b600052603260045260246000fd5b60209081029190910101528061033b8161265c565b9150506102d8565b5061015e8686868461009061142a565b61035b6120c8565b6040805180820182527f2b6d4650a4a9984dd255a254717ce985d4a2625229fa63ba1268f0c8f97af9eb81527f22f3991d50b793a3660fa6ad8ce156ac3eb478b77e8b0b74ffdf4be654c5610d6020808301919091529083528151608080820184527f0e27d2438600b41133385b48fc242556e81b44ab4d0ee9a3376da7315876c2ba8285019081527f074f8374c9ddae90032fb99308af80e087027dac3ec8f203bd7ee80d8b54bb44606080850191909152908352845180860186527f218374fdb8b41d2b36cdf8b50c9a925631381f50fa6b9ad5d281a172ad21293181527f0b04b6269c1b07424f6a6985dfab0cefd704a35cae92e15048f533f4c5da412b818601528385015285840192909252835180820185527f198e9393920d483a7260bfb731fb5d25f1aa493335a9e71297e485b7aef312c28186019081527f1800deef121f1e76426a00665e5c4479674322d4f75edadd46debd5cd992f6ed828501528152845180860186527f090689d0585ff075ec9e99ad690c3395bc4b313370b38ef355acdadcd122975b81527f12c85ea5db8c6deb4aab71808dcb408fe3d1e7690c43d37b4ce6cc0166fa7daa818601528185015285850152835180820185527f187dfd92e719cd335fec9868d596e847c0a6a9c3ce8fb650fd7241df14dbcdd68186019081527f0597134ad9f10975e7f84d2cef6b5fdd0d0db6a7c09392522406567ac086d316828501528152845180860186527f10e7fdf5ad93d2ce02e82a0f4bfcf7eb249faa09b8b20cb153815bd83265e7f381527f2693890a80919bfce04dd8182a121053eaa1404a7b9711631822671051270058818601528185015291850191909152825160038082529181019093529082015b60408051808201909152600080825260208201528152602001906001900390816105d757505060808201908152604080518082019091527f25c8a85f040c40225542d2ac42ffb36df95b4a746ca92a0cab1e2d7d33f11f1681527f214f0af6fc01d65edc5cab92e8a04201bc8c0f4a387719b50ee061d1fe3d131160208201529051805160009061067857634e487b7160e01b600052603260045260246000fd5b602002602001018190525060405180604001604052807f1757de578a6826ae258150b6efb5d1494dfa902dafc276f4794ddfc59b70badb81526020017f0142d427500ec0da4f09a85b12defc4d705b824d10b58614772825027384505481525081608001516001815181106106fd57634e487b7160e01b600052603260045260246000fd5b602002602001018190525060405180604001604052807f229c09d2f02c5e89f4c87ac086df29dffdcb959f4904cf13dc8076ed39f6484d81526020017f274f1cabe77e4b1422a0e3636371dd94503f41bab67066cc3fa63e3932038584815250816080015160028151811061078257634e487b7160e01b600052603260045260246000fd5b602002602001018190525090565b60808101515183516000917f30644e72e131a029b85045b68181585d2833e84879b9709143e1f593f0000001916107c890600161260e565b1461081a5760405162461bcd60e51b815260206004820152601260248201527f76657269666965722d6261642d696e707574000000000000000000000000000060448201526064015b60405180910390fd5b604080518082019091526000808252602082018190525b8651811015610935578287828151811061085b57634e487b7160e01b600052603260045260246000fd5b6020026020010151106108b05760405162461bcd60e51b815260206004820152601f60248201527f76657269666965722d6774652d736e61726b2d7363616c61722d6669656c64006044820152606401610811565b6109218261091c87608001518460016108c9919061260e565b815181106108e757634e487b7160e01b600052603260045260246000fd5b60200260200101518a858151811061090f57634e487b7160e01b600052603260045260246000fd5b6020026020010151611859565b611900565b91508061092d8161265c565b915050610831565b5061096c81856080015160008151811061095f57634e487b7160e01b600052603260045260246000fd5b6020026020010151611900565b90506109a261097e86600001516119a3565b8660200151866000015187602001518589604001518b604001518b60600151611a44565b6109b1576001925050506109b8565b6000925050505b9392505050565b6109c76120c8565b6040805180820182527f2d4d9aa7e302d9df41749d5507949d05dbea33fbb16c643b22f599a2be6df2e281527f14bedd503c37ceb061d8ec60209fe345ce89830a19230301f076caff004d19266020808301919091529083528151608080820184527f0967032fcbf776d1afc985f88877f182d38480a653f2decaa9794cbc3bf3060c8285019081527f0e187847ad4c798374d0d6732bf501847dd68bc0e071241e0213bc7fc13db7ab606080850191909152908352845180860186527f304cfbd1e08a704a99f5e847d93f8c3caafddec46b7a0d379da69a4d112346a781527f1739c1b1a457a8c7313123d24d2f9192f896b7c63eea05a9d57f06547ad0cec8818601528385015285840192909252835180820185527f198e9393920d483a7260bfb731fb5d25f1aa493335a9e71297e485b7aef312c28186019081527f1800deef121f1e76426a00665e5c4479674322d4f75edadd46debd5cd992f6ed828501528152845180860186527f090689d0585ff075ec9e99ad690c3395bc4b313370b38ef355acdadcd122975b81527f12c85ea5db8c6deb4aab71808dcb408fe3d1e7690c43d37b4ce6cc0166fa7daa818601528185015285850152835190810184527f187dfd92e719cd335fec9868d596e847c0a6a9c3ce8fb650fd7241df14dbcdd68185019081527f0597134ad9f10975e7f84d2cef6b5fdd0d0db6a7c09392522406567ac086d316828401528152835180850185527f10e7fdf5ad93d2ce02e82a0f4bfcf7eb249faa09b8b20cb153815bd83265e7f381527f2693890a80919bfce04dd8182a121053eaa1404a7b97116318226710512700588185015281840152908401528151600f8082526102008201909352919082015b6040805180820190915260008082526020820152815260200190600190039081610c4357505060808201908152604080518082019091527f01d8fa164ae8fac0590611216a236c4856aabf8857d9983fa603b386a6a1d91981527f0bce82414b6ee142329d5b50d0a5b81ade12795f76094189fa3b24456e2a41df602082015290518051600090610ce457634e487b7160e01b600052603260045260246000fd5b602002602001018190525060405180604001604052807f098168d4be60f7333125fd8bcd8fc4dde678e2316419c9174505b0034d299b3581526020017f01bff405c27312ae88c14a190d418cf9f6eba86712cf7580ce3b77df8de020048152508160800151600181518110610d6957634e487b7160e01b600052603260045260246000fd5b602002602001018190525060405180604001604052807f149c41e982dd1115602147400f3c1af5de377b046040872e78afd9a8fcf4740481526020017f266821fff9a919d6267182df9da7bfd2ff4bef1cc52924048be1b11ae1e24a5c8152508160800151600281518110610dee57634e487b7160e01b600052603260045260246000fd5b602002602001018190525060405180604001604052807f0a4b9ef09ba26cfa471884e449dfc62658e2469535d51125dceb315bd72ed16181526020017f1dc551829a5cab5e418b22f55cbee031678e959391fdce37b4d6058b3525e4768152508160800151600381518110610e7357634e487b7160e01b600052603260045260246000fd5b602002602001018190525060405180604001604052807f240135c36e7b7dd3911aec763ac83c9bdd75c11d5ed32ee3a0327506a1ed928381526020017f20964fdb692f67814e5108c591444d5bfda5e65020c15202d8c615f48c0653cb8152508160800151600481518110610ef857634e487b7160e01b600052603260045260246000fd5b602002602001018190525060405180604001604052807f01c2fe37999f39d97581577cba5532f2804cabf0297eb13db09a214bde314a0281526020017f2796e1512ba965f3b8c4299c5dfa3b9505ffdfc8d6ca4cc53775ece1ef63b4638152508160800151600581518110610f7d57634e487b7160e01b600052603260045260246000fd5b602002602001018190525060405180604001604052807f2cd2cdaf323e166f29d118acb15e69fad658a6ccfea0599e0b6e17543aebc6ff81526020017f1b6cd7fd780e8cd1dfcc407f741eec7a6014f4a764e5aa49c3e7e042db9b3010815250816080015160068151811061100257634e487b7160e01b600052603260045260246000fd5b602002602001018190525060405180604001604052807f2906995bd442b08516017af4fd80ab36f57263335583552ef88c6e6366c021a281526020017f06049f34e78f3a271abb0da12cf31580c69b7d6d15f4feeea6f3da85db2d708f815250816080015160078151811061108757634e487b7160e01b600052603260045260246000fd5b602002602001018190525060405180604001604052807f1db8447319407480deda465043f68d30b970c543e5a2c4f82241fb974660d82b81526020017f2c4163776a7448085f8e0425dedbc8c7806447842a7b845c687acae3f7ef3776815250816080015160088151811061110c57634e487b7160e01b600052603260045260246000fd5b602002602001018190525060405180604001604052807f1af661bd94eb8ab21d0bc9be8e72d4beaf1b26cac2daec0df0401052ce8972be81526020017f0f6ff1a8028b1554008199dcab9e1ed9c6fa7c7b0f71ee4fbf7204aa5c6c1262815250816080015160098151811061119157634e487b7160e01b600052603260045260246000fd5b602002602001018190525060405180604001604052807f0ff08f9b7ff175f1396d601a9c572106aa8a6f18ac50537c64cebd3f1ef7489d81526020017f1424f50e40cde8161296bda59697d1a42079b785b1021a87f1fcd0f1e756c9a18152508160800151600a8151811061121657634e487b7160e01b600052603260045260246000fd5b602002602001018190525060405180604001604052807f17199063a21f44856831e79632c4d423f792b278c865e5a6b4dbd34d2237594281526020017f1ed8cf799c14106bb30c1a4425e1d98d900809249c03c49e25cf07c4f42e67998152508160800151600b8151811061129b57634e487b7160e01b600052603260045260246000fd5b602002602001018190525060405180604001604052807f11666223b6ddb061489f9221c0e683648dd4c3f52410696ab38d5b551c97f40681526020017f10908e18ecd7815882d4e09cbebb63f2ea63a608c59bc13f41d094f6b081bcac8152508160800151600c8151811061132057634e487b7160e01b600052603260045260246000fd5b602002602001018190525060405180604001604052807f03ff773285459688479609d60d85ccc1aa55190d512f7521ccc97e65b20be90781526020017f10d49746e7bd2302b3b9fff31d976b470838b04182950ba7619ae19d2027ee1d8152508160800151600d815181106113a557634e487b7160e01b600052603260045260246000fd5b602002602001018190525060405180604001604052807f109b92e1c53fbf243a62687861867ec0d720b9e8547b6c429ce1799bcf2cde9481526020017f286bad3fedb4bb708adeee05a74f5fe48d670fa0a5ede9bc91454f263c43a3068152508160800151600e8151811061078257634e487b7160e01b600052603260045260246000fd5b6114326120c8565b6040805180820182527f2d4d9aa7e302d9df41749d5507949d05dbea33fbb16c643b22f599a2be6df2e281527f14bedd503c37ceb061d8ec60209fe345ce89830a19230301f076caff004d19266020808301919091529083528151608080820184527f0967032fcbf776d1afc985f88877f182d38480a653f2decaa9794cbc3bf3060c8285019081527f0e187847ad4c798374d0d6732bf501847dd68bc0e071241e0213bc7fc13db7ab606080850191909152908352845180860186527f304cfbd1e08a704a99f5e847d93f8c3caafddec46b7a0d379da69a4d112346a781527f1739c1b1a457a8c7313123d24d2f9192f896b7c63eea05a9d57f06547ad0cec8818601528385015285840192909252835180820185527f198e9393920d483a7260bfb731fb5d25f1aa493335a9e71297e485b7aef312c28186019081527f1800deef121f1e76426a00665e5c4479674322d4f75edadd46debd5cd992f6ed828501528152845180860186527f090689d0585ff075ec9e99ad690c3395bc4b313370b38ef355acdadcd122975b81527f12c85ea5db8c6deb4aab71808dcb408fe3d1e7690c43d37b4ce6cc0166fa7daa818601528185015285850152835180820185527f187dfd92e719cd335fec9868d596e847c0a6a9c3ce8fb650fd7241df14dbcdd68186019081527f0597134ad9f10975e7f84d2cef6b5fdd0d0db6a7c09392522406567ac086d316828501528152845180860186527f10e7fdf5ad93d2ce02e82a0f4bfcf7eb249faa09b8b20cb153815bd83265e7f381527f2693890a80919bfce04dd8182a121053eaa1404a7b9711631822671051270058818601528185015291850191909152825160038082529181019093529082015b60408051808201909152600080825260208201528152602001906001900390816116ae57505060808201908152604080518082019091527f0c50b7383ec2b0ec10009bf7d2a789ba363aa30ef54132ac8854275255e4391d81527f03a81ccf7cffadd22130fed1f55e50a95103f9792420c8145313847ee469601860208201529051805160009061174f57634e487b7160e01b600052603260045260246000fd5b602002602001018190525060405180604001604052807f017854a121bcc0ca959b72e6fdcce20d62f56dd57c1989e11129c6562bc077a081526020017f148a9d77923b2500c136f98264f484c547ec70fb2543d3c8c6d563025ca59b7681525081608001516001815181106117d457634e487b7160e01b600052603260045260246000fd5b602002602001018190525060405180604001604052807f265049e7487995314aa5b9ad31ae351a1352fcd518bd039a02cc6edd5c6fd3f981526020017f14ceeb8a49c50293610f768c1d957392826c89d84a6930a8f287fd57237f07ec815250816080015160028151811061078257634e487b7160e01b600052603260045260246000fd5b6040805180820190915260008082526020820152611875612119565b835181526020808501519082015260408101839052600060608360808460076107d05a03fa90508080156118a8576118aa565bfe5b50806118f85760405162461bcd60e51b815260206004820152601260248201527f70616972696e672d6d756c2d6661696c656400000000000000000000000000006044820152606401610811565b505092915050565b604080518082019091526000808252602082015261191c612137565b8351815260208085015181830152835160408301528301516060808301919091526000908360c08460066107d05a03fa90508080156118a85750806118f85760405162461bcd60e51b815260206004820152601260248201527f70616972696e672d6164642d6661696c656400000000000000000000000000006044820152606401610811565b604080518082019091526000808252602082015281517f30644e72e131a029b85045b68181585d97816a916871ca8d3c208c16d87cfd47901580156119ea57506020830151155b15611a0a5750506040805180820190915260008082526020820152611a3f565b604051806040016040528084600001518152602001828560200151611a2f9190612677565b611a399084612645565b90529150505b919050565b60408051600480825260a08201909252600091829190816020015b6040805180820190915260008082526020820152815260200190600190039081611a5f57505060408051600480825260a0820190925291925060009190602082015b611aa9612155565b815260200190600190039081611aa15790505090508a82600081518110611ae057634e487b7160e01b600052603260045260246000fd5b60200260200101819052508882600181518110611b0d57634e487b7160e01b600052603260045260246000fd5b60200260200101819052508682600281518110611b3a57634e487b7160e01b600052603260045260246000fd5b60200260200101819052508482600381518110611b6757634e487b7160e01b600052603260045260246000fd5b60200260200101819052508981600081518110611b9457634e487b7160e01b600052603260045260246000fd5b60200260200101819052508781600181518110611bc157634e487b7160e01b600052603260045260246000fd5b60200260200101819052508581600281518110611bee57634e487b7160e01b600052603260045260246000fd5b60200260200101819052508381600381518110611c1b57634e487b7160e01b600052603260045260246000fd5b6020026020010181905250611c308282611c3f565b9b9a5050505050505050505050565b60008151835114611c925760405162461bcd60e51b815260206004820152601660248201527f70616972696e672d6c656e677468732d6661696c6564000000000000000000006044820152606401610811565b82516000611ca1826006612626565b905060008167ffffffffffffffff811115611ccc57634e487b7160e01b600052604160045260246000fd5b604051908082528060200260200182016040528015611cf5578160200160208202803683370190505b50905060005b83811015611ff457868181518110611d2357634e487b7160e01b600052603260045260246000fd5b60200260200101516000015182826006611d3d9190612626565b611d4890600061260e565b81518110611d6657634e487b7160e01b600052603260045260246000fd5b602002602001018181525050868181518110611d9257634e487b7160e01b600052603260045260246000fd5b60200260200101516020015182826006611dac9190612626565b611db790600161260e565b81518110611dd557634e487b7160e01b600052603260045260246000fd5b602002602001018181525050858181518110611e0157634e487b7160e01b600052603260045260246000fd5b6020908102919091010151515182611e1a836006612626565b611e2590600261260e565b81518110611e4357634e487b7160e01b600052603260045260246000fd5b602002602001018181525050858181518110611e6f57634e487b7160e01b600052603260045260246000fd5b60209081029190910181015151015182611e8a836006612626565b611e9590600361260e565b81518110611eb357634e487b7160e01b600052603260045260246000fd5b602002602001018181525050858181518110611edf57634e487b7160e01b600052603260045260246000fd5b602002602001015160200151600060028110611f0b57634e487b7160e01b600052603260045260246000fd5b602002015182611f1c836006612626565b611f2790600461260e565b81518110611f4557634e487b7160e01b600052603260045260246000fd5b602002602001018181525050858181518110611f7157634e487b7160e01b600052603260045260246000fd5b602002602001015160200151600160028110611f9d57634e487b7160e01b600052603260045260246000fd5b602002015182611fae836006612626565b611fb990600561260e565b81518110611fd757634e487b7160e01b600052603260045260246000fd5b602090810291909101015280611fec8161265c565b915050611cfb565b50611ffd612175565b6000602082602086026020860160086107d05a03fa90508080156118a85750806120695760405162461bcd60e51b815260206004820152601560248201527f70616972696e672d6f70636f64652d6661696c656400000000000000000000006044820152606401610811565b505115159695505050505050565b6040805160a0810190915260006060820181815260808301919091528152602081016120a1612155565b81526020016120c3604051806040016040528060008152602001600081525090565b905290565b6040805160e08101909152600060a0820181815260c08301919091528152602081016120f2612155565b81526020016120ff612155565b815260200161210c612155565b8152602001606081525090565b60405180606001604052806003906020820280368337509192915050565b60405180608001604052806004906020820280368337509192915050565b6040518060400160405280612168612193565b81526020016120c3612193565b60405180602001604052806001906020820280368337509192915050565b60405180604001604052806002906020820280368337509192915050565b600067ffffffffffffffff8311156121cb576121cb6126ad565b8260051b6121d8816125b9565b915081838683860111156121eb57600080fd5b600092505b8583101561220f578035825260019290920191602091820191016121f0565b5050509392505050565b600082601f830112612229578081fd5b6040612234816125b9565b808486608087011115612245578485fd5b845b600281101561226e5761225a888361227a565b845260209093019290840190600101612247565b50909695505050505050565b600082601f83011261228a578081fd5b6109b8836002846121b1565b6000604082840312156122a7578081fd5b6122b160406125b9565b9050813581526020820135602082015292915050565b6000608082840312156122d8578081fd5b6122e260406125b9565b90506122ee838361227a565b81526122fd836040840161227a565b602082015292915050565b60006101e0828403121561231a578081fd5b61232460a06125b9565b90506123308383612296565b81526040612340848285016122c7565b602081818501526123548660c087016122c7565b838501526123668661014087016122c7565b60608501526101c0850135915067ffffffffffffffff82111561238857600080fd5b818501915085601f83011261239c57600080fd5b81356123af6123aa826125ea565b6125b9565b80828252838201915083850189858560061b88010111156123cf57600080fd5b600095505b838610156123fa576123e68a82612296565b8352600195909501949184019186016123d4565b50608087015250939695505050505050565b6000806000806102c08587031215612422578384fd5b61242c868661227a565b935061243b8660408701612219565b925061244a8660c0870161227a565b91508561011f86011261245b578081fd5b61246b86600e61010088016121b1565b905092959194509250565b600080600080610140858703121561248c578384fd5b612496868661227a565b93506124a58660408701612219565b92506124b48660c0870161227a565b915061246b86610100870161227a565b600080600080600061014086880312156124dc578081fd5b6124e6878761227a565b94506124f58760408801612219565b93506125048760c0880161227a565b925061010086013567ffffffffffffffff80821115612521578283fd5b818801915088601f830112612534578283fd5b813560206125446123aa836125ea565b8083825282820191508286018d848660051b8901011115612563578788fd5b8796505b84871015612585578035835260019690960195918301918301612567565b50965050505061012088013591508082111561259f578283fd5b506125ac88828901612308565b9150509295509295909350565b604051601f8201601f1916810167ffffffffffffffff811182821017156125e2576125e26126ad565b604052919050565b600067ffffffffffffffff821115612604576126046126ad565b5060051b60200190565b6000821982111561262157612621612697565b500190565b600081600019048311821515161561264057612640612697565b500290565b60008282101561265757612657612697565b500390565b600060001982141561267057612670612697565b5060010190565b60008261269257634e487b7160e01b81526012600452602481fd5b500690565b634e487b7160e01b600052601160045260246000fd5b634e487b7160e01b600052604160045260246000fdfea164736f6c6343000803000a",
  "linkReferences": {},
  "deployedLinkReferences": {}
}